{
  "contractName": "CompoundBorrow",
  "abi": [
    {
      "inputs": [
        {
          "internalType": "address payable",
          "name": "_cEtherAddress",
          "type": "address"
        },
        {
          "internalType": "address",
          "name": "_comptrollerAddress",
          "type": "address"
        },
        {
          "internalType": "address",
          "name": "_priceOracleAddress",
          "type": "address"
        },
        {
          "internalType": "address",
          "name": "_cDaiAddress",
          "type": "address"
        },
        {
          "internalType": "address",
          "name": "_erc20Address",
          "type": "address"
        }
      ],
      "stateMutability": "nonpayable",
      "type": "constructor"
    },
    {
      "anonymous": false,
      "inputs": [
        {
          "indexed": false,
          "internalType": "string",
          "name": "",
          "type": "string"
        },
        {
          "indexed": false,
          "internalType": "uint256",
          "name": "",
          "type": "uint256"
        }
      ],
      "name": "Log",
      "type": "event"
    },
    {
      "inputs": [],
      "name": "cDai",
      "outputs": [
        {
          "internalType": "contract CErc20",
          "name": "",
          "type": "address"
        }
      ],
      "stateMutability": "view",
      "type": "function",
      "constant": true
    },
    {
      "inputs": [],
      "name": "cDaiAddress",
      "outputs": [
        {
          "internalType": "address",
          "name": "",
          "type": "address"
        }
      ],
      "stateMutability": "view",
      "type": "function",
      "constant": true
    },
    {
      "inputs": [],
      "name": "cEth",
      "outputs": [
        {
          "internalType": "contract CEth",
          "name": "",
          "type": "address"
        }
      ],
      "stateMutability": "view",
      "type": "function",
      "constant": true
    },
    {
      "inputs": [],
      "name": "cEtherAddress",
      "outputs": [
        {
          "internalType": "address",
          "name": "",
          "type": "address"
        }
      ],
      "stateMutability": "view",
      "type": "function",
      "constant": true
    },
    {
      "inputs": [],
      "name": "comptroller",
      "outputs": [
        {
          "internalType": "contract Comptroller",
          "name": "",
          "type": "address"
        }
      ],
      "stateMutability": "view",
      "type": "function",
      "constant": true
    },
    {
      "inputs": [],
      "name": "dai",
      "outputs": [
        {
          "internalType": "contract Erc20",
          "name": "",
          "type": "address"
        }
      ],
      "stateMutability": "view",
      "type": "function",
      "constant": true
    },
    {
      "inputs": [],
      "name": "priceOracle",
      "outputs": [
        {
          "internalType": "contract PriceOracle",
          "name": "",
          "type": "address"
        }
      ],
      "stateMutability": "view",
      "type": "function",
      "constant": true
    },
    {
      "inputs": [
        {
          "internalType": "uint256",
          "name": "amount",
          "type": "uint256"
        }
      ],
      "name": "borrowErc20",
      "outputs": [
        {
          "internalType": "bool",
          "name": "",
          "type": "bool"
        }
      ],
      "stateMutability": "payable",
      "type": "function",
      "payable": true
    },
    {
      "inputs": [],
      "name": "getBorrowBalance",
      "outputs": [
        {
          "internalType": "uint256",
          "name": "",
          "type": "uint256"
        }
      ],
      "stateMutability": "nonpayable",
      "type": "function"
    },
    {
      "inputs": [
        {
          "internalType": "uint256",
          "name": "amount",
          "type": "uint256"
        }
      ],
      "name": "myErc20RepayBorrow",
      "outputs": [
        {
          "internalType": "bool",
          "name": "",
          "type": "bool"
        }
      ],
      "stateMutability": "nonpayable",
      "type": "function"
    }
  ],
  "bytecode": "0x608060405234801561001057600080fd5b50604051610bdb380380610bdb833981810160405260a081101561003357600080fd5b508051602082015160408301516060840151608090940151600080546001600160a01b03199081166001600160a01b039687169081178355600180548316968816969096179095556002805482169487169490941790935560038054841696861696871790556004805484169590921694909417905560058054821690921790915560068054909116909217909155610b099081906100d290396000f3fe6080604052600436106100915760003560e01c8063a44026a311610059578063a44026a31461014c578063ca20659114610161578063de836acf14610188578063f2c65bf91461019d578063f4b9fa75146101b257610091565b80630c334aa1146100965780632630c12f146100c75780635fe3b567146100f857806385418e3d1461010d5780639b089d5514610137575b600080fd5b6100b3600480360360208110156100ac57600080fd5b50356101c7565b604080519115158252519081900360200190f35b3480156100d357600080fd5b506100dc6107d1565b604080516001600160a01b039092168252519081900360200190f35b34801561010457600080fd5b506100dc6107e0565b34801561011957600080fd5b506100b36004803603602081101561013057600080fd5b50356107ef565b34801561014357600080fd5b506100dc610950565b34801561015857600080fd5b506100dc61095f565b34801561016d57600080fd5b5061017661096e565b60408051918252519081900360200190f35b34801561019457600080fd5b506100dc610a5a565b3480156101a957600080fd5b506100dc610a69565b3480156101be57600080fd5b506100dc610a78565b60008060009054906101000a90046001600160a01b03166001600160a01b0316631249c58b346040518263ffffffff1660e01b81526004016000604051808303818588803b15801561021857600080fd5b505af115801561022c573d6000803e3d6000fd5b5050604080516001808252818301909252606094509250905060208083019080388339505060055482519293506001600160a01b03169183915060009061026f57fe5b6001600160a01b03928316602091820292909201810191909152600154604051631853304760e31b815260048101838152855160248301528551606095939093169363c29982389387938392604490910191858201910280838360005b838110156102e45781810151838201526020016102cc565b5050505090500192505050600060405180830381600087803b15801561030957600080fd5b505af115801561031d573d6000803e3d6000fd5b505050506040513d6000823e601f3d908101601f19168201604052602081101561034657600080fd5b810190808051604051939291908464010000000082111561036657600080fd5b90830190602082018581111561037b57600080fd5b825186602082028301116401000000008211171561039857600080fd5b82525081516020918201928201910280838360005b838110156103c55781810151838201526020016103ad565b505050509050016040525050509050806000815181106103e157fe5b602002602001015160001461043d576040805162461bcd60e51b815260206004820181905260248201527f436f6d7074726f6c6c65722e656e7465724d61726b657473206661696c65642e604482015290519081900360640190fd5b60015460408051635ec88c7960e01b81523060048201529051600092839283926001600160a01b0390921691635ec88c7991602480820192606092909190829003018186803b15801561048f57600080fd5b505afa1580156104a3573d6000803e3d6000fd5b505050506040513d60608110156104b957600080fd5b50805160208201516040909201519094509092509050821561050c5760405162461bcd60e51b8152600401808060200182810382526027815260200180610aad6027913960400191505060405180910390fd5b8015610554576040805162461bcd60e51b815260206004820152601260248201527130b1b1b7bab73a103ab73232b93bb0ba32b960711b604482015290519081900360640190fd5b600082116105a9576040805162461bcd60e51b815260206004820152601d60248201527f6163636f756e74206861732065786365737320636f6c6c61746572616c000000604482015290519081900360640190fd5b6002546006546040805163fc57d4df60e01b81526001600160a01b0392831660048201529051600093929092169163fc57d4df91602480820192602092909190829003018186803b1580156105fd57600080fd5b505afa158015610611573d6000803e3d6000fd5b505050506040513d602081101561062757600080fd5b50519050600081848161063657fe5b0490507fdd970dd9b5bfe707922155b058a407655cb18288b807e2216442bca8ad83d6b581604051808060200183815260200182810382526025815260200180610a88602591396040019250505060405180910390a188670de0b6b3a764000081028281106106ec576040805162461bcd60e51b815260206004820181905260248201527f626f72726f7720657863656564206d617820616c6c6f776564206e756d626572604482015290519081900360640190fd5b6003546040805163317afabb60e21b81526004810184905290516001600160a01b039092169163c5ebeaec916024808201926020929091908290030181600087803b15801561073a57600080fd5b505af115801561074e573d6000803e3d6000fd5b505050506040513d602081101561076457600080fd5b505060408051602081018d905281815260118183015270109bdc9c9bddc811105248185b5bdd5b9d607a1b606082015290517fdd970dd9b5bfe707922155b058a407655cb18288b807e2216442bca8ad83d6b59181900360800190a15060019a9950505050505050505050565b6002546001600160a01b031681565b6001546001600160a01b031681565b600480546006546040805163095ea7b360e01b81526001600160a01b03928316948101949094526024840185905251600093919092169163095ea7b39160448082019260209290919082900301818787803b15801561084d57600080fd5b505af1158015610861573d6000803e3d6000fd5b505050506040513d602081101561087757600080fd5b50506003546040805163073a938160e11b81526004810185905290516000926001600160a01b031691630e75270291602480830192602092919082900301818787803b1580156108c657600080fd5b505af11580156108da573d6000803e3d6000fd5b505050506040513d60208110156108f057600080fd5b505190508015610947576040805162461bcd60e51b815260206004820152601860248201527f4345726332302e7265706179426f72726f77204572726f720000000000000000604482015290519081900360640190fd5b50600192915050565b6003546001600160a01b031681565b6000546001600160a01b031681565b600354604080516305eff7ef60e21b8152306004820152905160009283926001600160a01b03909116916317bfdfbc9160248082019260209290919082900301818787803b1580156109bf57600080fd5b505af11580156109d3573d6000803e3d6000fd5b505050506040513d60208110156109e957600080fd5b505160408051602081018390528181526019818301527f43757272656e742044414920626f72726f7720616d6f756e7400000000000000606082015290519192507fdd970dd9b5bfe707922155b058a407655cb18288b807e2216442bca8ad83d6b5919081900360800190a1905090565b6005546001600160a01b031681565b6006546001600160a01b031681565b6004546001600160a01b03168156fe4d6178696d756d2044414920426f72726f772028626f72726f7720666172206c6573732129436f6d7074726f6c6c65722e6765744163636f756e744c6971756964697479206661696c65642ea264697066735822122097d2c23897f5a4ba6296bf5d067dc7fbd6a8015d5bfad4d116421168500b218c64736f6c63430006000033",
  "source": "pragma solidity >=0.4.22 <0.7.0;\n\ninterface Erc20 {\n    function approve(address, uint256) external returns (bool);\n\n    function transfer(address, uint256) external returns (bool);\n}\n\n\ninterface CErc20 {\n    function mint(uint256) external returns (uint256);\n\n    function borrow(uint256) external returns (uint256);\n\n    function borrowRatePerBlock() external view returns (uint256);\n\n    function borrowBalanceCurrent(address) external returns (uint256);\n\n    function repayBorrow(uint256) external returns (uint256);\n}\n\n\ninterface CEth {\n    function mint() external payable;\n\n    function borrow(uint256) external returns (uint256);\n\n    function repayBorrow() external payable;\n\n    function borrowBalanceCurrent(address) external returns (uint256);\n}\n\n\ninterface Comptroller {\n    function markets(address) external returns (bool, uint256);\n\n    function enterMarkets(address[] calldata)\n        external\n        returns (uint256[] memory);\n\n    function getAccountLiquidity(address)\n        external\n        view\n        returns (uint256, uint256, uint256);\n}\n\n\ninterface PriceOracle {\n    function getUnderlyingPrice(address) external view returns (uint256);\n}\n\n\ncontract CompoundBorrow {\n    CEth public cEth;\n    Comptroller public comptroller;\n    PriceOracle public priceOracle;\n    CErc20 public cDai;\n    Erc20 public dai;\n    address public cEtherAddress;\n    address public cDaiAddress;\n\n    event Log(string, uint256);\n\n    constructor(\n        address payable _cEtherAddress, \n        address _comptrollerAddress,\n        address _priceOracleAddress,\n        address _cDaiAddress, \n        address _erc20Address \n        ) public {\n       cEth = CEth(_cEtherAddress);\n       comptroller = Comptroller(_comptrollerAddress);\n       priceOracle = PriceOracle(_priceOracleAddress); \n       cDai = CErc20(_cDaiAddress); \n       dai = Erc20(_erc20Address);\n\n       cEtherAddress = _cEtherAddress;\n       cDaiAddress = _cDaiAddress;\n    }\n\n    function borrowErc20 (uint256 amount) public payable returns (bool) {\n        // Supply ETH as collateral, get cETH in return\n        cEth.mint.value(msg.value)();\n\n        // Enter the ETH market so you can borrow another type of asset\n        address[] memory cTokens = new address[](1);\n        cTokens[0] = cEtherAddress;\n        uint256[] memory errors = comptroller.enterMarkets(cTokens);\n        if (errors[0] != 0) {\n            revert(\"Comptroller.enterMarkets failed.\");\n        }\n\n        // Get my account's total liquidity value in Compound\n        (uint256 error, uint256 liquidity, uint256 shortfall) = comptroller\n            .getAccountLiquidity(address(this));\n        if (error != 0) {\n            revert(\"Comptroller.getAccountLiquidity failed.\");\n        }\n        require(shortfall == 0, \"account underwater\");\n        require(liquidity > 0, \"account has excess collateral\");\n\n        // Get the collateral factor for our collateral\n        // (\n        //   bool isListed,\n        //   uint collateralFactorMantissa\n        // ) = comptroller.markets(_cEthAddress);\n        // emit Log('ETH Collateral Factor', collateralFactorMantissa);\n\n        // Get the amount of DAI added to your borrow each block\n        // uint borrowRateMantissa = cDai.borrowRatePerBlock();\n        // emit Log('Current DAI Borrow Rate', borrowRateMantissa);\n\n        // Get the DAI price in ETH from the Price Oracle,\n        // so we can find out the maximum amount of DAI we can borrow.\n        uint256 daiPriceInWei = priceOracle.getUnderlyingPrice(cDaiAddress);\n        uint256 maxBorrowDaiInWei = liquidity / daiPriceInWei;\n\n        // Borrowing near the max amount will result\n        // in your account being liquidated instantly\n        emit Log(\"Maximum DAI Borrow (borrow far less!)\", maxBorrowDaiInWei);\n\n        // Borrow DAI\n        uint256 numDaiToBorrow = amount;\n        uint256 numDaiToBorrowInWei = numDaiToBorrow * 1e18;\n\n        require(numDaiToBorrowInWei < maxBorrowDaiInWei, \"borrow exceed max allowed number\");\n\n        // Borrow DAI\n        cDai.borrow(numDaiToBorrowInWei);\n        emit Log(\"Borrow DAI amount\", amount);\n\n        return true;\n    }\n\n    function getBorrowBalance() public returns (uint256) {\n        uint256 borrows = cDai.borrowBalanceCurrent(address(this));\n        emit Log(\"Current DAI borrow amount\", borrows);\n\n        return borrows;\n    }\n\n    function myErc20RepayBorrow(uint256 amount) public returns (bool) {\n        dai.approve(cDaiAddress, amount);\n        uint256 error = cDai.repayBorrow(amount);\n\n        require(error == 0, \"CErc20.repayBorrow Error\");\n        return true;\n    }\n}\n",
  "sourcePath": "/Users/rchuqiao/Documents/renchuqiao/karm/contracts/CompoundBorrow.sol",
  "compiler": {
    "name": "solc",
    "version": "0.6.0+commit.26b70077.Emscripten.clang"
  },
  "schemaVersion": "3.1.0",
  "updatedAt": "2020-05-24T08:45:01.624Z",
  "networkType": "ethereum",
  "devdoc": {
    "methods": {}
  },
  "userdoc": {
    "methods": {}
  }
}