{
  "contractName": "MockCompoundOracle",
  "abi": [
    {
      "inputs": [],
      "stateMutability": "nonpayable",
      "type": "constructor"
    },
    {
      "inputs": [
        {
          "internalType": "address",
          "name": "asset",
          "type": "address"
        }
      ],
      "name": "getPrice",
      "outputs": [
        {
          "internalType": "uint256",
          "name": "",
          "type": "uint256"
        }
      ],
      "stateMutability": "view",
      "type": "function"
    },
    {
      "inputs": [
        {
          "internalType": "uint256",
          "name": "newPrice",
          "type": "uint256"
        }
      ],
      "name": "updatePrice",
      "outputs": [],
      "stateMutability": "nonpayable",
      "type": "function"
    }
  ],
  "bytecode": "0x60806040526611c37937e0800060005534801561001b57600080fd5b5060f38061002a6000396000f3fe6080604052348015600f57600080fd5b5060043610604e577c0100000000000000000000000000000000000000000000000000000000600035046341976e09811460535780638d6cc56d146095575b600080fd5b608360048036036020811015606757600080fd5b503573ffffffffffffffffffffffffffffffffffffffff1660b1565b60408051918252519081900360200190f35b60af6004803603602081101560a957600080fd5b503560b8565b005b5060005490565b60005556fea2646970667358221220e6eda7f774dad201aa5407681a65116b66fd26e176d9e708f668f6bbf68870dc64736f6c63430006000033",
  "source": "// pragma solidity 0.5.10;\npragma solidity >=0.4.22 <0.7.0;\n\ncontract MockCompoundOracle {\n    constructor() public {\n    }\n\n    uint256 price = 5 * (10 ** 15);\n    function getPrice(address asset) public view returns (uint) {\n        return price;\n    }\n\n    function updatePrice(uint256 newPrice) public {\n        price = newPrice;\n    }\n}\n",
  "sourcePath": "/Users/jenil/Desktop/code/hip/contracts/opyn/lib/MockCompoundOracle.sol",
  "compiler": {
    "name": "solc",
    "version": "0.6.0+commit.26b70077.Emscripten.clang"
  },
  "schemaVersion": "3.1.0",
  "updatedAt": "2020-05-22T17:04:41.557Z",
  "devdoc": {
    "methods": {}
  },
  "userdoc": {
    "methods": {}
  }
}