{
  "contractName": "MockUniswapFactory",
  "abi": [
    {
      "inputs": [],
      "stateMutability": "nonpayable",
      "type": "constructor"
    },
    {
      "inputs": [],
      "name": "exchangeTemplate",
      "outputs": [
        {
          "internalType": "address",
          "name": "",
          "type": "address"
        }
      ],
      "stateMutability": "view",
      "type": "function"
    },
    {
      "inputs": [],
      "name": "tokenCount",
      "outputs": [
        {
          "internalType": "uint256",
          "name": "",
          "type": "uint256"
        }
      ],
      "stateMutability": "view",
      "type": "function"
    },
    {
      "inputs": [
        {
          "internalType": "address",
          "name": "token",
          "type": "address"
        }
      ],
      "name": "createExchange",
      "outputs": [
        {
          "internalType": "address",
          "name": "exchange",
          "type": "address"
        }
      ],
      "stateMutability": "nonpayable",
      "type": "function"
    },
    {
      "inputs": [
        {
          "internalType": "address",
          "name": "token",
          "type": "address"
        }
      ],
      "name": "getExchange",
      "outputs": [
        {
          "internalType": "address",
          "name": "exchange",
          "type": "address"
        }
      ],
      "stateMutability": "view",
      "type": "function"
    },
    {
      "inputs": [
        {
          "internalType": "address",
          "name": "exchange",
          "type": "address"
        }
      ],
      "name": "getToken",
      "outputs": [
        {
          "internalType": "address",
          "name": "token",
          "type": "address"
        }
      ],
      "stateMutability": "view",
      "type": "function"
    },
    {
      "inputs": [
        {
          "internalType": "uint256",
          "name": "tokenId",
          "type": "uint256"
        }
      ],
      "name": "getTokenWithId",
      "outputs": [
        {
          "internalType": "address",
          "name": "token",
          "type": "address"
        }
      ],
      "stateMutability": "view",
      "type": "function"
    },
    {
      "inputs": [
        {
          "internalType": "address",
          "name": "template",
          "type": "address"
        }
      ],
      "name": "initializeFactory",
      "outputs": [],
      "stateMutability": "nonpayable",
      "type": "function"
    }
  ],
  "bytecode": "0x608060405234801561001057600080fd5b506101df806100206000396000f3fe608060405234801561001057600080fd5b506004361061009a576000357c010000000000000000000000000000000000000000000000000000000090048063538a3f0e11610078578063538a3f0e14610103578063597704381461009f5780639f181b5e14610138578063aa65a6c0146101525761009a565b806306f2bf621461009f5780631648f38e1461009f5780631c2bbd18146100fb575b600080fd5b6100d2600480360360208110156100b557600080fd5b503573ffffffffffffffffffffffffffffffffffffffff1661016b565b6040805173ffffffffffffffffffffffffffffffffffffffff9092168252519081900360200190f35b6100d2610184565b6101366004803603602081101561011957600080fd5b503573ffffffffffffffffffffffffffffffffffffffff166101a0565b005b6101406101a3565b60408051918252519081900360200190f35b6100d26004803603602081101561016857600080fd5b50355b507306d014475f84bb45b9cded1cf3a1b8fe3fbaf12890565b60005473ffffffffffffffffffffffffffffffffffffffff1681565b50565b6001548156fea264697066735822122021dc2931154b31df80edc7e2a9f49de5e9118b31b7728c04ecc632d2fdb7891d64736f6c63430006000033",
  "source": "// pragma solidity 0.5.10;\npragma solidity >=0.4.22 <0.7.0;\n\ncontract MockUniswapFactory {\n\n    constructor () public {\n    }\n\n    address public exchangeTemplate;\n    uint256 public tokenCount;\n    // Create Exchange\n    function createExchange(address token) external returns (address exchange) {\n        return 0x06D014475F84Bb45b9cdeD1Cf3A1b8FE3FbAf128;\n    }\n    // Get Exchange and Token Info\n    function getExchange(address token) external view returns (address exchange){\n        return 0x06D014475F84Bb45b9cdeD1Cf3A1b8FE3FbAf128;\n    }\n    function getToken(address exchange) external view returns (address token) {\n        return 0x06D014475F84Bb45b9cdeD1Cf3A1b8FE3FbAf128;\n    }\n    function getTokenWithId(uint256 tokenId) external view returns (address token) {\n        return 0x06D014475F84Bb45b9cdeD1Cf3A1b8FE3FbAf128;\n    }\n    // Never use\n    function initializeFactory(address template) external {\n    }\n}\n\n",
  "sourcePath": "/Users/jenil/Desktop/code/hip/contracts/opyn/lib/MockUniswapFactory.sol",
  "compiler": {
    "name": "solc",
    "version": "0.6.0+commit.26b70077.Emscripten.clang"
  },
  "schemaVersion": "3.1.0",
  "updatedAt": "2020-05-22T17:04:41.558Z",
  "devdoc": {
    "methods": {}
  },
  "userdoc": {
    "methods": {}
  }
}