{
  "contractName": "OptionsUtils",
  "abi": [
    {
      "inputs": [
        {
          "internalType": "address",
          "name": "_uniswapFactory",
          "type": "address"
        },
        {
          "internalType": "address",
          "name": "_compoundOracle",
          "type": "address"
        }
      ],
      "stateMutability": "nonpayable",
      "type": "constructor"
    },
    {
      "inputs": [],
      "name": "COMPOUND_ORACLE",
      "outputs": [
        {
          "internalType": "contract CompoundOracleInterface",
          "name": "",
          "type": "address"
        }
      ],
      "stateMutability": "view",
      "type": "function"
    },
    {
      "inputs": [],
      "name": "UNISWAP_FACTORY",
      "outputs": [
        {
          "internalType": "contract UniswapFactoryInterface",
          "name": "",
          "type": "address"
        }
      ],
      "stateMutability": "view",
      "type": "function"
    },
    {
      "inputs": [
        {
          "internalType": "address",
          "name": "_token",
          "type": "address"
        }
      ],
      "name": "getExchange",
      "outputs": [
        {
          "internalType": "contract UniswapExchangeInterface",
          "name": "",
          "type": "address"
        }
      ],
      "stateMutability": "view",
      "type": "function"
    },
    {
      "inputs": [
        {
          "internalType": "contract IERC20",
          "name": "_ierc20",
          "type": "address"
        }
      ],
      "name": "isETH",
      "outputs": [
        {
          "internalType": "bool",
          "name": "",
          "type": "bool"
        }
      ],
      "stateMutability": "pure",
      "type": "function"
    }
  ],
  "bytecode": "0x608060405234801561001057600080fd5b506040516103793803806103798339818101604052604081101561003357600080fd5b50805160209091015160008054600160a060020a03938416600160a060020a031991821617909155600180549390921692169190911790556102ff8061007a6000396000f3fe608060405234801561001057600080fd5b5060043610610068577c0100000000000000000000000000000000000000000000000000000000600035046306f2bf62811461006d5780638a5e8cc7146100af578063c74c0fac146100b7578063f70a2508146100bf575b600080fd5b6100936004803603602081101561008357600080fd5b5035600160a060020a03166100f9565b60408051600160a060020a039092168252519081900360200190f35b61009361029e565b6100936102ad565b6100e5600480360360208110156100d557600080fd5b5035600160a060020a03166102bc565b604080519115158252519081900360200190f35b60008054604080517f06f2bf62000000000000000000000000000000000000000000000000000000008152600160a060020a03858116600483015291518493909216916306f2bf6291602480820192602092909190829003018186803b15801561016257600080fd5b505afa158015610176573d6000803e3d6000fd5b505050506040513d602081101561018c57600080fd5b5051600160a060020a0316141561020457604080517f08c379a000000000000000000000000000000000000000000000000000000000815260206004820152601260248201527f4e6f207061796f75742065786368616e67650000000000000000000000000000604482015290519081900360640190fd5b60008054604080517f06f2bf62000000000000000000000000000000000000000000000000000000008152600160a060020a038681166004830152915191909216916306f2bf62916024808301926020929190829003018186803b15801561026b57600080fd5b505afa15801561027f573d6000803e3d6000fd5b505050506040513d602081101561029557600080fd5b50519392505050565b600154600160a060020a031681565b600054600160a060020a031681565b600160a060020a0316159056fea26469706673582212203ae093fb0bbd2bb6c0c273454a7b29a8df6a4cc0766408a3b085f7320f89c2ff64736f6c63430006000033",
  "source": "// pragma solidity 0.5.10;\npragma solidity >=0.4.22 <0.7.0;\n\nimport \"./lib/CompoundOracleInterface.sol\";\nimport \"./lib/UniswapExchangeInterface.sol\";\nimport \"./lib/UniswapFactoryInterface.sol\";\nimport \"../ERC20/IERC20.sol\";\n\ncontract OptionsUtils {\n    // defauls are for mainnet\n    UniswapFactoryInterface public UNISWAP_FACTORY;\n\n    CompoundOracleInterface public COMPOUND_ORACLE;\n\n    constructor(address _uniswapFactory, address _compoundOracle) public {\n        UNISWAP_FACTORY = UniswapFactoryInterface(_uniswapFactory);\n        COMPOUND_ORACLE = CompoundOracleInterface(_compoundOracle);\n    }\n\n    // TODO: for now gets Uniswap, later update to get other exchanges\n    function getExchange(address _token)\n        public\n        view\n        returns (UniswapExchangeInterface)\n    {\n        if (address(UNISWAP_FACTORY.getExchange(_token)) == address(0)) {\n            revert(\"No payout exchange\");\n        }\n\n        UniswapExchangeInterface exchange = UniswapExchangeInterface(\n            UNISWAP_FACTORY.getExchange(_token)\n        );\n\n        return exchange;\n    }\n\n    function isETH(IERC20 _ierc20) public pure returns (bool) {\n        return _ierc20 == IERC20(0);\n    }\n}\n",
  "sourcePath": "/Users/jenil/Desktop/code/hip/contracts/opyn/OptionsUtils.sol",
  "compiler": {
    "name": "solc",
    "version": "0.6.0+commit.26b70077.Emscripten.clang"
  },
  "schemaVersion": "3.1.0",
  "updatedAt": "2020-05-22T17:04:41.532Z",
  "devdoc": {
    "methods": {}
  },
  "userdoc": {
    "methods": {}
  }
}