{
  "contractName": "OptionsContract",
  "abi": [
    {
      "inputs": [
        {
          "internalType": "contract IERC20",
          "name": "_collateral",
          "type": "address"
        },
        {
          "internalType": "int32",
          "name": "_collExp",
          "type": "int32"
        },
        {
          "internalType": "contract IERC20",
          "name": "_underlying",
          "type": "address"
        },
        {
          "internalType": "int32",
          "name": "_underlyingExp",
          "type": "int32"
        },
        {
          "internalType": "int32",
          "name": "_oTokenExchangeExp",
          "type": "int32"
        },
        {
          "internalType": "uint256",
          "name": "_strikePrice",
          "type": "uint256"
        },
        {
          "internalType": "int32",
          "name": "_strikeExp",
          "type": "int32"
        },
        {
          "internalType": "contract IERC20",
          "name": "_strike",
          "type": "address"
        },
        {
          "internalType": "uint256",
          "name": "_expiry",
          "type": "uint256"
        },
        {
          "internalType": "contract OptionsExchange",
          "name": "_optionsExchange",
          "type": "address"
        },
        {
          "internalType": "address",
          "name": "_oracleAddress",
          "type": "address"
        },
        {
          "internalType": "uint256",
          "name": "_windowSize",
          "type": "uint256"
        }
      ],
      "stateMutability": "nonpayable",
      "type": "constructor"
    },
    {
      "anonymous": false,
      "inputs": [
        {
          "indexed": true,
          "internalType": "address",
          "name": "owner",
          "type": "address"
        },
        {
          "indexed": true,
          "internalType": "address",
          "name": "spender",
          "type": "address"
        },
        {
          "indexed": false,
          "internalType": "uint256",
          "name": "value",
          "type": "uint256"
        }
      ],
      "name": "Approval",
      "type": "event"
    },
    {
      "anonymous": false,
      "inputs": [
        {
          "indexed": false,
          "internalType": "address payable",
          "name": "vaultOwner",
          "type": "address"
        },
        {
          "indexed": false,
          "internalType": "uint256",
          "name": "oTokensBurned",
          "type": "uint256"
        }
      ],
      "name": "BurnOTokens",
      "type": "event"
    },
    {
      "anonymous": false,
      "inputs": [
        {
          "indexed": false,
          "internalType": "address payable",
          "name": "vaultOwner",
          "type": "address"
        },
        {
          "indexed": false,
          "internalType": "uint256",
          "name": "amount",
          "type": "uint256"
        },
        {
          "indexed": false,
          "internalType": "address",
          "name": "payer",
          "type": "address"
        }
      ],
      "name": "ERC20CollateralAdded",
      "type": "event"
    },
    {
      "anonymous": false,
      "inputs": [
        {
          "indexed": false,
          "internalType": "address payable",
          "name": "vaultOwner",
          "type": "address"
        },
        {
          "indexed": false,
          "internalType": "uint256",
          "name": "amount",
          "type": "uint256"
        },
        {
          "indexed": false,
          "internalType": "address",
          "name": "payer",
          "type": "address"
        }
      ],
      "name": "ETHCollateralAdded",
      "type": "event"
    },
    {
      "anonymous": false,
      "inputs": [
        {
          "indexed": false,
          "internalType": "uint256",
          "name": "amtUnderlyingToPay",
          "type": "uint256"
        },
        {
          "indexed": false,
          "internalType": "uint256",
          "name": "amtCollateralToPay",
          "type": "uint256"
        },
        {
          "indexed": false,
          "internalType": "address payable",
          "name": "exerciser",
          "type": "address"
        },
        {
          "indexed": false,
          "internalType": "address payable",
          "name": "vaultExercisedFrom",
          "type": "address"
        }
      ],
      "name": "Exercise",
      "type": "event"
    },
    {
      "anonymous": false,
      "inputs": [
        {
          "indexed": false,
          "internalType": "address",
          "name": "issuedTo",
          "type": "address"
        },
        {
          "indexed": false,
          "internalType": "uint256",
          "name": "oTokensIssued",
          "type": "uint256"
        },
        {
          "indexed": false,
          "internalType": "address payable",
          "name": "vaultOwner",
          "type": "address"
        }
      ],
      "name": "IssuedOTokens",
      "type": "event"
    },
    {
      "anonymous": false,
      "inputs": [
        {
          "indexed": false,
          "internalType": "uint256",
          "name": "amtCollateralToPay",
          "type": "uint256"
        },
        {
          "indexed": false,
          "internalType": "address payable",
          "name": "vaultOwner",
          "type": "address"
        },
        {
          "indexed": false,
          "internalType": "address payable",
          "name": "liquidator",
          "type": "address"
        }
      ],
      "name": "Liquidate",
      "type": "event"
    },
    {
      "anonymous": false,
      "inputs": [
        {
          "indexed": true,
          "internalType": "address",
          "name": "previousOwner",
          "type": "address"
        },
        {
          "indexed": true,
          "internalType": "address",
          "name": "newOwner",
          "type": "address"
        }
      ],
      "name": "OwnershipTransferred",
      "type": "event"
    },
    {
      "anonymous": false,
      "inputs": [
        {
          "indexed": false,
          "internalType": "uint256",
          "name": "amtCollateralRedeemed",
          "type": "uint256"
        },
        {
          "indexed": false,
          "internalType": "uint256",
          "name": "amtUnderlyingRedeemed",
          "type": "uint256"
        },
        {
          "indexed": false,
          "internalType": "address payable",
          "name": "vaultOwner",
          "type": "address"
        }
      ],
      "name": "RedeemVaultBalance",
      "type": "event"
    },
    {
      "anonymous": false,
      "inputs": [
        {
          "indexed": false,
          "internalType": "uint256",
          "name": "amtRemoved",
          "type": "uint256"
        },
        {
          "indexed": false,
          "internalType": "address payable",
          "name": "vaultOwner",
          "type": "address"
        }
      ],
      "name": "RemoveCollateral",
      "type": "event"
    },
    {
      "anonymous": false,
      "inputs": [
        {
          "indexed": false,
          "internalType": "uint256",
          "name": "amountUnderlying",
          "type": "uint256"
        },
        {
          "indexed": false,
          "internalType": "address payable",
          "name": "vaultOwner",
          "type": "address"
        }
      ],
      "name": "RemoveUnderlying",
      "type": "event"
    },
    {
      "anonymous": false,
      "inputs": [
        {
          "indexed": true,
          "internalType": "address",
          "name": "from",
          "type": "address"
        },
        {
          "indexed": true,
          "internalType": "address",
          "name": "to",
          "type": "address"
        },
        {
          "indexed": false,
          "internalType": "uint256",
          "name": "value",
          "type": "uint256"
        }
      ],
      "name": "Transfer",
      "type": "event"
    },
    {
      "anonymous": false,
      "inputs": [
        {
          "indexed": false,
          "internalType": "address payable",
          "name": "to",
          "type": "address"
        },
        {
          "indexed": false,
          "internalType": "uint256",
          "name": "fees",
          "type": "uint256"
        }
      ],
      "name": "TransferFee",
      "type": "event"
    },
    {
      "anonymous": false,
      "inputs": [
        {
          "indexed": false,
          "internalType": "uint256",
          "name": "liquidationIncentive",
          "type": "uint256"
        },
        {
          "indexed": false,
          "internalType": "uint256",
          "name": "liquidationFactor",
          "type": "uint256"
        },
        {
          "indexed": false,
          "internalType": "uint256",
          "name": "transactionFee",
          "type": "uint256"
        },
        {
          "indexed": false,
          "internalType": "uint256",
          "name": "minCollateralizationRatio",
          "type": "uint256"
        },
        {
          "indexed": false,
          "internalType": "address",
          "name": "owner",
          "type": "address"
        }
      ],
      "name": "UpdateParameters",
      "type": "event"
    },
    {
      "anonymous": false,
      "inputs": [
        {
          "indexed": false,
          "internalType": "address payable",
          "name": "vaultOwner",
          "type": "address"
        }
      ],
      "name": "VaultOpened",
      "type": "event"
    },
    {
      "inputs": [],
      "name": "COMPOUND_ORACLE",
      "outputs": [
        {
          "internalType": "contract CompoundOracleInterface",
          "name": "",
          "type": "address"
        }
      ],
      "stateMutability": "view",
      "type": "function"
    },
    {
      "inputs": [
        {
          "internalType": "address",
          "name": "owner",
          "type": "address"
        },
        {
          "internalType": "address",
          "name": "spender",
          "type": "address"
        }
      ],
      "name": "allowance",
      "outputs": [
        {
          "internalType": "uint256",
          "name": "",
          "type": "uint256"
        }
      ],
      "stateMutability": "view",
      "type": "function"
    },
    {
      "inputs": [
        {
          "internalType": "address",
          "name": "spender",
          "type": "address"
        },
        {
          "internalType": "uint256",
          "name": "value",
          "type": "uint256"
        }
      ],
      "name": "approve",
      "outputs": [
        {
          "internalType": "bool",
          "name": "",
          "type": "bool"
        }
      ],
      "stateMutability": "nonpayable",
      "type": "function"
    },
    {
      "inputs": [
        {
          "internalType": "address",
          "name": "owner",
          "type": "address"
        }
      ],
      "name": "balanceOf",
      "outputs": [
        {
          "internalType": "uint256",
          "name": "",
          "type": "uint256"
        }
      ],
      "stateMutability": "view",
      "type": "function"
    },
    {
      "inputs": [],
      "name": "collateral",
      "outputs": [
        {
          "internalType": "contract IERC20",
          "name": "",
          "type": "address"
        }
      ],
      "stateMutability": "view",
      "type": "function"
    },
    {
      "inputs": [],
      "name": "collateralExp",
      "outputs": [
        {
          "internalType": "int32",
          "name": "",
          "type": "int32"
        }
      ],
      "stateMutability": "view",
      "type": "function"
    },
    {
      "inputs": [],
      "name": "decimals",
      "outputs": [
        {
          "internalType": "uint8",
          "name": "",
          "type": "uint8"
        }
      ],
      "stateMutability": "view",
      "type": "function"
    },
    {
      "inputs": [
        {
          "internalType": "address",
          "name": "spender",
          "type": "address"
        },
        {
          "internalType": "uint256",
          "name": "subtractedValue",
          "type": "uint256"
        }
      ],
      "name": "decreaseAllowance",
      "outputs": [
        {
          "internalType": "bool",
          "name": "",
          "type": "bool"
        }
      ],
      "stateMutability": "nonpayable",
      "type": "function"
    },
    {
      "inputs": [],
      "name": "expiry",
      "outputs": [
        {
          "internalType": "uint256",
          "name": "",
          "type": "uint256"
        }
      ],
      "stateMutability": "view",
      "type": "function"
    },
    {
      "inputs": [
        {
          "internalType": "address",
          "name": "spender",
          "type": "address"
        },
        {
          "internalType": "uint256",
          "name": "addedValue",
          "type": "uint256"
        }
      ],
      "name": "increaseAllowance",
      "outputs": [
        {
          "internalType": "bool",
          "name": "",
          "type": "bool"
        }
      ],
      "stateMutability": "nonpayable",
      "type": "function"
    },
    {
      "inputs": [],
      "name": "liquidationFactor",
      "outputs": [
        {
          "internalType": "uint256",
          "name": "value",
          "type": "uint256"
        },
        {
          "internalType": "int32",
          "name": "exponent",
          "type": "int32"
        }
      ],
      "stateMutability": "view",
      "type": "function"
    },
    {
      "inputs": [],
      "name": "liquidationIncentive",
      "outputs": [
        {
          "internalType": "uint256",
          "name": "value",
          "type": "uint256"
        },
        {
          "internalType": "int32",
          "name": "exponent",
          "type": "int32"
        }
      ],
      "stateMutability": "view",
      "type": "function"
    },
    {
      "inputs": [],
      "name": "minCollateralizationRatio",
      "outputs": [
        {
          "internalType": "uint256",
          "name": "value",
          "type": "uint256"
        },
        {
          "internalType": "int32",
          "name": "exponent",
          "type": "int32"
        }
      ],
      "stateMutability": "view",
      "type": "function"
    },
    {
      "inputs": [],
      "name": "name",
      "outputs": [
        {
          "internalType": "string",
          "name": "",
          "type": "string"
        }
      ],
      "stateMutability": "view",
      "type": "function"
    },
    {
      "inputs": [],
      "name": "oTokenExchangeRate",
      "outputs": [
        {
          "internalType": "uint256",
          "name": "value",
          "type": "uint256"
        },
        {
          "internalType": "int32",
          "name": "exponent",
          "type": "int32"
        }
      ],
      "stateMutability": "view",
      "type": "function"
    },
    {
      "inputs": [],
      "name": "optionsExchange",
      "outputs": [
        {
          "internalType": "contract OptionsExchange",
          "name": "",
          "type": "address"
        }
      ],
      "stateMutability": "view",
      "type": "function"
    },
    {
      "inputs": [],
      "name": "owner",
      "outputs": [
        {
          "internalType": "address",
          "name": "",
          "type": "address"
        }
      ],
      "stateMutability": "view",
      "type": "function"
    },
    {
      "inputs": [],
      "name": "renounceOwnership",
      "outputs": [],
      "stateMutability": "nonpayable",
      "type": "function"
    },
    {
      "inputs": [],
      "name": "strike",
      "outputs": [
        {
          "internalType": "contract IERC20",
          "name": "",
          "type": "address"
        }
      ],
      "stateMutability": "view",
      "type": "function"
    },
    {
      "inputs": [],
      "name": "strikePrice",
      "outputs": [
        {
          "internalType": "uint256",
          "name": "value",
          "type": "uint256"
        },
        {
          "internalType": "int32",
          "name": "exponent",
          "type": "int32"
        }
      ],
      "stateMutability": "view",
      "type": "function"
    },
    {
      "inputs": [],
      "name": "symbol",
      "outputs": [
        {
          "internalType": "string",
          "name": "",
          "type": "string"
        }
      ],
      "stateMutability": "view",
      "type": "function"
    },
    {
      "inputs": [],
      "name": "totalSupply",
      "outputs": [
        {
          "internalType": "uint256",
          "name": "",
          "type": "uint256"
        }
      ],
      "stateMutability": "view",
      "type": "function"
    },
    {
      "inputs": [],
      "name": "transactionFee",
      "outputs": [
        {
          "internalType": "uint256",
          "name": "value",
          "type": "uint256"
        },
        {
          "internalType": "int32",
          "name": "exponent",
          "type": "int32"
        }
      ],
      "stateMutability": "view",
      "type": "function"
    },
    {
      "inputs": [
        {
          "internalType": "address",
          "name": "to",
          "type": "address"
        },
        {
          "internalType": "uint256",
          "name": "value",
          "type": "uint256"
        }
      ],
      "name": "transfer",
      "outputs": [
        {
          "internalType": "bool",
          "name": "",
          "type": "bool"
        }
      ],
      "stateMutability": "nonpayable",
      "type": "function"
    },
    {
      "inputs": [
        {
          "internalType": "address",
          "name": "from",
          "type": "address"
        },
        {
          "internalType": "address",
          "name": "to",
          "type": "address"
        },
        {
          "internalType": "uint256",
          "name": "value",
          "type": "uint256"
        }
      ],
      "name": "transferFrom",
      "outputs": [
        {
          "internalType": "bool",
          "name": "",
          "type": "bool"
        }
      ],
      "stateMutability": "nonpayable",
      "type": "function"
    },
    {
      "inputs": [
        {
          "internalType": "address",
          "name": "newOwner",
          "type": "address"
        }
      ],
      "name": "transferOwnership",
      "outputs": [],
      "stateMutability": "nonpayable",
      "type": "function"
    },
    {
      "inputs": [],
      "name": "underlying",
      "outputs": [
        {
          "internalType": "contract IERC20",
          "name": "",
          "type": "address"
        }
      ],
      "stateMutability": "view",
      "type": "function"
    },
    {
      "inputs": [],
      "name": "underlyingExp",
      "outputs": [
        {
          "internalType": "int32",
          "name": "",
          "type": "int32"
        }
      ],
      "stateMutability": "view",
      "type": "function"
    },
    {
      "inputs": [],
      "name": "getVaultOwners",
      "outputs": [
        {
          "internalType": "address payable[]",
          "name": "",
          "type": "address[]"
        }
      ],
      "stateMutability": "view",
      "type": "function"
    },
    {
      "inputs": [
        {
          "internalType": "uint256",
          "name": "_liquidationIncentive",
          "type": "uint256"
        },
        {
          "internalType": "uint256",
          "name": "_liquidationFactor",
          "type": "uint256"
        },
        {
          "internalType": "uint256",
          "name": "_transactionFee",
          "type": "uint256"
        },
        {
          "internalType": "uint256",
          "name": "_minCollateralizationRatio",
          "type": "uint256"
        }
      ],
      "name": "updateParameters",
      "outputs": [],
      "stateMutability": "nonpayable",
      "type": "function"
    },
    {
      "inputs": [
        {
          "internalType": "string",
          "name": "_name",
          "type": "string"
        },
        {
          "internalType": "string",
          "name": "_symbol",
          "type": "string"
        }
      ],
      "name": "setDetails",
      "outputs": [],
      "stateMutability": "nonpayable",
      "type": "function"
    },
    {
      "inputs": [
        {
          "internalType": "address payable",
          "name": "_address",
          "type": "address"
        }
      ],
      "name": "transferFee",
      "outputs": [],
      "stateMutability": "nonpayable",
      "type": "function"
    },
    {
      "inputs": [
        {
          "internalType": "address payable",
          "name": "owner",
          "type": "address"
        }
      ],
      "name": "hasVault",
      "outputs": [
        {
          "internalType": "bool",
          "name": "",
          "type": "bool"
        }
      ],
      "stateMutability": "view",
      "type": "function"
    },
    {
      "inputs": [],
      "name": "openVault",
      "outputs": [
        {
          "internalType": "bool",
          "name": "",
          "type": "bool"
        }
      ],
      "stateMutability": "nonpayable",
      "type": "function"
    },
    {
      "inputs": [
        {
          "internalType": "address payable",
          "name": "vaultOwner",
          "type": "address"
        }
      ],
      "name": "addETHCollateral",
      "outputs": [
        {
          "internalType": "uint256",
          "name": "",
          "type": "uint256"
        }
      ],
      "stateMutability": "payable",
      "type": "function"
    },
    {
      "inputs": [
        {
          "internalType": "address payable",
          "name": "vaultOwner",
          "type": "address"
        },
        {
          "internalType": "uint256",
          "name": "amt",
          "type": "uint256"
        }
      ],
      "name": "addERC20Collateral",
      "outputs": [
        {
          "internalType": "uint256",
          "name": "",
          "type": "uint256"
        }
      ],
      "stateMutability": "nonpayable",
      "type": "function"
    },
    {
      "inputs": [
        {
          "internalType": "uint256",
          "name": "oTokensToExercise",
          "type": "uint256"
        }
      ],
      "name": "underlyingRequiredToExercise",
      "outputs": [
        {
          "internalType": "uint256",
          "name": "",
          "type": "uint256"
        }
      ],
      "stateMutability": "view",
      "type": "function"
    },
    {
      "inputs": [],
      "name": "isExerciseWindow",
      "outputs": [
        {
          "internalType": "bool",
          "name": "",
          "type": "bool"
        }
      ],
      "stateMutability": "view",
      "type": "function"
    },
    {
      "inputs": [],
      "name": "hasExpired",
      "outputs": [
        {
          "internalType": "bool",
          "name": "",
          "type": "bool"
        }
      ],
      "stateMutability": "view",
      "type": "function"
    },
    {
      "inputs": [
        {
          "internalType": "uint256",
          "name": "oTokensToExercise",
          "type": "uint256"
        },
        {
          "internalType": "address payable[]",
          "name": "vaultsToExerciseFrom",
          "type": "address[]"
        }
      ],
      "name": "exercise",
      "outputs": [],
      "stateMutability": "payable",
      "type": "function"
    },
    {
      "inputs": [],
      "name": "removeUnderlying",
      "outputs": [],
      "stateMutability": "nonpayable",
      "type": "function"
    },
    {
      "inputs": [
        {
          "internalType": "uint256",
          "name": "oTokensToIssue",
          "type": "uint256"
        },
        {
          "internalType": "address",
          "name": "receiver",
          "type": "address"
        }
      ],
      "name": "issueOTokens",
      "outputs": [],
      "stateMutability": "nonpayable",
      "type": "function"
    },
    {
      "inputs": [
        {
          "internalType": "address payable",
          "name": "vaultOwner",
          "type": "address"
        }
      ],
      "name": "getVault",
      "outputs": [
        {
          "internalType": "uint256",
          "name": "",
          "type": "uint256"
        },
        {
          "internalType": "uint256",
          "name": "",
          "type": "uint256"
        },
        {
          "internalType": "uint256",
          "name": "",
          "type": "uint256"
        },
        {
          "internalType": "bool",
          "name": "",
          "type": "bool"
        }
      ],
      "stateMutability": "view",
      "type": "function"
    },
    {
      "inputs": [
        {
          "internalType": "contract IERC20",
          "name": "_ierc20",
          "type": "address"
        }
      ],
      "name": "isETH",
      "outputs": [
        {
          "internalType": "bool",
          "name": "",
          "type": "bool"
        }
      ],
      "stateMutability": "pure",
      "type": "function"
    },
    {
      "inputs": [
        {
          "internalType": "uint256",
          "name": "amtToBurn",
          "type": "uint256"
        }
      ],
      "name": "burnOTokens",
      "outputs": [],
      "stateMutability": "nonpayable",
      "type": "function"
    },
    {
      "inputs": [
        {
          "internalType": "uint256",
          "name": "amtToRemove",
          "type": "uint256"
        }
      ],
      "name": "removeCollateral",
      "outputs": [],
      "stateMutability": "nonpayable",
      "type": "function"
    },
    {
      "inputs": [],
      "name": "redeemVaultBalance",
      "outputs": [],
      "stateMutability": "nonpayable",
      "type": "function"
    },
    {
      "inputs": [
        {
          "internalType": "address payable",
          "name": "vaultOwner",
          "type": "address"
        }
      ],
      "name": "maxOTokensLiquidatable",
      "outputs": [
        {
          "internalType": "uint256",
          "name": "",
          "type": "uint256"
        }
      ],
      "stateMutability": "view",
      "type": "function"
    },
    {
      "inputs": [
        {
          "internalType": "address payable",
          "name": "vaultOwner",
          "type": "address"
        },
        {
          "internalType": "uint256",
          "name": "oTokensToLiquidate",
          "type": "uint256"
        }
      ],
      "name": "liquidate",
      "outputs": [],
      "stateMutability": "nonpayable",
      "type": "function"
    },
    {
      "inputs": [
        {
          "internalType": "address payable",
          "name": "vaultOwner",
          "type": "address"
        }
      ],
      "name": "isUnsafe",
      "outputs": [
        {
          "internalType": "bool",
          "name": "",
          "type": "bool"
        }
      ],
      "stateMutability": "view",
      "type": "function"
    },
    {
      "inputs": [
        {
          "internalType": "uint256",
          "name": "collateralAmt",
          "type": "uint256"
        }
      ],
      "name": "maxOTokensIssuable",
      "outputs": [
        {
          "internalType": "uint256",
          "name": "",
          "type": "uint256"
        }
      ],
      "stateMutability": "view",
      "type": "function"
    }
  ],
  "bytecode": "0x600a608081905260021960a081905260078290556008805463ffffffff1990811663fffffffd908117909255600060c081905260e08490526009558354811682179093556101f461010081905261012092909252600b91909155600c805483169091179055610180604052601061014081905260001961016052600d55600e805463ffffffff9083161790556016805490911663ffffffee1767ffffffff00000000191667ffffffee00000000179055348015620000bc57600080fd5b506040516200405d3803806200405d8339818101604052610180811015620000e357600080fd5b508051602082015160408301516060840151608085015160a086015160c087015160e08801516101008901516101208a01516101408b0151610160909b0151999a98999798969795969495939492939192909160006200014b640100000000620005d9810204565b60008054600160a060020a031916600160a060020a0383169081178255604051929350917f8be0079c531659141344cd1fd0a4f28419497f9722a3daafe3b4186f6b6457e0908290a3508342106200020457604080517f08c379a000000000000000000000000000000000000000000000000000000000815260206004820181905260248201527f43616e2774206465706c6f7920616e206578706972656420636f6e7472616374604482015290519081900360640190fd5b838111156200025f576040517f08c379a000000000000000000000000000000000000000000000000000000000815260040180806020018281038252603c81526020018062003f61603c913960400191505060405180910390fd5b620002738b640100000000620005dd810204565b620002ca576040517f08c379a000000000000000000000000000000000000000000000000000000000815260040180806020018281038252602d81526020018062003f9d602d913960400191505060405180910390fd5b620002de89640100000000620005dd810204565b62000335576040517f08c379a000000000000000000000000000000000000000000000000000000000815260040180806020018281038252602d81526020018062004030602d913960400191505060405180910390fd5b6200034986640100000000620005dd810204565b620003a0576040517f08c379a000000000000000000000000000000000000000000000000000000000815260040180806020018281038252602f81526020018062004001602f913960400191505060405180910390fd5b620003b488640100000000620005dd810204565b6200040b576040517f08c379a000000000000000000000000000000000000000000000000000000000815260040180806020018281038252603781526020018062003fca6037913960400191505060405180910390fd5b8b601660086101000a815481600160a060020a030219169083600160a060020a031602179055508a601660006101000a81548163ffffffff021916908360030b63ffffffff16021790555089601760006101000a815481600160a060020a030219169083600160a060020a0316021790555088601660046101000a81548163ffffffff021916908360030b63ffffffff1602179055506040518060400160405280600181526020018960030b81525060116000820151816000015560208201518160010160006101000a81548163ffffffff021916908360030b63ffffffff16021790555090505060405180604001604052808881526020018760030b815250600f6000820151816000015560208201518160010160006101000a81548163ffffffff021916908360030b63ffffffff16021790555090505084601860006101000a815481600160a060020a030219169083600160a060020a031602179055508360158190555081601960006101000a815481600160a060020a030219169083600160a060020a0316021790555082600460006101000a815481600160a060020a030219169083600160a060020a0316021790555080601381905550505050505050505050505050620005ff565b3390565b6000601e8260030b13158015620005f95750601d198260030b12155b92915050565b613952806200060f6000396000f3fe608060405260043610610301576000357c01000000000000000000000000000000000000000000000000000000009004806390e64d13116101ad578063bcbaf487116100f9578063e184c9be116100b2578063ee1eab4f1161008c578063ee1eab4f14610c82578063f2fde38b14610cbe578063f70a250814610cf1578063faa2041f14610d2457610301565b8063e184c9be14610c10578063ea8c4bcf14610c25578063eaa376b514610c5857610301565b8063bcbaf48714610b0c578063c52987cf14610b45578063cdb4b5c214610b5a578063d8dfeb4514610b8d578063dd62ed3e14610ba2578063dec44c0b14610bdd57610301565b8063ad8f500811610166578063b736554011610140578063b736554014610993578063b76fdb6c146109a8578063b7b090ee146109bd578063ba1be55414610af757610301565b8063ad8f50081461093b578063b2c2b13f14610950578063b6e61c081461097e57610301565b806390e64d131461086457806395d89b41146108795780639ce072511461088e5780639ed3edf0146108b4578063a457c2d7146108c9578063a9059cbb1461090257610301565b8063352ade551161026c5780636fd865f91161022557806386f54712116101ff57806386f54712146108105780638a5e8cc7146108255780638c765e941461083a5780638da5cb5b1461084f57610301565b80636fd865f91461079e57806370a08231146107c8578063715018a6146107fb57610301565b8063352ade5514610618578063395093511461064b5780633bd33f621461068457806358b36dac146106b5578063686c1e211461075f5780636f307dc31461078957610301565b80630eb9af38116102be5780630eb9af38146104d557806318160ddd146105305780631a0e21bd1461054557806323b872dd14610580578063313ce567146105c35780633237c158146105ee57610301565b806301b4a3c114610306578063060ab2ea1461035157806306fdde03146103b6578063095ea7b3146104405780630d453efb1461048d5780630d6cd8aa146104c0575b600080fd5b34801561031257600080fd5b5061033f6004803603604081101561032957600080fd5b50600160a060020a038135169060200135610d39565b60408051918252519081900360200190f35b34801561035d57600080fd5b50610366610f14565b60408051602080825283518183015283519192839290830191858101910280838360005b838110156103a257818101518382015260200161038a565b505050509050019250505060405180910390f35b3480156103c257600080fd5b506103cb610fbb565b6040805160208082528351818301528351919283929083019185019080838360005b838110156104055781810151838201526020016103ed565b50505050905090810190601f1680156104325780820380516001836020036101000a031916815260200191505b509250505060405180910390f35b34801561044c57600080fd5b506104796004803603604081101561046357600080fd5b50600160a060020a038135169060200135611049565b604080519115158252519081900360200190f35b34801561049957600080fd5b50610479600480360360208110156104b057600080fd5b5035600160a060020a031661105f565b3480156104cc57600080fd5b50610479611084565b3480156104e157600080fd5b50610508600480360360208110156104f857600080fd5b5035600160a060020a03166110b2565b6040805194855260208501939093528383019190915215156060830152519081900360800190f35b34801561053c57600080fd5b5061033f6110e6565b34801561055157600080fd5b5061057e6004803603604081101561056857600080fd5b5080359060200135600160a060020a03166110ec565b005b34801561058c57600080fd5b50610479600480360360608110156105a357600080fd5b50600160a060020a0381358116916020810135909116906040013561126d565b3480156105cf57600080fd5b506105d86112c4565b6040805160ff9092168252519081900360200190f35b3480156105fa57600080fd5b5061057e6004803603602081101561061157600080fd5b50356112cd565b34801561062457600080fd5b5061062d6114da565b60408051928352600391820b90910b60208301528051918290030190f35b34801561065757600080fd5b506104796004803603604081101561066e57600080fd5b50600160a060020a0381351690602001356114e6565b34801561069057600080fd5b50610699611522565b60408051600160a060020a039092168252519081900360200190f35b61057e600480360360408110156106cb57600080fd5b813591908101906040810160208201356401000000008111156106ed57600080fd5b8201836020820111156106ff57600080fd5b8035906020019184602083028401116401000000008311171561072157600080fd5b919080806020026020016040519081016040528093929190818152602001838360200280828437600092019190915250929550611531945050505050565b34801561076b57600080fd5b5061033f6004803603602081101561078257600080fd5b503561164f565b34801561079557600080fd5b5061069961167d565b3480156107aa57600080fd5b5061033f600480360360208110156107c157600080fd5b503561168c565b3480156107d457600080fd5b5061033f600480360360208110156107eb57600080fd5b5035600160a060020a03166116d1565b34801561080757600080fd5b5061057e6116ec565b34801561081c57600080fd5b5061047961179e565b34801561083157600080fd5b50610699611926565b34801561084657600080fd5b5061062d611935565b34801561085b57600080fd5b50610699611941565b34801561087057600080fd5b50610479611950565b34801561088557600080fd5b506103cb611959565b61033f600480360360208110156108a457600080fd5b5035600160a060020a03166119b4565b3480156108c057600080fd5b5061062d611afc565b3480156108d557600080fd5b50610479600480360360408110156108ec57600080fd5b50600160a060020a038135169060200135611b08565b34801561090e57600080fd5b506104796004803603604081101561092557600080fd5b50600160a060020a038135169060200135611b44565b34801561094757600080fd5b50610699611b51565b34801561095c57600080fd5b50610965611b60565b60408051600392830b90920b8252519081900360200190f35b34801561098a57600080fd5b50610965611b71565b34801561099f57600080fd5b5061062d611b7a565b3480156109b457600080fd5b5061057e611b86565b3480156109c957600080fd5b5061057e600480360360408110156109e057600080fd5b8101906020810181356401000000008111156109fb57600080fd5b820183602082011115610a0d57600080fd5b80359060200191846001830284011164010000000083111715610a2f57600080fd5b91908080601f0160208091040260200160405190810160405280939291908181526020018383808284376000920191909152509295949360208101935035915050640100000000811115610a8257600080fd5b820183602082011115610a9457600080fd5b80359060200191846001830284011164010000000083111715610ab657600080fd5b91908080601f016020809104026020016040519081016040528093929190818152602001838380828437600092019190915250929550611c98945050505050565b348015610b0357600080fd5b5061062d611d3d565b348015610b1857600080fd5b5061057e60048036036040811015610b2f57600080fd5b50600160a060020a038135169060200135611d49565b348015610b5157600080fd5b5061062d61206c565b348015610b6657600080fd5b5061047960048036036020811015610b7d57600080fd5b5035600160a060020a0316612078565b348015610b9957600080fd5b5061069961209d565b348015610bae57600080fd5b5061033f60048036036040811015610bc557600080fd5b50600160a060020a03813581169160200135166120b8565b348015610be957600080fd5b5061033f60048036036020811015610c0057600080fd5b5035600160a060020a03166120e3565b348015610c1c57600080fd5b5061033f6121ae565b348015610c3157600080fd5b5061057e60048036036020811015610c4857600080fd5b5035600160a060020a03166121b4565b348015610c6457600080fd5b5061057e60048036036020811015610c7b57600080fd5b503561226a565b348015610c8e57600080fd5b5061057e60048036036080811015610ca557600080fd5b5080359060208101359060408101359060600135612372565b348015610cca57600080fd5b5061057e60048036036020811015610ce157600080fd5b5035600160a060020a031661256a565b348015610cfd57600080fd5b5061047960048036036020811015610d1457600080fd5b5035600160a060020a0316612675565b348015610d3057600080fd5b5061057e612682565b6000610d43611950565b15610d86576040805160e560020a62461bcd02815260206004820152601860248201526000805160206138fd833981519152604482015290519081900360640190fd5b601654604080517f23b872dd00000000000000000000000000000000000000000000000000000000815233600482015230602482015260448101859052905168010000000000000000909204600160a060020a0316916323b872dd916064808201926020929091908290030181600087803b158015610e0457600080fd5b505af1158015610e18573d6000803e3d6000fd5b505050506040513d6020811015610e2e57600080fd5b5051610e6e5760405160e560020a62461bcd02815260040180806020018281038252602781526020018061375c6027913960400191505060405180910390fd5b610e778361105f565b610eb9576040805160e560020a62461bcd0281526020600482015260146024820152600080516020613783833981519152604482015290519081900360640190fd5b60408051600160a060020a038516815260208101849052338183015290517f2199418ea9428ed3ff7d460860e1edaf5831452fa4ea0f8d1a60d63c603487829181900360600190a1610f0b8383612788565b90505b92915050565b6060806000805b600654811015610fb257610f4f60068281548110610f3557fe5b600091825260209091200154600160a060020a031661105f565b15610faa5760068181548110610f6157fe5b9060005260206000200160009054906101000a9004600160a060020a0316838381518110610f8b57fe5b600160a060020a03909216602092830291909101909101526001909101905b600101610f1b565b50909150505b90565b601a805460408051602060026001851615610100026000190190941693909304601f810184900484028201840190925281815292918301828280156110415780601f1061101657610100808354040283529160200191611041565b820191906000526020600020905b81548152906001019060200180831161102457829003601f168201915b505050505081565b600061105633848461280a565b50600192915050565b600160a060020a03811660009081526005602052604090206003015460ff165b919050565b600061109d60135460155461289290919063ffffffff16565b42101580156110ad575060155442105b905090565b600160a060020a03166000908152600560205260409020805460018201546002830154600390930154919390929160ff1690565b60035490565b6110f4611950565b15611137576040805160e560020a62461bcd02815260206004820152601860248201526000805160206138fd833981519152604482015290519081900360640190fd5b6111403361105f565b611182576040805160e560020a62461bcd0281526020600482015260146024820152600080516020613783833981519152604482015290519081900360640190fd5b33600090815260056020526040812060018101549091906111a9908563ffffffff6128a716565b90506111b98260000154826128b9565b61120d576040805160e560020a62461bcd02815260206004820152600e60248201527f756e7361666520746f206d696e74000000000000000000000000000000000000604482015290519081900360640190fd5b6001820181905561121e83856129e6565b60408051600160a060020a038516815260208101869052338183015290517f5e5aaabf04e3760968ffb551bdf9708f4dbf95d53ad98539e91a56b125e88f089181900360600190a150505b5050565b600061127a848484612a90565b600160a060020a0384166000908152600260209081526040808320338085529252909120546112ba9186916112b5908663ffffffff61289216565b61280a565b5060019392505050565b601c5460ff1681565b6112d5611950565b15611318576040805160e560020a62461bcd02815260206004820152601860248201526000805160206138fd833981519152604482015290519081900360640190fd5b60008111611370576040805160e560020a62461bcd02815260206004820152601a60248201527f43616e6e6f742072656d6f7665203020636f6c6c61746572616c000000000000604482015290519081900360640190fd5b6113793361105f565b6113bb576040805160e560020a62461bcd0281526020600482015260146024820152600080516020613783833981519152604482015290519081900360640190fd5b336000818152600560205260409020906113d490612b5d565b8211156114155760405160e560020a62461bcd02815260040180806020018281038252602781526020018061382c6027913960400191505060405180910390fd5b805460009061142a908463ffffffff61289216565b905061143a8183600101546128b9565b61148e576040805160e560020a62461bcd02815260206004820152600f60248201527f5661756c7420697320756e736166650000000000000000000000000000000000604482015290519081900360640190fd5b80825561149b3384612b78565b6040805184815233602082015281517f5a945309b3c58e9bb259128c2a530a6579dc75ac1d7d61b3db4c0b8305a16821929181900390910190a1505050565b600b54600c5460030b82565b336000818152600260209081526040808320600160a060020a038716845290915281205490916110569185906112b5908663ffffffff6128a716565b600454600160a060020a031681565b60005b815181101561160e57600082828151811061154b57fe5b6020026020010151905061155e8161105f565b61159c5760405160e560020a62461bcd02815260040180806020018281038252602f8152602001806138a0602f913960400191505060405180910390fd5b600160a060020a0381166000908152600560205260409020846115c157505050611269565b848160010154106115de576115d68583612c86565b505050611269565b60018101546115f490869063ffffffff61289216565b9450611604816001015483612c86565b5050600101611534565b5081156112695760405160e560020a62461bcd02815260040180806020018281038252602d8152602001806137c8602d913960400191505060405180910390fd5b60408051808201909152600d548152600e54600390810b810b900b6020820152600090610f0e90839061312f565b601754600160a060020a031681565b6016546012546000916401000000009004600390810b91810b91909103900b6116ca8367ffffffffffffffff808416600a0a1663ffffffff61325416565b9392505050565b600160a060020a031660009081526001602052604090205490565b6116f461327b565b600054600160a060020a03908116911614611747576040805160e560020a62461bcd0281526020600482018190526024820152600080516020613880833981519152604482015290519081900360640190fd5b60008054604051600160a060020a03909116907f8be0079c531659141344cd1fd0a4f28419497f9722a3daafe3b4186f6b6457e0908390a36000805473ffffffffffffffffffffffffffffffffffffffff19169055565b60006117a8611950565b156117eb576040805160e560020a62461bcd02815260206004820152601860248201526000805160206138fd833981519152604482015290519081900360640190fd5b6117f43361105f565b15611849576040805160e560020a62461bcd02815260206004820152601560248201527f5661756c7420616c726561647920637265617465640000000000000000000000604482015290519081900360640190fd5b60408051608081018252600080825260208083018281528385018381526001606086018181523380875260058652888720975188559351878301559151600287015590516003909501805460ff1916951515959095179094556006805494850181559092527ff652222313e28459528d920b65115c16c04f3efc82aaedc97be59f3f377c0d3f909201805473ffffffffffffffffffffffffffffffffffffffff191682179055825190815291517f66a872561db77eb92ef3079a44a5af00c68c3a09e0976814a95bd91721f57c2f9281900390910190a150600190565b601954600160a060020a031681565b60075460085460030b82565b600054600160a060020a031690565b60155442101590565b601b805460408051602060026001851615610100026000190190941693909304601f810184900484028201840190925281815292918301828280156110415780601f1061101657610100808354040283529160200191611041565b60006119be611950565b15611a01576040805160e560020a62461bcd02815260206004820152601860248201526000805160206138fd833981519152604482015290519081900360640190fd5b601654611a2290680100000000000000009004600160a060020a0316612675565b611a605760405160e560020a62461bcd0281526004018080602001828103825260288152602001806136e96028913960400191505060405180910390fd5b611a698261105f565b611aab576040805160e560020a62461bcd0281526020600482015260146024820152600080516020613783833981519152604482015290519081900360640190fd5b60408051600160a060020a0384168152346020820152338183015290517ff24ce6016de57e90501829715846e26ac283a0aabfc160647e0ae8b05e0f433d9181900360600190a1610f0e8234612788565b600954600a5460030b82565b336000818152600260209081526040808320600160a060020a038716845290915281205490916110569185906112b5908663ffffffff61289216565b6000611056338484612a90565b601854600160a060020a031681565b601654640100000000900460030b81565b60165460030b81565b60115460125460030b82565b611b8e611950565b611bcc5760405160e560020a62461bcd0281526004018080602001828103825260258152602001806137376025913960400191505060405180910390fd5b611bd53361105f565b611c17576040805160e560020a62461bcd0281526020600482015260146024820152600080516020613783833981519152604482015290519081900360640190fd5b3360008181526005602052604081208054600282018054848455600184018590559390559092909190611c4a9083612b78565b611c54338261327f565b6040805183815260208101839052338183015290517fe481532a3f7d078365ca0145442ed0a0a3e0443f3c0bae0c29cff131112678389181900360600190a1505050565b611ca061327b565b600054600160a060020a03908116911614611cf3576040805160e560020a62461bcd0281526020600482018190526024820152600080516020613880833981519152604482015290519081900360640190fd5b8151611d0690601a9060208501906135e6565b508051611d1a90601b9060208401906135e6565b50601254601c805460ff191660039290920b60000360ff16919091179055611269565b600d54600e5460030b82565b611d51611950565b15611d94576040805160e560020a62461bcd02815260206004820152601860248201526000805160206138fd833981519152604482015290519081900360640190fd5b611d9d8261105f565b611ddf576040805160e560020a62461bcd0281526020600482015260146024820152600080516020613783833981519152604482015290519081900360640190fd5b600160a060020a0382166000908152600560205260409020611e0083612078565b611e54576040805160e560020a62461bcd02815260206004820152600d60248201527f5661756c74206973207361666500000000000000000000000000000000000000604482015290519081900360640190fd5b33600160a060020a0384161415611eb5576040805160e560020a62461bcd02815260206004820181905260248201527f4f776e65722063616e2774206c6971756964617465207468656d73656c766573604482015290519081900360640190fd5b6000611eda83604051806040016040528060018152602001600060030b81525061333e565b604080518082019091526007548152600854600390810b810b900b6020820152909150600090611f0b90859061333e565b90506000611f1f838363ffffffff6128a716565b600b548554919250600091611f399163ffffffff61325416565b600c549091506000600391820b90910b1315611f7457600c54611f6d908290600390810b900b600a0a63ffffffff61325416565b9050611f98565b600c54611f95908290600390810b600003900b600a0a63ffffffff61344516565b90505b80821115611fda5760405160e560020a62461bcd0281526004018080602001828103825260378152602001806137f56037913960400191505060405180910390fd5b8454611fec908363ffffffff61289216565b85556001850154612003908763ffffffff61289216565b60018601556120123387613467565b61201c3383612b78565b60408051838152600160a060020a0389166020820152338183015290517fcab8e1abb9f8235c6db895cf185336dc9461aecf477b98c1be83687ee549e66a9181900360600190a150505050505050565b600f5460105460030b82565b60008061209561208784612b5d565b61209085613510565b6128b9565b159392505050565b601654680100000000000000009004600160a060020a031681565b600160a060020a03918216600090815260026020908152604080832093909416825291909152205490565b60006120ee82612078565b156121a657600160a060020a0382166000908152600560205260408120600c54600b54825492939261214392600390810b8503900b600a0a91612137919063ffffffff61325416565b9063ffffffff61344516565b600854909150600390810b600003900b600a0a61215e613664565b60408051808201909152600754819061217d908563ffffffff6128a716565b8152600854600390810b900b602090910152905061219b838261312f565b94505050505061107f565b50600061107f565b60155481565b6121bc61327b565b600054600160a060020a0390811691161461220f576040805160e560020a62461bcd0281526020600482018190526024820152600080516020613880833981519152604482015290519081900360640190fd5b6014805460009091556122228282612b78565b60408051600160a060020a03841681526020810183905281517f88b171bb78d3ac5e1caa8e729dddce4e1322e84c80c093ebbe52507b62c77d98929181900390910190a15050565b612272611950565b156122b5576040805160e560020a62461bcd02815260206004820152601860248201526000805160206138fd833981519152604482015290519081900360640190fd5b6122be3361105f565b612300576040805160e560020a62461bcd0281526020600482015260146024820152600080516020613783833981519152604482015290519081900360640190fd5b3360009081526005602052604090206001810154612324908363ffffffff61289216565b60018201556123333383613467565b604080513381526020810184905281517fdf8cebdea6ef1fd20576b80bc951377c0e61e2a8169153a1f836673ccce80e62929181900390910190a15050565b61237a61327b565b600054600160a060020a039081169116146123cd576040805160e560020a62461bcd0281526020600482018190526024820152600080516020613880833981519152604482015290519081900360640190fd5b60c88411156124105760405160e560020a62461bcd0281526004018080602001828103825260258152602001806137a36025913960400191505060405180910390fd5b6103e88311156124545760405160e560020a62461bcd02815260040180806020018281038252602b8152602001806136be602b913960400191505060405180910390fd5b60648211156124ad576040805160e560020a62461bcd02815260206004820181905260248201527f43616e27742068617665207472616e73616374696f6e20666565203e20313025604482015290519081900360640190fd5b600a8110156124f05760405160e560020a62461bcd0281526004018080602001828103825260288152602001806136966028913960400191505060405180910390fd5b6007849055600b8390556009829055600d8190557f3450d20c21ea671871fed271900cc8ff03badafa9b6fe2ff7f86991950e86b6b84848484612531611941565b604080519586526020860194909452848401929092526060840152600160a060020a03166080830152519081900360a00190a150505050565b61257261327b565b600054600160a060020a039081169116146125c5576040805160e560020a62461bcd0281526020600482018190526024820152600080516020613880833981519152604482015290519081900360640190fd5b600160a060020a03811661260d5760405160e560020a62461bcd0281526004018080602001828103825260268152602001806137116026913960400191505060405180910390fd5b60008054604051600160a060020a03808516939216917f8be0079c531659141344cd1fd0a4f28419497f9722a3daafe3b4186f6b6457e091a36000805473ffffffffffffffffffffffffffffffffffffffff1916600160a060020a0392909216919091179055565b600160a060020a03161590565b61268b3361105f565b6126cd576040805160e560020a62461bcd0281526020600482015260146024820152600080516020613783833981519152604482015290519081900360640190fd5b3360009081526005602052604090206002810154612735576040805160e560020a62461bcd02815260206004820152601560248201527f4e6f20756e6465726c79696e672062616c616e63650000000000000000000000604482015290519081900360640190fd5b600281018054600090915561274a338261327f565b6040805182815233602082015281517fea0bff65fa9380b944e9a761f9c6a665ad2d31e74706a52773ddb45c8a57c83d929181900390910190a15050565b6000612792611950565b156127d5576040805160e560020a62461bcd02815260206004820152601860248201526000805160206138fd833981519152604482015290519081900360640190fd5b600160a060020a038316600090815260056020526040902080546127ff908463ffffffff6128a716565b908190559392505050565b600160a060020a03821661281d57600080fd5b600160a060020a03831661283057600080fd5b600160a060020a03808416600081815260026020908152604080832094871680845294825291829020859055815185815291517f8c5be1e5ebec7d5bd14f71427d1e84f3dd0314c0f7b2291e5b200ac8c7c3b9259281900390910190a3505050565b6000828211156128a157600080fd5b50900390565b600082820183811015610f0b57600080fd5b6018546016546000916001918291600160a060020a039081166801000000000000000090920416146129215760165461290690680100000000000000009004600160a060020a031661352e565b60185490925061291e90600160a060020a031661352e565b90505b600f54600d5460009161294b9161293f90889063ffffffff61325416565b9063ffffffff61325416565b601054600e54919250600391820b910b016000612972846121378a8863ffffffff61325416565b601654909150600390810b90600090819085810b9084900b12156129b65782850360030b9150836129ad87600a85900a63ffffffff61325416565b111590506129d8565b84830360030b91506129d284600a84900a63ffffffff61325416565b86111590505b9a9950505050505050505050565b600160a060020a0382166129f957600080fd5b600354612a0c908263ffffffff6128a716565b600355600160a060020a038216600090815260016020526040902054612a38908263ffffffff6128a716565b600160a060020a03831660008181526001602090815260408083209490945583518581529351929391927fddf252ad1be2c89b69c2b068fc378daa952ba7f163c4a11628f55a4df523b3ef9281900390910190a35050565b600160a060020a038216612aa357600080fd5b600160a060020a038316600090815260016020526040902054612acc908263ffffffff61289216565b600160a060020a038085166000908152600160205260408082209390935590841681522054612b01908263ffffffff6128a716565b600160a060020a0380841660008181526001602090815260409182902094909455805185815290519193928716927fddf252ad1be2c89b69c2b068fc378daa952ba7f163c4a11628f55a4df523b3ef92918290030190a3505050565b600160a060020a031660009081526005602052604090205490565b601654612b9990680100000000000000009004600160a060020a0316612675565b15612bda57604051600160a060020a0383169082156108fc029083906000818181858888f19350505050158015612bd4573d6000803e3d6000fd5b50611269565b601654604080517fa9059cbb000000000000000000000000000000000000000000000000000000008152600160a060020a038581166004830152602482018590529151680100000000000000009093049091169163a9059cbb916044808201926020929091908290030181600087803b158015612c5657600080fd5b505af1158015612c6a573d6000803e3d6000fd5b505050506040513d6020811015612c8057600080fd5b50505050565b612c8e611084565b612ccc5760405160e560020a62461bcd02815260040180806020018281038252602d815260200180613853602d913960400191505060405180910390fd5b612cd58161105f565b612d17576040805160e560020a62461bcd0281526020600482015260146024820152600080516020613783833981519152604482015290519081900360640190fd5b600160a060020a038116600090815260056020526040902082612d84576040805160e560020a62461bcd02815260206004820152601860248201527f43616e27742065786572636973652030206f546f6b656e730000000000000000604482015290519081900360640190fd5b8060010154831115612dca5760405160e560020a62461bcd02815260040180806020018281038252602e8152602001806138cf602e913960400191505060405180910390fd5b82612dd4336116d1565b1015612e2a576040805160e560020a62461bcd02815260206004820152601260248201527f4e6f7420656e6f756768206f546f6b656e730000000000000000000000000000604482015290519081900360640190fd5b6000612e358461168c565b6002830154909150612e4d908263ffffffff6128a716565b6002830155604080518082019091526001815260006020820181905290612e7590869061333e565b604080518082019091526009548152600a54600390810b810b900b6020820152909150600090612ea690879061333e565b601454909150612ebc908263ffffffff6128a716565b6014556000612ed1838363ffffffff6128a716565b8554909150811115612f2d576040805160e560020a62461bcd02815260206004820181905260248201527f5661756c7420756e64657277617465722c2063616e2774206578657263697365604482015290519081900360640190fd5b8454612f3f908263ffffffff61289216565b85556001850154612f56908863ffffffff61289216565b6001860155601754612f7090600160a060020a0316612675565b15612fd157833414612fcc576040805160e560020a62461bcd02815260206004820152601360248201527f496e636f7272656374206d73672e76616c756500000000000000000000000000604482015290519081900360640190fd5b6130c4565b601754604080517f23b872dd000000000000000000000000000000000000000000000000000000008152336004820152306024820152604481018790529051600160a060020a03909216916323b872dd916064808201926020929091908290030181600087803b15801561304457600080fd5b505af1158015613058573d6000803e3d6000fd5b505050506040513d602081101561306e57600080fd5b50516130c4576040805160e560020a62461bcd02815260206004820152601c60248201527f436f756c64206e6f74207472616e7366657220696e20746f6b656e7300000000604482015290519081900360640190fd5b6130ce3388613467565b6130d83384612b78565b60408051858152602081018590523381830152600160a060020a038816606082015290517ffa7bab37479e50a9b24a9412b879d400de9bcaa1e3a2b343e90bb370d85bbaa79181900360800190a150505050505050565b6018546016546000916001918291600160a060020a039081166801000000000000000090920416146131975760165461317c90680100000000000000009004600160a060020a031661352e565b60185490925061319490600160a060020a031661352e565b90505b600f5484516000916131af919063ffffffff61325416565b601054602087015191925060030b0160006131d4846121378a8863ffffffff61325416565b601654909150600390810b90600090819085810b9084900b12156132255782850360030b915061321e61321187600a85900a63ffffffff61325416565b859063ffffffff61344516565b90506129d8565b84830360030b91506132458661213786600a86900a63ffffffff61325416565b9b9a5050505050505050505050565b60008261326357506000610f0e565b8282028284828161327057fe5b0414610f0b57600080fd5b3390565b60175461329490600160a060020a0316612675565b156132cf57604051600160a060020a0383169082156108fc029083906000818181858888f19350505050158015612bd4573d6000803e3d6000fd5b601754604080517fa9059cbb000000000000000000000000000000000000000000000000000000008152600160a060020a038581166004830152602482018590529151919092169163a9059cbb9160448083019260209291908290030181600087803b158015612c5657600080fd5b6018546016546000916001918291600160a060020a039081166801000000000000000090920416146133a65760165461338b90680100000000000000009004600160a060020a031661352e565b6018549092506133a390600160a060020a031661352e565b90505b8351600f546000916133c791849161293f9182908b9063ffffffff61325416565b6016546020870151601054929350600391820b92820b01919091039060009082900b811215613415578161340d866121378663ffffffff808616600a0a81169061325416565b91505061343a565b6000829003613436866121378663ffffffff808616600a0a81169061344516565b9150505b979650505050505050565b600080821161345357600080fd5b600082848161345e57fe5b04949350505050565b600160a060020a03821661347a57600080fd5b60035461348d908263ffffffff61289216565b600355600160a060020a0382166000908152600160205260409020546134b9908263ffffffff61289216565b600160a060020a0383166000818152600160209081526040808320949094558351858152935191937fddf252ad1be2c89b69c2b068fc378daa952ba7f163c4a11628f55a4df523b3ef929081900390910190a35050565b600160a060020a031660009081526005602052604090206001015490565b6000600160a060020a03821661354d5750670de0b6b3a764000061107f565b601954604080517f41976e09000000000000000000000000000000000000000000000000000000008152600160a060020a038581166004830152915191909216916341976e09916024808301926020929190829003018186803b1580156135b357600080fd5b505afa1580156135c7573d6000803e3d6000fd5b505050506040513d60208110156135dd57600080fd5b5051905061107f565b828054600181600116156101000203166002900490600052602060002090601f016020900481019282601f1061362757805160ff1916838001178555613654565b82800160010185558215613654579182015b82811115613654578251825591602001919060010190613639565b5061366092915061367b565b5090565b604080518082019091526000808252602082015290565b610fb891905b80821115613660576000815560010161368156fe43616e27742068617665206d696e436f6c6c61746572616c697a6174696f6e526174696f203c203143616e2774206c6971756964617465206d6f7265207468616e2031303025206f6620746865207661756c74455448206973206e6f74207468652073706563696669656420636f6c6c61746572616c20747970654f776e61626c653a206e6577206f776e657220697320746865207a65726f206164647265737343616e277420636f6c6c65637420636f6c6c61746572616c20756e74696c20657870697279436f756c64206e6f74207472616e7366657220696e20636f6c6c61746572616c20746f6b656e735661756c7420646f6573206e6f7420657869737400000000000000000000000043616e27742068617665203e323025206c69717569646174696f6e20696e63656e74697665537065636966696564207661756c7473206861766520696e73756666696369656e7420636f6c6c61746572616c43616e206f6e6c79206c6971756964617465206c69717569646174696f6e20666163746f7220617420616e7920676976656e2074696d6543616e27742072656d6f7665206d6f726520636f6c6c61746572616c207468616e206f776e656443616e2774206578657263697365206f757473696465206f66207468652065786572636973652077696e646f774f776e61626c653a2063616c6c6572206973206e6f7420746865206f776e657243616e6e6f742065786572636973652066726f6d2061207661756c74207468617420646f65736e277420657869737443616e2774206578657263697365206d6f7265206f546f6b656e73207468616e20746865206f776e6572206861734f7074696f6e7320636f6e747261637420657870697265640000000000000000a264697066735822122094411792884d864e292263d62bc0d8cbdad720731cf390de15fe1b5ece388edf64736f6c6343000600003345786572636973652077696e646f772063616e2774206265206c6f6e676572207468616e2074686520636f6e74726163742773206c6966657370616e636f6c6c61746572616c206578706f6e656e74206e6f742077697468696e2065787065637465642072616e67656f546f6b656e2065786368616e67652072617465206578706f6e656e74206e6f742077697468696e2065787065637465642072616e6765737472696b65207072696365206578706f6e656e74206e6f742077697468696e2065787065637465642072616e6765756e6465726c79696e67206578706f6e656e74206e6f742077697468696e2065787065637465642072616e6765",
  "source": "// pragma solidity 0.5.10;\npragma solidity >=0.4.22 <0.7.0;\n\nimport \"./lib/CompoundOracleInterface.sol\";\nimport \"./OptionsExchange.sol\";\nimport \"./OptionsUtils.sol\";\nimport \"./lib/UniswapFactoryInterface.sol\";\nimport \"./lib/UniswapExchangeInterface.sol\";\nimport \"../ERC20/ERC20.sol\";\nimport \"../ERC20/IERC20.sol\";\nimport \"../ERC20/ERC20Detailed.sol\";\nimport \"../openZeppelin/Ownable.sol\";\nimport \"../SafeMath.sol\";\n\n/**\n * @title Opyn's Options Contract\n * @author Opyn\n */\ncontract OptionsContract is Ownable, ERC20 {\n    using SafeMath for uint256;\n\n    /* represents floting point numbers, where number = value * 10 ** exponent\n    i.e 0.1 = 10 * 10 ** -3 */\n    struct Number {\n        uint256 value;\n        int32 exponent;\n    }\n\n    // Keeps track of the weighted collateral and weighted debt for each vault.\n    struct Vault {\n        uint256 collateral;\n        uint256 oTokensIssued;\n        uint256 underlying;\n        bool owned;\n    }\n\n    OptionsExchange public optionsExchange;\n\n    mapping(address => Vault) internal vaults;\n\n    address payable[] internal vaultOwners;\n\n    // 10 is 0.01 i.e. 1% incentive.\n    Number public liquidationIncentive = Number(10, -3);\n\n    // 100 is egs. 0.1 i.e. 10%.\n    Number public transactionFee = Number(0, -3);\n\n    /* 500 is 0.5. Max amount that a Vault can be liquidated by i.e.\n    max collateral that can be taken in one function call */\n    Number public liquidationFactor = Number(500, -3);\n\n    /* 16 means 1.6. The minimum ratio of a Vault's collateral to insurance promised.\n    The ratio is calculated as below:\n    vault.collateral / (Vault.oTokensIssued * strikePrice) */\n    Number public minCollateralizationRatio = Number(16, -1);\n\n    // The amount of insurance promised per oToken\n    Number public strikePrice;\n\n    // The amount of underlying that 1 oToken protects.\n    Number public oTokenExchangeRate;\n\n    /* UNIX time.\n    Exercise period starts at `(expiry - windowSize)` and ends at `expiry` */\n    uint256 internal windowSize;\n\n    /* The total fees accumulated in the contract any time liquidate or exercise is called */\n    uint256 internal totalFee;\n\n    // The time of expiry of the options contract\n    uint256 public expiry;\n\n    // The precision of the collateral\n    int32 public collateralExp = -18;\n\n    // The precision of the underlying\n    int32 public underlyingExp = -18;\n\n    // The collateral asset\n    IERC20 public collateral;\n\n    // The asset being protected by the insurance\n    IERC20 public underlying;\n\n    // The asset in which insurance is denominated in.\n    IERC20 public strike;\n\n    // The Oracle used for the contract\n    CompoundOracleInterface public COMPOUND_ORACLE;\n\n    // The name of  the contract\n    string public name;\n\n    // The symbol of  the contract\n    string public symbol;\n\n    // The number of decimals of the contract\n    uint8 public decimals;\n\n    /**\n    * @param _collateral The collateral asset\n    * @param _collExp The precision of the collateral (-18 if ETH)\n    * @param _underlying The asset that is being protected\n    * @param _underlyingExp The precision of the underlying asset\n    * @param _oTokenExchangeExp The precision of the `amount of underlying` that 1 oToken protects\n    * @param _strikePrice The amount of strike asset that will be paid out per oToken\n    * @param _strikeExp The precision of the strike price.\n    * @param _strike The asset in which the insurance is calculated\n    * @param _expiry The time at which the insurance expires\n    * @param _optionsExchange The contract which interfaces with the exchange + oracle\n    * @param _oracleAddress The address of the oracle\n    * @param _windowSize UNIX time. Exercise window is from `expiry - _windowSize` to `expiry`.\n    */\n    constructor(\n        IERC20 _collateral,\n        int32 _collExp,\n        IERC20 _underlying,\n        int32 _underlyingExp,\n        int32 _oTokenExchangeExp,\n        uint256 _strikePrice,\n        int32 _strikeExp,\n        IERC20 _strike,\n        uint256 _expiry,\n        OptionsExchange _optionsExchange,\n        address _oracleAddress,\n        uint256 _windowSize\n    ) public {\n        require(block.timestamp < _expiry, \"Can't deploy an expired contract\");\n        require(\n            _windowSize <= _expiry,\n            \"Exercise window can't be longer than the contract's lifespan\"\n        );\n        require(\n            isWithinExponentRange(_collExp),\n            \"collateral exponent not within expected range\"\n        );\n        require(\n            isWithinExponentRange(_underlyingExp),\n            \"underlying exponent not within expected range\"\n        );\n        require(\n            isWithinExponentRange(_strikeExp),\n            \"strike price exponent not within expected range\"\n        );\n        require(\n            isWithinExponentRange(_oTokenExchangeExp),\n            \"oToken exchange rate exponent not within expected range\"\n        );\n\n        collateral = _collateral;\n        collateralExp = _collExp;\n\n        underlying = _underlying;\n        underlyingExp = _underlyingExp;\n        oTokenExchangeRate = Number(1, _oTokenExchangeExp);\n\n        strikePrice = Number(_strikePrice, _strikeExp);\n        strike = _strike;\n\n        expiry = _expiry;\n        COMPOUND_ORACLE = CompoundOracleInterface(_oracleAddress);\n        optionsExchange = _optionsExchange;\n        windowSize = _windowSize;\n    }\n\n    /*** Events ***/\n    event VaultOpened(address payable vaultOwner);\n    event ETHCollateralAdded(\n        address payable vaultOwner,\n        uint256 amount,\n        address payer\n    );\n    event ERC20CollateralAdded(\n        address payable vaultOwner,\n        uint256 amount,\n        address payer\n    );\n    event IssuedOTokens(\n        address issuedTo,\n        uint256 oTokensIssued,\n        address payable vaultOwner\n    );\n    event Liquidate(\n        uint256 amtCollateralToPay,\n        address payable vaultOwner,\n        address payable liquidator\n    );\n    event Exercise(\n        uint256 amtUnderlyingToPay,\n        uint256 amtCollateralToPay,\n        address payable exerciser,\n        address payable vaultExercisedFrom\n    );\n    event RedeemVaultBalance(\n        uint256 amtCollateralRedeemed,\n        uint256 amtUnderlyingRedeemed,\n        address payable vaultOwner\n    );\n    event BurnOTokens(address payable vaultOwner, uint256 oTokensBurned);\n    event RemoveCollateral(uint256 amtRemoved, address payable vaultOwner);\n    event UpdateParameters(\n        uint256 liquidationIncentive,\n        uint256 liquidationFactor,\n        uint256 transactionFee,\n        uint256 minCollateralizationRatio,\n        address owner\n    );\n    event TransferFee(address payable to, uint256 fees);\n    event RemoveUnderlying(\n        uint256 amountUnderlying,\n        address payable vaultOwner\n    );\n\n    /**\n     * @dev Throws if called Options contract is expired.\n     */\n    modifier notExpired() {\n        require(!hasExpired(), \"Options contract expired\");\n        _;\n    }\n\n    /**\n     * @notice This function gets the array of vaultOwners\n     */\n    function getVaultOwners() public view returns (address payable[] memory) {\n        address payable[] memory owners;\n        uint256 index = 0;\n        for (uint256 i = 0; i < vaultOwners.length; i++) {\n            if (hasVault(vaultOwners[i])) {\n                owners[index] = vaultOwners[i];\n                index++;\n            }\n        }\n\n        return owners;\n    }\n\n    /**\n     * @notice Can only be called by owner. Used to update the fees, minminCollateralizationRatio, etc\n     * @param _liquidationIncentive The incentive paid to liquidator. 10 is 0.01 i.e. 1% incentive.\n     * @param _liquidationFactor Max amount that a Vault can be liquidated by. 500 is 0.5.\n     * @param _transactionFee The fees paid to our protocol every time a execution happens. 100 is egs. 0.1 i.e. 10%.\n     * @param _minCollateralizationRatio The minimum ratio of a Vault's collateral to insurance promised. 16 means 1.6.\n     */\n    function updateParameters(\n        uint256 _liquidationIncentive,\n        uint256 _liquidationFactor,\n        uint256 _transactionFee,\n        uint256 _minCollateralizationRatio\n    ) public onlyOwner {\n        require(\n            _liquidationIncentive <= 200,\n            \"Can't have >20% liquidation incentive\"\n        );\n        require(\n            _liquidationFactor <= 1000,\n            \"Can't liquidate more than 100% of the vault\"\n        );\n        require(_transactionFee <= 100, \"Can't have transaction fee > 10%\");\n        require(\n            _minCollateralizationRatio >= 10,\n            \"Can't have minCollateralizationRatio < 1\"\n        );\n\n        liquidationIncentive.value = _liquidationIncentive;\n        liquidationFactor.value = _liquidationFactor;\n        transactionFee.value = _transactionFee;\n        minCollateralizationRatio.value = _minCollateralizationRatio;\n\n        emit UpdateParameters(\n            _liquidationIncentive,\n            _liquidationFactor,\n            _transactionFee,\n            _minCollateralizationRatio,\n            owner()\n        );\n    }\n\n    /**\n     * @notice Can only be called by owner. Used to set the name, symbol and decimals of the contract\n     * @param _name The name of the contract\n     * @param _symbol The symbol of the contract\n     */\n    function setDetails(string memory _name, string memory _symbol)\n        public\n        onlyOwner\n    {\n        name = _name;\n        symbol = _symbol;\n        decimals = uint8(-1 * oTokenExchangeRate.exponent);\n        require(\n            decimals >= 0,\n            \"1 oToken cannot protect less than the smallest unit of the asset\"\n        );\n    }\n\n    /**\n     * @notice Can only be called by owner. Used to take out the protocol fees from the contract.\n     * @param _address The address to send the fee to.\n     */\n    function transferFee(address payable _address) public onlyOwner {\n        uint256 fees = totalFee;\n        totalFee = 0;\n        transferCollateral(_address, fees);\n\n        emit TransferFee(_address, fees);\n    }\n\n    /**\n     * @notice Checks if a `owner` has already created a Vault\n     * @param owner The address of the supposed owner\n     * @return true or false\n     */\n    function hasVault(address payable owner) public view returns (bool) {\n        return vaults[owner].owned;\n    }\n\n    /**\n     * @notice Creates a new empty Vault and sets the owner of the vault to be the msg.sender.\n     */\n    function openVault() public notExpired returns (bool) {\n        require(!hasVault(msg.sender), \"Vault already created\");\n\n        vaults[msg.sender] = Vault(0, 0, 0, true);\n        vaultOwners.push(msg.sender);\n\n        emit VaultOpened(msg.sender);\n        return true;\n    }\n\n    /**\n     * @notice If the collateral type is ETH, anyone can call this function any time before\n     * expiry to increase the amount of collateral in a Vault. Will fail if ETH is not the\n     * collateral asset.\n     * Remember that adding ETH collateral even if no oTokens have been created can put the owner at a\n     * risk of losing the collateral if an exercise event happens.\n     * Ensure that you issue and immediately sell oTokens to allow the owner to earn premiums.\n     * (Either call the createAndSell function in the oToken contract or batch the\n     * addERC20Collateral, issueOTokens and sell transactions and ensure they happen atomically to protect\n     * the end user).\n     * @param vaultOwner the index of the Vault to which collateral will be added.\n     */\n    function addETHCollateral(address payable vaultOwner)\n        public\n        payable\n        notExpired\n        returns (uint256)\n    {\n        require(isETH(collateral), \"ETH is not the specified collateral type\");\n        require(hasVault(vaultOwner), \"Vault does not exist\");\n\n        emit ETHCollateralAdded(vaultOwner, msg.value, msg.sender);\n        return _addCollateral(vaultOwner, msg.value);\n    }\n\n    /**\n     * @notice If the collateral type is any ERC20, anyone can call this function any time before\n     * expiry to increase the amount of collateral in a Vault. Can only transfer in the collateral asset.\n     * Will fail if ETH is the collateral asset.\n     * The user has to allow the contract to handle their ERC20 tokens on his behalf before these\n     * functions are called.\n     * Remember that adding ERC20 collateral even if no oTokens have been created can put the owner at a\n     * risk of losing the collateral. Ensure that you issue and immediately sell the oTokens!\n     * (Either call the createAndSell function in the oToken contract or batch the\n     * addERC20Collateral, issueOTokens and sell transactions and ensure they happen atomically to protect\n     * the end user).\n     * @param vaultOwner the index of the Vault to which collateral will be added.\n     * @param amt the amount of collateral to be transferred in.\n     */\n    function addERC20Collateral(address payable vaultOwner, uint256 amt)\n        public\n        notExpired\n        returns (uint256)\n    {\n        require(\n            collateral.transferFrom(msg.sender, address(this), amt),\n            \"Could not transfer in collateral tokens\"\n        );\n        require(hasVault(vaultOwner), \"Vault does not exist\");\n\n        emit ERC20CollateralAdded(vaultOwner, amt, msg.sender);\n        return _addCollateral(vaultOwner, amt);\n    }\n\n    /**\n     * @notice Returns the amount of underlying to be transferred during an exercise call\n     */\n    function underlyingRequiredToExercise(uint256 oTokensToExercise)\n        public\n        view\n        returns (uint256)\n    {\n        uint64 underlyingPerOTokenExp = uint64(\n            oTokenExchangeRate.exponent - underlyingExp\n        );\n        return oTokensToExercise.mul(10**underlyingPerOTokenExp);\n    }\n\n    /**\n     * @notice Returns true if exercise can be called\n     */\n    function isExerciseWindow() public view returns (bool) {\n        return ((block.timestamp >= expiry.sub(windowSize)) &&\n            (block.timestamp < expiry));\n    }\n\n    /**\n     * @notice Returns true if the oToken contract has expired\n     */\n    function hasExpired() public view returns (bool) {\n        return (block.timestamp >= expiry);\n    }\n\n    /**\n     * @notice Called by anyone holding the oTokens and underlying during the\n     * exercise window i.e. from `expiry - windowSize` time to `expiry` time. The caller\n     * transfers in their oTokens and corresponding amount of underlying and gets\n     * `strikePrice * oTokens` amount of collateral out. The collateral paid out is taken from\n     * the each vault owner starting with the first and iterating until the oTokens to exercise\n     * are found.\n     * NOTE: This uses a for loop and hence could run out of gas if the array passed in is too big!\n     * @param oTokensToExercise the number of oTokens being exercised.\n     * @param vaultsToExerciseFrom the array of vaults to exercise from.\n     */\n    function exercise(\n        uint256 oTokensToExercise,\n        address payable[] memory vaultsToExerciseFrom\n    ) public payable {\n        for (uint256 i = 0; i < vaultsToExerciseFrom.length; i++) {\n            address payable vaultOwner = vaultsToExerciseFrom[i];\n            require(\n                hasVault(vaultOwner),\n                \"Cannot exercise from a vault that doesn't exist\"\n            );\n            Vault storage vault = vaults[vaultOwner];\n            if (oTokensToExercise == 0) {\n                return;\n            } else if (vault.oTokensIssued >= oTokensToExercise) {\n                _exercise(oTokensToExercise, vaultOwner);\n                return;\n            } else {\n                oTokensToExercise = oTokensToExercise.sub(vault.oTokensIssued);\n                _exercise(vault.oTokensIssued, vaultOwner);\n            }\n        }\n        require(\n            oTokensToExercise == 0,\n            \"Specified vaults have insufficient collateral\"\n        );\n    }\n\n    /**\n     * @notice This function allows the vault owner to remove their share of underlying after an exercise\n     */\n    function removeUnderlying() public {\n        require(hasVault(msg.sender), \"Vault does not exist\");\n        Vault storage vault = vaults[msg.sender];\n\n        require(vault.underlying > 0, \"No underlying balance\");\n\n        uint256 underlyingToTransfer = vault.underlying;\n        vault.underlying = 0;\n\n        transferUnderlying(msg.sender, underlyingToTransfer);\n        emit RemoveUnderlying(underlyingToTransfer, msg.sender);\n\n    }\n\n    /**\n     * @notice This function is called to issue the option tokens. Remember that issuing oTokens even if they\n     * haven't been sold can put the owner at a risk of not making premiums on the oTokens. Ensure that you\n     * issue and immidiately sell the oTokens! (Either call the createAndSell function in the oToken contract\n     * of batch the issueOTokens transaction with a sell transaction and ensure it happens atomically).\n     * @dev The owner of a Vault should only be able to have a max of\n     * repo.collateral * collateralToStrike / (minminCollateralizationRatio * strikePrice) tokens issued.\n     * @param oTokensToIssue The number of o tokens to issue\n     * @param receiver The address to send the oTokens to\n     */\n    function issueOTokens(uint256 oTokensToIssue, address receiver)\n        public\n        notExpired\n    {\n        //check that we're properly collateralized to mint this number, then call _mint(address account, uint256 amount)\n        require(hasVault(msg.sender), \"Vault does not exist\");\n\n        Vault storage vault = vaults[msg.sender];\n\n        // checks that the vault is sufficiently collateralized\n        uint256 newOTokensBalance = vault.oTokensIssued.add(oTokensToIssue);\n        require(isSafe(vault.collateral, newOTokensBalance), \"unsafe to mint\");\n\n        // issue the oTokens\n        vault.oTokensIssued = newOTokensBalance;\n        _mint(receiver, oTokensToIssue);\n\n        emit IssuedOTokens(receiver, oTokensToIssue, msg.sender);\n        return;\n    }\n\n    /**\n     * @notice Returns the vault for a given address\n     * @param vaultOwner the owner of the Vault to return\n     */\n    function getVault(address payable vaultOwner)\n        public\n        view\n        returns (uint256, uint256, uint256, bool)\n    {\n        Vault storage vault = vaults[vaultOwner];\n        return (\n            vault.collateral,\n            vault.oTokensIssued,\n            vault.underlying,\n            vault.owned\n        );\n    }\n\n    /**\n     * @notice Returns true if the given ERC20 is ETH.\n     * @param _ierc20 the ERC20 asset.\n     */\n    function isETH(IERC20 _ierc20) public pure returns (bool) {\n        return _ierc20 == IERC20(0);\n    }\n\n    /**\n     * @notice allows the owner to burn their oTokens to increase the collateralization ratio of\n     * their vault.\n     * @param amtToBurn number of oTokens to burn\n     * @dev only want to call this function before expiry. After expiry, no benefit to calling it.\n     */\n    function burnOTokens(uint256 amtToBurn) public notExpired {\n        require(hasVault(msg.sender), \"Vault does not exist\");\n\n        Vault storage vault = vaults[msg.sender];\n\n        vault.oTokensIssued = vault.oTokensIssued.sub(amtToBurn);\n        _burn(msg.sender, amtToBurn);\n\n        emit BurnOTokens(msg.sender, amtToBurn);\n    }\n\n    /**\n     * @notice allows the owner to remove excess collateral from the vault before expiry. Removing collateral lowers\n     * the collateralization ratio of the vault.\n     * @param amtToRemove Amount of collateral to remove in 10^-18.\n     */\n    function removeCollateral(uint256 amtToRemove) public notExpired {\n        require(amtToRemove > 0, \"Cannot remove 0 collateral\");\n        require(hasVault(msg.sender), \"Vault does not exist\");\n\n        Vault storage vault = vaults[msg.sender];\n        require(\n            amtToRemove <= getCollateral(msg.sender),\n            \"Can't remove more collateral than owned\"\n        );\n\n        // check that vault will remain safe after removing collateral\n        uint256 newCollateralBalance = vault.collateral.sub(amtToRemove);\n\n        require(\n            isSafe(newCollateralBalance, vault.oTokensIssued),\n            \"Vault is unsafe\"\n        );\n\n        // remove the collateral\n        vault.collateral = newCollateralBalance;\n        transferCollateral(msg.sender, amtToRemove);\n\n        emit RemoveCollateral(amtToRemove, msg.sender);\n    }\n\n    /**\n     * @notice after expiry, each vault holder can get back their proportional share of collateral\n     * from vaults that they own.\n     * @dev The owner gets all of their collateral back if no exercise event took their collateral.\n     */\n    function redeemVaultBalance() public {\n        require(hasExpired(), \"Can't collect collateral until expiry\");\n        require(hasVault(msg.sender), \"Vault does not exist\");\n\n        // pay out owner their share\n        Vault storage vault = vaults[msg.sender];\n\n        // To deal with lower precision\n        uint256 collateralToTransfer = vault.collateral;\n        uint256 underlyingToTransfer = vault.underlying;\n\n        vault.collateral = 0;\n        vault.oTokensIssued = 0;\n        vault.underlying = 0;\n\n        transferCollateral(msg.sender, collateralToTransfer);\n        transferUnderlying(msg.sender, underlyingToTransfer);\n\n        emit RedeemVaultBalance(\n            collateralToTransfer,\n            underlyingToTransfer,\n            msg.sender\n        );\n    }\n\n    /**\n     * This function returns the maximum amount of collateral liquidatable if the given vault is unsafe\n     * @param vaultOwner The index of the vault to be liquidated\n     */\n    function maxOTokensLiquidatable(address payable vaultOwner)\n        public\n        view\n        returns (uint256)\n    {\n        if (isUnsafe(vaultOwner)) {\n            Vault storage vault = vaults[vaultOwner];\n            uint256 maxCollateralLiquidatable = vault\n                .collateral\n                .mul(liquidationFactor.value)\n                .div(10**uint256(-liquidationFactor.exponent));\n\n            uint256 one = 10**uint256(-liquidationIncentive.exponent);\n            Number memory liqIncentive = Number(\n                liquidationIncentive.value.add(one),\n                liquidationIncentive.exponent\n            );\n            return calculateOTokens(maxCollateralLiquidatable, liqIncentive);\n        } else {\n            return 0;\n        }\n    }\n\n    /**\n     * @notice This function can be called by anyone who notices a vault is undercollateralized.\n     * The caller gets a reward for reducing the amount of oTokens in circulation.\n     * @dev Liquidator comes with _oTokens. They get _oTokens * strikePrice * (incentive + fee)\n     * amount of collateral out. They can liquidate a max of liquidationFactor * vault.collateral out\n     * in one function call i.e. partial liquidations.\n     * @param vaultOwner The index of the vault to be liquidated\n     * @param oTokensToLiquidate The number of oTokens being taken out of circulation\n     */\n    function liquidate(address payable vaultOwner, uint256 oTokensToLiquidate)\n        public\n        notExpired\n    {\n        require(hasVault(vaultOwner), \"Vault does not exist\");\n\n        Vault storage vault = vaults[vaultOwner];\n\n        // cannot liquidate a safe vault.\n        require(isUnsafe(vaultOwner), \"Vault is safe\");\n\n        // Owner can't liquidate themselves\n        require(msg.sender != vaultOwner, \"Owner can't liquidate themselves\");\n\n        uint256 amtCollateral = calculateCollateralToPay(\n            oTokensToLiquidate,\n            Number(1, 0)\n        );\n        uint256 amtIncentive = calculateCollateralToPay(\n            oTokensToLiquidate,\n            liquidationIncentive\n        );\n        uint256 amtCollateralToPay = amtCollateral.add(amtIncentive);\n\n        // calculate the maximum amount of collateral that can be liquidated\n        uint256 maxCollateralLiquidatable = vault.collateral.mul(\n            liquidationFactor.value\n        );\n\n        if (liquidationFactor.exponent > 0) {\n            maxCollateralLiquidatable = maxCollateralLiquidatable.mul(\n                10**uint256(liquidationFactor.exponent)\n            );\n        } else {\n            maxCollateralLiquidatable = maxCollateralLiquidatable.div(\n                10**uint256(-1 * liquidationFactor.exponent)\n            );\n        }\n\n        require(\n            amtCollateralToPay <= maxCollateralLiquidatable,\n            \"Can only liquidate liquidation factor at any given time\"\n        );\n\n        // deduct the collateral and oTokensIssued\n        vault.collateral = vault.collateral.sub(amtCollateralToPay);\n        vault.oTokensIssued = vault.oTokensIssued.sub(oTokensToLiquidate);\n\n        // transfer the collateral and burn the _oTokens\n        _burn(msg.sender, oTokensToLiquidate);\n        transferCollateral(msg.sender, amtCollateralToPay);\n\n        emit Liquidate(amtCollateralToPay, vaultOwner, msg.sender);\n    }\n\n    /**\n     * @notice checks if a vault is unsafe. If so, it can be liquidated\n     * @param vaultOwner The number of the vault to check\n     * @return true or false\n     */\n    function isUnsafe(address payable vaultOwner) public view returns (bool) {\n        bool stillUnsafe = !isSafe(\n            getCollateral(vaultOwner),\n            getOTokensIssued(vaultOwner)\n        );\n        return stillUnsafe;\n    }\n\n    /**\n     * @notice This function returns if an -30 <= exponent <= 30\n     */\n    function isWithinExponentRange(int32 val) internal pure returns (bool) {\n        return ((val <= 30) && (val >= -30));\n    }\n\n    /**\n     * @notice This function calculates and returns the amount of collateral in the vault\n    */\n    function getCollateral(address payable vaultOwner)\n        internal\n        view\n        returns (uint256)\n    {\n        Vault storage vault = vaults[vaultOwner];\n        return vault.collateral;\n    }\n\n    /**\n     * @notice This function calculates and returns the amount of puts issued by the Vault\n    */\n    function getOTokensIssued(address payable vaultOwner)\n        internal\n        view\n        returns (uint256)\n    {\n        Vault storage vault = vaults[vaultOwner];\n        return vault.oTokensIssued;\n    }\n\n    /**\n     * @notice Called by anyone holding the oTokens and underlying during the\n     * exercise window i.e. from `expiry - windowSize` time to `expiry` time. The caller\n     * transfers in their oTokens and corresponding amount of underlying and gets\n     * `strikePrice * oTokens` amount of collateral out. The collateral paid out is taken from\n     * the specified vault holder. At the end of the expiry window, the vault holder can redeem their balance\n     * of collateral. The vault owner can withdraw their underlying at any time.\n     * The user has to allow the contract to handle their oTokens and underlying on his behalf before these functions are called.\n     * @param oTokensToExercise the number of oTokens being exercised.\n     * @param vaultToExerciseFrom the address of the vaultOwner to take collateral from.\n     * @dev oTokenExchangeRate is the number of underlying tokens that 1 oToken protects.\n     */\n    function _exercise(\n        uint256 oTokensToExercise,\n        address payable vaultToExerciseFrom\n    ) internal {\n        // 1. before exercise window: revert\n        require(\n            isExerciseWindow(),\n            \"Can't exercise outside of the exercise window\"\n        );\n\n        require(hasVault(vaultToExerciseFrom), \"Vault does not exist\");\n\n        Vault storage vault = vaults[vaultToExerciseFrom];\n        require(oTokensToExercise > 0, \"Can't exercise 0 oTokens\");\n        // Check correct amount of oTokens passed in)\n        require(\n            oTokensToExercise <= vault.oTokensIssued,\n            \"Can't exercise more oTokens than the owner has\"\n        );\n        // Ensure person calling has enough oTokens\n        require(\n            balanceOf(msg.sender) >= oTokensToExercise,\n            \"Not enough oTokens\"\n        );\n\n        // 1. Check sufficient underlying\n        // 1.1 update underlying balances\n        uint256 amtUnderlyingToPay = underlyingRequiredToExercise(\n            oTokensToExercise\n        );\n        vault.underlying = vault.underlying.add(amtUnderlyingToPay);\n\n        // 2. Calculate Collateral to pay\n        // 2.1 Payout enough collateral to get (strikePrice * oTokens) amount of collateral\n        uint256 amtCollateralToPay = calculateCollateralToPay(\n            oTokensToExercise,\n            Number(1, 0)\n        );\n\n        // 2.2 Take a small fee on every exercise\n        uint256 amtFee = calculateCollateralToPay(\n            oTokensToExercise,\n            transactionFee\n        );\n        totalFee = totalFee.add(amtFee);\n\n        uint256 totalCollateralToPay = amtCollateralToPay.add(amtFee);\n        require(\n            totalCollateralToPay <= vault.collateral,\n            \"Vault underwater, can't exercise\"\n        );\n\n        // 3. Update collateral + oToken balances\n        vault.collateral = vault.collateral.sub(totalCollateralToPay);\n        vault.oTokensIssued = vault.oTokensIssued.sub(oTokensToExercise);\n\n        // 4. Transfer in underlying, burn oTokens + pay out collateral\n        // 4.1 Transfer in underlying\n        if (isETH(underlying)) {\n            require(msg.value == amtUnderlyingToPay, \"Incorrect msg.value\");\n        } else {\n            require(\n                underlying.transferFrom(\n                    msg.sender,\n                    address(this),\n                    amtUnderlyingToPay\n                ),\n                \"Could not transfer in tokens\"\n            );\n        }\n        // 4.2 burn oTokens\n        _burn(msg.sender, oTokensToExercise);\n\n        // 4.3 Pay out collateral\n        transferCollateral(msg.sender, amtCollateralToPay);\n\n        emit Exercise(\n            amtUnderlyingToPay,\n            amtCollateralToPay,\n            msg.sender,\n            vaultToExerciseFrom\n        );\n\n    }\n\n    /**\n     * @notice adds `_amt` collateral to `vaultOwner` and returns the new balance of the vault\n     * @param vaultOwner the index of the vault\n     * @param amt the amount of collateral to add\n     */\n    function _addCollateral(address payable vaultOwner, uint256 amt)\n        internal\n        notExpired\n        returns (uint256)\n    {\n        Vault storage vault = vaults[vaultOwner];\n        vault.collateral = vault.collateral.add(amt);\n\n        return vault.collateral;\n    }\n\n    /**\n     * @notice checks if a hypothetical vault is safe with the given collateralAmt and oTokensIssued\n     * @param collateralAmt The amount of collateral the hypothetical vault has\n     * @param oTokensIssued The amount of oTokens generated by the hypothetical vault\n     * @return true or false\n     */\n    function isSafe(uint256 collateralAmt, uint256 oTokensIssued)\n        internal\n        view\n        returns (bool)\n    {\n        // get price from Oracle\n        uint256 collateralToEthPrice = 1;\n        uint256 strikeToEthPrice = 1;\n\n        if (collateral != strike) {\n            collateralToEthPrice = getPrice(address(collateral));\n            strikeToEthPrice = getPrice(address(strike));\n        }\n\n        // check `oTokensIssued * minCollateralizationRatio * strikePrice <= collAmt * collateralToStrikePrice`\n        uint256 leftSideVal = oTokensIssued\n            .mul(minCollateralizationRatio.value)\n            .mul(strikePrice.value);\n        int32 leftSideExp = minCollateralizationRatio.exponent +\n            strikePrice.exponent;\n\n        uint256 rightSideVal = (collateralAmt.mul(collateralToEthPrice)).div(\n            strikeToEthPrice\n        );\n        int32 rightSideExp = collateralExp;\n\n        uint256 exp = 0;\n        bool stillSafe = false;\n\n        if (rightSideExp < leftSideExp) {\n            exp = uint256(leftSideExp - rightSideExp);\n            stillSafe = leftSideVal.mul(10**exp) <= rightSideVal;\n        } else {\n            exp = uint256(rightSideExp - leftSideExp);\n            stillSafe = leftSideVal <= rightSideVal.mul(10**exp);\n        }\n\n        return stillSafe;\n    }\n\n    /**\n     * This function returns the maximum amount of oTokens that can safely be issued against the specified amount of collateral.\n     * @param collateralAmt The amount of collateral against which oTokens will be issued.\n     */\n    function maxOTokensIssuable(uint256 collateralAmt)\n        public\n        view\n        returns (uint256)\n    {\n        return calculateOTokens(collateralAmt, minCollateralizationRatio);\n\n    }\n\n    /**\n     * @notice This function is used to calculate the amount of tokens that can be issued.\n     * @dev The amount of oTokens is determined by:\n     * oTokensIssued  <= collateralAmt * collateralToStrikePrice / (proportion * strikePrice)\n     * @param collateralAmt The amount of collateral\n     * @param proportion The proportion of the collateral to pay out. If 100% of collateral\n     * should be paid out, pass in Number(1, 0). The proportion might be less than 100% if\n     * you are calculating fees.\n     */\n    function calculateOTokens(uint256 collateralAmt, Number memory proportion)\n        internal\n        view\n        returns (uint256)\n    {\n        // get price from Oracle\n        uint256 collateralToEthPrice = 1;\n        uint256 strikeToEthPrice = 1;\n\n        if (collateral != strike) {\n            collateralToEthPrice = getPrice(address(collateral));\n            strikeToEthPrice = getPrice(address(strike));\n        }\n\n        // oTokensIssued  <= collAmt * collateralToStrikePrice / (proportion * strikePrice)\n        uint256 denomVal = proportion.value.mul(strikePrice.value);\n        int32 denomExp = proportion.exponent + strikePrice.exponent;\n\n        uint256 numeratorVal = (collateralAmt.mul(collateralToEthPrice)).div(\n            strikeToEthPrice\n        );\n        int32 numeratorExp = collateralExp;\n\n        uint256 exp = 0;\n        uint256 numOptions = 0;\n\n        if (numeratorExp < denomExp) {\n            exp = uint256(denomExp - numeratorExp);\n            numOptions = numeratorVal.div(denomVal.mul(10**exp));\n        } else {\n            exp = uint256(numeratorExp - denomExp);\n            numOptions = numeratorVal.mul(10**exp).div(denomVal);\n        }\n\n        return numOptions;\n    }\n\n    /**\n     * @notice This function calculates the amount of collateral to be paid out.\n     * @dev The amount of collateral to paid out is determined by:\n     * (proportion * strikePrice * strikeToCollateralPrice * oTokens) amount of collateral.\n     * @param _oTokens The number of oTokens.\n     * @param proportion The proportion of the collateral to pay out. If 100% of collateral\n     * should be paid out, pass in Number(1, 0). The proportion might be less than 100% if\n     * you are calculating fees.\n     */\n    function calculateCollateralToPay(\n        uint256 _oTokens,\n        Number memory proportion\n    ) internal view returns (uint256) {\n        // Get price from oracle\n        uint256 collateralToEthPrice = 1;\n        uint256 strikeToEthPrice = 1;\n\n        if (collateral != strike) {\n            collateralToEthPrice = getPrice(address(collateral));\n            strikeToEthPrice = getPrice(address(strike));\n        }\n\n        // calculate how much should be paid out\n        uint256 amtCollateralToPayInEthNum = _oTokens\n            .mul(strikePrice.value)\n            .mul(proportion.value)\n            .mul(strikeToEthPrice);\n        int32 amtCollateralToPayExp = strikePrice.exponent +\n            proportion.exponent -\n            collateralExp;\n        uint256 amtCollateralToPay = 0;\n        if (amtCollateralToPayExp > 0) {\n            uint32 exp = uint32(amtCollateralToPayExp);\n            amtCollateralToPay = amtCollateralToPayInEthNum.mul(10**exp).div(\n                collateralToEthPrice\n            );\n        } else {\n            uint32 exp = uint32(-1 * amtCollateralToPayExp);\n            amtCollateralToPay = (amtCollateralToPayInEthNum.div(10**exp)).div(\n                collateralToEthPrice\n            );\n        }\n\n        return amtCollateralToPay;\n\n    }\n\n    /**\n     * @notice This function transfers `amt` collateral to `_addr`\n     * @param _addr The address to send the collateral to\n     * @param _amt The amount of the collateral to pay out.\n     */\n    function transferCollateral(address payable _addr, uint256 _amt) internal {\n        if (isETH(collateral)) {\n            _addr.transfer(_amt);\n        } else {\n            collateral.transfer(_addr, _amt);\n        }\n    }\n\n    /**\n     * @notice This function transfers `amt` underlying to `_addr`\n     * @param _addr The address to send the underlying to\n     * @param _amt The amount of the underlying to pay out.\n     */\n    function transferUnderlying(address payable _addr, uint256 _amt) internal {\n        if (isETH(underlying)) {\n            _addr.transfer(_amt);\n        } else {\n            underlying.transfer(_addr, _amt);\n        }\n    }\n\n    /**\n     * @notice This function gets the price ETH (wei) to asset price.\n     * @param asset The address of the asset to get the price of\n     */\n    function getPrice(address asset) internal view returns (uint256) {\n        if (asset == address(0)) {\n            return (10**18);\n        } else {\n            return COMPOUND_ORACLE.getPrice(asset);\n        }\n    }\n}\n",
  "sourcePath": "/Users/jenil/Desktop/code/hip/contracts/opyn/OptionsContract.sol",
  "compiler": {
    "name": "solc",
    "version": "0.6.0+commit.26b70077.Emscripten.clang"
  },
  "schemaVersion": "3.1.0",
  "updatedAt": "2020-05-22T18:19:27.732Z",
  "devdoc": {
    "author": "Opyn",
    "methods": {
      "addERC20Collateral(address,uint256)": {
        "params": {
          "amt": "the amount of collateral to be transferred in.",
          "vaultOwner": "the index of the Vault to which collateral will be added."
        }
      },
      "addETHCollateral(address)": {
        "params": {
          "vaultOwner": "the index of the Vault to which collateral will be added."
        }
      },
      "allowance(address,address)": {
        "details": "Function to check the amount of tokens that an owner allowed to a spender.",
        "params": {
          "owner": "address The address which owns the funds.",
          "spender": "address The address which will spend the funds."
        },
        "returns": {
          "_0": "A uint256 specifying the amount of tokens still available for the spender."
        }
      },
      "approve(address,uint256)": {
        "details": "Approve the passed address to spend the specified amount of tokens on behalf of msg.sender. Beware that changing an allowance with this method brings the risk that someone may use both the old and the new allowance by unfortunate transaction ordering. One possible solution to mitigate this race condition is to first reduce the spender's allowance to 0 and set the desired value afterwards: https://github.com/ethereum/EIPs/issues/20#issuecomment-263524729",
        "params": {
          "spender": "The address which will spend the funds.",
          "value": "The amount of tokens to be spent."
        }
      },
      "balanceOf(address)": {
        "details": "Gets the balance of the specified address.",
        "params": {
          "owner": "The address to query the balance of."
        },
        "returns": {
          "_0": "A uint256 representing the amount owned by the passed address."
        }
      },
      "burnOTokens(uint256)": {
        "details": "only want to call this function before expiry. After expiry, no benefit to calling it.",
        "params": {
          "amtToBurn": "number of oTokens to burn"
        }
      },
      "constructor": {
        "params": {
          "_collExp": "The precision of the collateral (-18 if ETH)",
          "_collateral": "The collateral asset",
          "_expiry": "The time at which the insurance expires",
          "_oTokenExchangeExp": "The precision of the `amount of underlying` that 1 oToken protects",
          "_optionsExchange": "The contract which interfaces with the exchange + oracle",
          "_oracleAddress": "The address of the oracle",
          "_strike": "The asset in which the insurance is calculated",
          "_strikeExp": "The precision of the strike price.",
          "_strikePrice": "The amount of strike asset that will be paid out per oToken",
          "_underlying": "The asset that is being protected",
          "_underlyingExp": "The precision of the underlying asset",
          "_windowSize": "UNIX time. Exercise window is from `expiry - _windowSize` to `expiry`."
        }
      },
      "decreaseAllowance(address,uint256)": {
        "details": "Decrease the amount of tokens that an owner allowed to a spender. approve should be called when _allowed[msg.sender][spender] == 0. To decrement allowed value is better to use this function to avoid 2 calls (and wait until the first transaction is mined) From MonolithDAO Token.sol Emits an Approval event.",
        "params": {
          "spender": "The address which will spend the funds.",
          "subtractedValue": "The amount of tokens to decrease the allowance by."
        }
      },
      "exercise(uint256,address[])": {
        "params": {
          "oTokensToExercise": "the number of oTokens being exercised.",
          "vaultsToExerciseFrom": "the array of vaults to exercise from."
        }
      },
      "getVault(address)": {
        "params": {
          "vaultOwner": "the owner of the Vault to return"
        }
      },
      "hasVault(address)": {
        "params": {
          "owner": "The address of the supposed owner"
        },
        "returns": {
          "_0": "true or false"
        }
      },
      "increaseAllowance(address,uint256)": {
        "details": "Increase the amount of tokens that an owner allowed to a spender. approve should be called when _allowed[msg.sender][spender] == 0. To increment allowed value is better to use this function to avoid 2 calls (and wait until the first transaction is mined) From MonolithDAO Token.sol Emits an Approval event.",
        "params": {
          "addedValue": "The amount of tokens to increase the allowance by.",
          "spender": "The address which will spend the funds."
        }
      },
      "isETH(address)": {
        "params": {
          "_ierc20": "the ERC20 asset."
        }
      },
      "isUnsafe(address)": {
        "params": {
          "vaultOwner": "The number of the vault to check"
        },
        "returns": {
          "_0": "true or false"
        }
      },
      "issueOTokens(uint256,address)": {
        "details": "The owner of a Vault should only be able to have a max of repo.collateral * collateralToStrike / (minminCollateralizationRatio * strikePrice) tokens issued.",
        "params": {
          "oTokensToIssue": "The number of o tokens to issue",
          "receiver": "The address to send the oTokens to"
        }
      },
      "liquidate(address,uint256)": {
        "details": "Liquidator comes with _oTokens. They get _oTokens * strikePrice * (incentive + fee) amount of collateral out. They can liquidate a max of liquidationFactor * vault.collateral out in one function call i.e. partial liquidations.",
        "params": {
          "oTokensToLiquidate": "The number of oTokens being taken out of circulation",
          "vaultOwner": "The index of the vault to be liquidated"
        }
      },
      "maxOTokensIssuable(uint256)": {
        "params": {
          "collateralAmt": "The amount of collateral against which oTokens will be issued."
        }
      },
      "maxOTokensLiquidatable(address)": {
        "params": {
          "vaultOwner": "The index of the vault to be liquidated"
        }
      },
      "owner()": {
        "details": "Returns the address of the current owner."
      },
      "redeemVaultBalance()": {
        "details": "The owner gets all of their collateral back if no exercise event took their collateral."
      },
      "removeCollateral(uint256)": {
        "params": {
          "amtToRemove": "Amount of collateral to remove in 10^-18."
        }
      },
      "renounceOwnership()": {
        "details": "Leaves the contract without owner. It will not be possible to call `onlyOwner` functions anymore. Can only be called by the current owner.     * NOTE: Renouncing ownership will leave the contract without an owner, thereby removing any functionality that is only available to the owner."
      },
      "setDetails(string,string)": {
        "params": {
          "_name": "The name of the contract",
          "_symbol": "The symbol of the contract"
        }
      },
      "totalSupply()": {
        "details": "Total number of tokens in existence."
      },
      "transfer(address,uint256)": {
        "details": "Transfer token to a specified address.",
        "params": {
          "to": "The address to transfer to.",
          "value": "The amount to be transferred."
        }
      },
      "transferFee(address)": {
        "params": {
          "_address": "The address to send the fee to."
        }
      },
      "transferFrom(address,address,uint256)": {
        "details": "Transfer tokens from one address to another. Note that while this function emits an Approval event, this is not required as per the specification, and other compliant implementations may not emit the event.",
        "params": {
          "from": "address The address which you want to send tokens from",
          "to": "address The address which you want to transfer to",
          "value": "uint256 the amount of tokens to be transferred"
        }
      },
      "transferOwnership(address)": {
        "details": "Transfers ownership of the contract to a new account (`newOwner`). Can only be called by the current owner."
      },
      "updateParameters(uint256,uint256,uint256,uint256)": {
        "params": {
          "_liquidationFactor": "Max amount that a Vault can be liquidated by. 500 is 0.5.",
          "_liquidationIncentive": "The incentive paid to liquidator. 10 is 0.01 i.e. 1% incentive.",
          "_minCollateralizationRatio": "The minimum ratio of a Vault's collateral to insurance promised. 16 means 1.6.",
          "_transactionFee": "The fees paid to our protocol every time a execution happens. 100 is egs. 0.1 i.e. 10%."
        }
      }
    },
    "title": "Opyn's Options Contract"
  },
  "userdoc": {
    "methods": {
      "addERC20Collateral(address,uint256)": {
        "notice": "If the collateral type is any ERC20, anyone can call this function any time before expiry to increase the amount of collateral in a Vault. Can only transfer in the collateral asset. Will fail if ETH is the collateral asset. The user has to allow the contract to handle their ERC20 tokens on his behalf before these functions are called. Remember that adding ERC20 collateral even if no oTokens have been created can put the owner at a risk of losing the collateral. Ensure that you issue and immediately sell the oTokens! (Either call the createAndSell function in the oToken contract or batch the addERC20Collateral, issueOTokens and sell transactions and ensure they happen atomically to protect the end user)."
      },
      "addETHCollateral(address)": {
        "notice": "If the collateral type is ETH, anyone can call this function any time before expiry to increase the amount of collateral in a Vault. Will fail if ETH is not the collateral asset. Remember that adding ETH collateral even if no oTokens have been created can put the owner at a risk of losing the collateral if an exercise event happens. Ensure that you issue and immediately sell oTokens to allow the owner to earn premiums. (Either call the createAndSell function in the oToken contract or batch the addERC20Collateral, issueOTokens and sell transactions and ensure they happen atomically to protect the end user)."
      },
      "burnOTokens(uint256)": {
        "notice": "allows the owner to burn their oTokens to increase the collateralization ratio of their vault."
      },
      "exercise(uint256,address[])": {
        "notice": "Called by anyone holding the oTokens and underlying during the exercise window i.e. from `expiry - windowSize` time to `expiry` time. The caller transfers in their oTokens and corresponding amount of underlying and gets `strikePrice * oTokens` amount of collateral out. The collateral paid out is taken from the each vault owner starting with the first and iterating until the oTokens to exercise are found. NOTE: This uses a for loop and hence could run out of gas if the array passed in is too big!"
      },
      "getVault(address)": {
        "notice": "Returns the vault for a given address"
      },
      "getVaultOwners()": {
        "notice": "This function gets the array of vaultOwners"
      },
      "hasExpired()": {
        "notice": "Returns true if the oToken contract has expired"
      },
      "hasVault(address)": {
        "notice": "Checks if a `owner` has already created a Vault"
      },
      "isETH(address)": {
        "notice": "Returns true if the given ERC20 is ETH."
      },
      "isExerciseWindow()": {
        "notice": "Returns true if exercise can be called"
      },
      "isUnsafe(address)": {
        "notice": "checks if a vault is unsafe. If so, it can be liquidated"
      },
      "issueOTokens(uint256,address)": {
        "notice": "This function is called to issue the option tokens. Remember that issuing oTokens even if they haven't been sold can put the owner at a risk of not making premiums on the oTokens. Ensure that you issue and immidiately sell the oTokens! (Either call the createAndSell function in the oToken contract of batch the issueOTokens transaction with a sell transaction and ensure it happens atomically)."
      },
      "liquidate(address,uint256)": {
        "notice": "This function can be called by anyone who notices a vault is undercollateralized. The caller gets a reward for reducing the amount of oTokens in circulation."
      },
      "maxOTokensIssuable(uint256)": {
        "notice": "This function returns the maximum amount of oTokens that can safely be issued against the specified amount of collateral."
      },
      "maxOTokensLiquidatable(address)": {
        "notice": "This function returns the maximum amount of collateral liquidatable if the given vault is unsafe"
      },
      "openVault()": {
        "notice": "Creates a new empty Vault and sets the owner of the vault to be the msg.sender."
      },
      "redeemVaultBalance()": {
        "notice": "after expiry, each vault holder can get back their proportional share of collateral from vaults that they own."
      },
      "removeCollateral(uint256)": {
        "notice": "allows the owner to remove excess collateral from the vault before expiry. Removing collateral lowers the collateralization ratio of the vault."
      },
      "removeUnderlying()": {
        "notice": "This function allows the vault owner to remove their share of underlying after an exercise"
      },
      "setDetails(string,string)": {
        "notice": "Can only be called by owner. Used to set the name, symbol and decimals of the contract"
      },
      "transferFee(address)": {
        "notice": "Can only be called by owner. Used to take out the protocol fees from the contract."
      },
      "underlyingRequiredToExercise(uint256)": {
        "notice": "Returns the amount of underlying to be transferred during an exercise call"
      },
      "updateParameters(uint256,uint256,uint256,uint256)": {
        "notice": "Can only be called by owner. Used to update the fees, minminCollateralizationRatio, etc"
      }
    }
  }
}