{
  "contractName": "OptionsExchange",
  "abi": [
    {
      "inputs": [
        {
          "internalType": "address",
          "name": "_uniswapFactory",
          "type": "address"
        }
      ],
      "stateMutability": "nonpayable",
      "type": "constructor"
    },
    {
      "anonymous": false,
      "inputs": [
        {
          "indexed": false,
          "internalType": "address",
          "name": "buyer",
          "type": "address"
        },
        {
          "indexed": false,
          "internalType": "address payable",
          "name": "receiver",
          "type": "address"
        },
        {
          "indexed": false,
          "internalType": "address",
          "name": "oTokenAddress",
          "type": "address"
        },
        {
          "indexed": false,
          "internalType": "address",
          "name": "paymentTokenAddress",
          "type": "address"
        },
        {
          "indexed": false,
          "internalType": "uint256",
          "name": "oTokensToBuy",
          "type": "uint256"
        },
        {
          "indexed": false,
          "internalType": "uint256",
          "name": "premiumPaid",
          "type": "uint256"
        }
      ],
      "name": "BuyOTokens",
      "type": "event"
    },
    {
      "anonymous": false,
      "inputs": [
        {
          "indexed": false,
          "internalType": "address",
          "name": "seller",
          "type": "address"
        },
        {
          "indexed": false,
          "internalType": "address payable",
          "name": "receiver",
          "type": "address"
        },
        {
          "indexed": false,
          "internalType": "address",
          "name": "oTokenAddress",
          "type": "address"
        },
        {
          "indexed": false,
          "internalType": "address",
          "name": "payoutTokenAddress",
          "type": "address"
        },
        {
          "indexed": false,
          "internalType": "uint256",
          "name": "oTokensToSell",
          "type": "uint256"
        }
      ],
      "name": "SellOTokens",
      "type": "event"
    },
    {
      "inputs": [],
      "name": "UNISWAP_FACTORY",
      "outputs": [
        {
          "internalType": "contract UniswapFactoryInterface",
          "name": "",
          "type": "address"
        }
      ],
      "stateMutability": "view",
      "type": "function"
    },
    {
      "stateMutability": "payable",
      "type": "receive"
    },
    {
      "inputs": [
        {
          "internalType": "address payable",
          "name": "receiver",
          "type": "address"
        },
        {
          "internalType": "address",
          "name": "oTokenAddress",
          "type": "address"
        },
        {
          "internalType": "address",
          "name": "payoutTokenAddress",
          "type": "address"
        },
        {
          "internalType": "uint256",
          "name": "oTokensToSell",
          "type": "uint256"
        }
      ],
      "name": "sellOTokens",
      "outputs": [],
      "stateMutability": "nonpayable",
      "type": "function"
    },
    {
      "inputs": [
        {
          "internalType": "address payable",
          "name": "receiver",
          "type": "address"
        },
        {
          "internalType": "address",
          "name": "oTokenAddress",
          "type": "address"
        },
        {
          "internalType": "address",
          "name": "paymentTokenAddress",
          "type": "address"
        },
        {
          "internalType": "uint256",
          "name": "oTokensToBuy",
          "type": "uint256"
        }
      ],
      "name": "buyOTokens",
      "outputs": [],
      "stateMutability": "payable",
      "type": "function"
    },
    {
      "inputs": [
        {
          "internalType": "address",
          "name": "oTokenAddress",
          "type": "address"
        },
        {
          "internalType": "address",
          "name": "payoutTokenAddress",
          "type": "address"
        },
        {
          "internalType": "uint256",
          "name": "oTokensToSell",
          "type": "uint256"
        }
      ],
      "name": "premiumReceived",
      "outputs": [
        {
          "internalType": "uint256",
          "name": "",
          "type": "uint256"
        }
      ],
      "stateMutability": "view",
      "type": "function"
    },
    {
      "inputs": [
        {
          "internalType": "address",
          "name": "oTokenAddress",
          "type": "address"
        },
        {
          "internalType": "address",
          "name": "paymentTokenAddress",
          "type": "address"
        },
        {
          "internalType": "uint256",
          "name": "oTokensToBuy",
          "type": "uint256"
        }
      ],
      "name": "premiumToPay",
      "outputs": [
        {
          "internalType": "uint256",
          "name": "",
          "type": "uint256"
        }
      ],
      "stateMutability": "view",
      "type": "function"
    },
    {
      "inputs": [
        {
          "internalType": "contract IERC20",
          "name": "paymentToken",
          "type": "address"
        },
        {
          "internalType": "contract IERC20",
          "name": "oToken",
          "type": "address"
        },
        {
          "internalType": "uint256",
          "name": "_amt",
          "type": "uint256"
        },
        {
          "internalType": "address payable",
          "name": "_transferTo",
          "type": "address"
        }
      ],
      "name": "uniswapBuyOToken",
      "outputs": [
        {
          "internalType": "uint256",
          "name": "",
          "type": "uint256"
        }
      ],
      "stateMutability": "nonpayable",
      "type": "function"
    }
  ],
  "bytecode": "0x608060405234801561001057600080fd5b50604051610f24380380610f248339818101604052602081101561003357600080fd5b505160008054600160a060020a03909216600160a060020a0319909216919091179055610ebf806100656000396000f3fe60806040526004361061005c5760e060020a60003504633ed9c97881146100685780637dafae59146100bd57806390a21dbf14610108578063bec165e714610144578063c74c0fac14610187578063ec769d88146101b857610063565b3661006357005b600080fd5b34801561007457600080fd5b506100ab6004803603606081101561008b57600080fd5b50600160a060020a03813581169160208101359091169060400135610201565b60408051918252519081900360200190f35b3480156100c957600080fd5b50610106600480360360808110156100e057600080fd5b50600160a060020a03813581169160208101358216916040820135169060600135610329565b005b6101066004803603608081101561011e57600080fd5b50600160a060020a03813581169160208101358216916040820135169060600135610435565b34801561015057600080fd5b506100ab6004803603606081101561016757600080fd5b50600160a060020a0381358116916020810135909116906040013561044c565b34801561019357600080fd5b5061019c610532565b60408051600160a060020a039092168252519081900360200190f35b3480156101c457600080fd5b506100ab600480360360808110156101db57600080fd5b50600160a060020a03813581169160208101358216916040820135916060013516610541565b60008061020d85610a77565b9050600081600160a060020a03166395b68fe7856040518263ffffffff1660e060020a0281526004018082815260200191505060206040518083038186803b15801561025857600080fd5b505afa15801561026c573d6000803e3d6000fd5b505050506040513d602081101561028257600080fd5b5051905061028f85610b8a565b61031e57600061029e86610a77565b905080600160a060020a031663cd7724c3836040518263ffffffff1660e060020a0281526004018082815260200191505060206040518083038186803b1580156102e757600080fd5b505afa1580156102fb573d6000803e3d6000fd5b505050506040513d602081101561031157600080fd5b5051935061032292505050565b9150505b9392505050565b604080517f23b872dd00000000000000000000000000000000000000000000000000000000815233600482015230602482015260448101839052905184918491600160a060020a038416916323b872dd9160648083019260209291908290030181600087803b15801561039b57600080fd5b505af11580156103af573d6000803e3d6000fd5b505050506040513d60208110156103c557600080fd5b506103d4905082828589610b97565b5060408051338152600160a060020a03808916602083015280881682840152861660608201526080810185905290517ff29f636414f62b4b87cfb45fcde8a79ee9385ac45f0351d9a5dbfb8ec174ba239181900360a00190a1505050505050565b828261044381838589610541565b50505050505050565b60008061045885610a77565b9050600081600160a060020a03166359e94862856040518263ffffffff1660e060020a0281526004018082815260200191505060206040518083038186803b1580156104a357600080fd5b505afa1580156104b7573d6000803e3d6000fd5b505050506040513d60208110156104cd57600080fd5b505190506104da85610b8a565b61031e5760006104e986610a77565b905080600160a060020a0316632640f62c836040518263ffffffff1660e060020a0281526004018082815260200191505060206040518083038186803b1580156102e757600080fd5b600054600160a060020a031681565b600061054c84610b8a565b156105b857604080517f08c379a000000000000000000000000000000000000000000000000000000000815260206004820152601460248201527f43616e206f6e6c7920627579206f546f6b656e73000000000000000000000000604482015290519081900360640190fd5b6105c185610b8a565b6108445760006105d086610a77565b905060006105df86888761044c565b604080517f23b872dd000000000000000000000000000000000000000000000000000000008152336004820152306024820152604481018390529051919250600160a060020a038916916323b872dd916064808201926020929091908290030181600087803b15801561065157600080fd5b505af1158015610665573d6000803e3d6000fd5b505050506040513d602081101561067b57600080fd5b5050604080517f095ea7b3000000000000000000000000000000000000000000000000000000008152600160a060020a0384811660048301526c0c9f2c9cd04674edea40000000602483015291519189169163095ea7b3916044808201926020929091908290030181600087803b1580156106f557600080fd5b505af1158015610709573d6000803e3d6000fd5b505050506040513d602081101561071f57600080fd5b505060408051338152600160a060020a03808716602083015280891682840152891660608201526080810187905260a0810183905290517f12afd2904be5509dbc82f87a13cc9703686d0c11e2680354fcf908b18eaaddd79181900360c00190a1604080517ff552d91b000000000000000000000000000000000000000000000000000000008152600481018390526001602482018190526044820152650180942894286064820152600160a060020a03868116608483015288811660a483015291519184169163f552d91b9160c4808201926020929091908290030181600087803b15801561080e57600080fd5b505af1158015610822573d6000803e3d6000fd5b505050506040513d602081101561083857600080fd5b50519250610a6f915050565b60008054604080517f06f2bf62000000000000000000000000000000000000000000000000000000008152600160a060020a038881166004830152915191909216916306f2bf62916024808301926020929190829003018186803b1580156108ab57600080fd5b505afa1580156108bf573d6000803e3d6000fd5b505050506040513d60208110156108d557600080fd5b5051604080517f59e94862000000000000000000000000000000000000000000000000000000008152600481018790529051919250600091600160a060020a038416916359e94862916024808301926020929190829003018186803b15801561093d57600080fd5b505afa158015610951573d6000803e3d6000fd5b505050506040513d602081101561096757600080fd5b505160408051338152600160a060020a038088166020830152808a16828401528a1660608201526080810188905260a0810183905290519192507f12afd2904be5509dbc82f87a13cc9703686d0c11e2680354fcf908b18eaaddd7919081900360c00190a1604080517f0b57363800000000000000000000000000000000000000000000000000000000815260048101879052650180942894286024820152600160a060020a038681166044830152915191841691630b573638918491606480830192602092919082900301818588803b158015610a4457600080fd5b505af1158015610a58573d6000803e3d6000fd5b50505050506040513d602081101561083857600080fd5b949350505050565b60008054604080517f06f2bf62000000000000000000000000000000000000000000000000000000008152600160a060020a0385811660048301529151849392909216916306f2bf6291602480820192602092909190829003018186803b158015610ae157600080fd5b505afa158015610af5573d6000803e3d6000fd5b505050506040513d6020811015610b0b57600080fd5b50519050600160a060020a038116610b8457604080517f08c379a000000000000000000000000000000000000000000000000000000000815260206004820152601260248201527f4e6f207061796f75742065786368616e67650000000000000000000000000000604482015290519081900360640190fd5b92915050565b600160a060020a03161590565b6000610ba285610b8a565b15610c0e57604080517f08c379a000000000000000000000000000000000000000000000000000000000815260206004820152601560248201527f43616e206f6e6c792073656c6c206f546f6b656e730000000000000000000000604482015290519081900360640190fd5b6000610c1986610a77565b9050610c2485610b8a565b15610d6c5785600160a060020a031663095ea7b382866040518363ffffffff1660e060020a0281526004018083600160a060020a0316600160a060020a0316815260200182815260200192505050602060405180830381600087803b158015610c8c57600080fd5b505af1158015610ca0573d6000803e3d6000fd5b505050506040513d6020811015610cb657600080fd5b5050604080517f7237e0310000000000000000000000000000000000000000000000000000000081526004810186905260016024820152650180942894286044820152600160a060020a038581166064830152915191831691637237e031916084808201926020929091908290030181600087803b158015610d3757600080fd5b505af1158015610d4b573d6000803e3d6000fd5b505050506040513d6020811015610d6157600080fd5b50519150610a6f9050565b85600160a060020a031663095ea7b382866040518363ffffffff1660e060020a0281526004018083600160a060020a0316600160a060020a0316815260200182815260200192505050602060405180830381600087803b158015610dcf57600080fd5b505af1158015610de3573d6000803e3d6000fd5b505050506040513d6020811015610df957600080fd5b5050604080517ff552d91b000000000000000000000000000000000000000000000000000000008152600481018690526001602482018190526044820152650180942894286064820152600160a060020a03858116608483015287811660a483015291519183169163f552d91b9160c4808201926020929091908290030181600087803b158015610d3757600080fdfea26469706673582212209a7723edf070fce67fbced29dcfabdc2832cb778ea59f551dbb37926fa8529d964736f6c63430006000033",
  "source": "// pragma solidity 0.5.10;\npragma solidity >=0.4.22 <0.7.0;\n\nimport \"./lib/CompoundOracleInterface.sol\";\nimport \"./OptionsUtils.sol\";\nimport \"./lib/UniswapFactoryInterface.sol\";\nimport \"./lib/UniswapExchangeInterface.sol\";\nimport \"../ERC20/IERC20.sol\";\n\ncontract OptionsExchange {\n    uint256 constant LARGE_BLOCK_SIZE = 1651753129000;\n    uint256 constant LARGE_APPROVAL_NUMBER = 10**30;\n\n    UniswapFactoryInterface public UNISWAP_FACTORY;\n\n    constructor(address _uniswapFactory) public {\n        UNISWAP_FACTORY = UniswapFactoryInterface(_uniswapFactory);\n    }\n\n    /*** Events ***/\n    event SellOTokens(\n        address seller,\n        address payable receiver,\n        address oTokenAddress,\n        address payoutTokenAddress,\n        uint256 oTokensToSell\n    );\n    event BuyOTokens(\n        address buyer,\n        address payable receiver,\n        address oTokenAddress,\n        address paymentTokenAddress,\n        uint256 oTokensToBuy,\n        uint256 premiumPaid\n    );\n\n    /**\n    * @notice This function sells oTokens on Uniswap and sends back payoutTokens to the receiver\n    * @param receiver The address to send the payout tokens back to\n    * @param oTokenAddress The address of the oToken to sell\n    * @param payoutTokenAddress The address of the token to receive the premiums in\n    * @param oTokensToSell The number of oTokens to sell\n    */\n    function sellOTokens(\n        address payable receiver,\n        address oTokenAddress,\n        address payoutTokenAddress,\n        uint256 oTokensToSell\n    ) public {\n        // @note: first need to bootstrap the uniswap exchange to get the address.\n        IERC20 oToken = IERC20(oTokenAddress);\n        IERC20 payoutToken = IERC20(payoutTokenAddress);\n        oToken.transferFrom(msg.sender, address(this), oTokensToSell);\n        uniswapSellOToken(oToken, payoutToken, oTokensToSell, receiver);\n\n        emit SellOTokens(\n            msg.sender,\n            receiver,\n            oTokenAddress,\n            payoutTokenAddress,\n            oTokensToSell\n        );\n    }\n\n    /**\n    * @notice This function buys oTokens on Uniswap and using paymentTokens from the receiver\n    * @param receiver The address to send the oTokens back to\n    * @param oTokenAddress The address of the oToken to buy\n    * @param paymentTokenAddress The address of the token to pay the premiums in\n    * @param oTokensToBuy The number of oTokens to buy\n    */\n    function buyOTokens(\n        address payable receiver,\n        address oTokenAddress,\n        address paymentTokenAddress,\n        uint256 oTokensToBuy\n    ) public payable {\n        IERC20 oToken = IERC20(oTokenAddress);\n        IERC20 paymentToken = IERC20(paymentTokenAddress);\n        uniswapBuyOToken(paymentToken, oToken, oTokensToBuy, receiver);\n    }\n\n    /**\n    * @notice This function calculates the amount of premiums that the seller\n    * will receive if they sold oTokens on Uniswap\n    * @param oTokenAddress The address of the oToken to sell\n    * @param payoutTokenAddress The address of the token to receive the premiums in\n    * @param oTokensToSell The number of oTokens to sell\n    */\n    function premiumReceived(\n        address oTokenAddress,\n        address payoutTokenAddress,\n        uint256 oTokensToSell\n    ) public view returns (uint256) {\n        // get the amount of ETH that will be paid out if oTokensToSell is sold.\n        UniswapExchangeInterface oTokenExchange = getExchange(oTokenAddress);\n        uint256 ethReceived = oTokenExchange.getTokenToEthInputPrice(\n            oTokensToSell\n        );\n\n        if (!isETH(IERC20(payoutTokenAddress))) {\n            // get the amount of payout tokens that will be received if the ethRecieved is sold.\n            UniswapExchangeInterface payoutExchange = getExchange(\n                payoutTokenAddress\n            );\n            return payoutExchange.getEthToTokenInputPrice(ethReceived);\n        }\n        return ethReceived;\n\n    }\n\n    /**\n    * @notice This function calculates the premiums to be paid if a buyer wants to\n    * buy oTokens on Uniswap\n    * @param oTokenAddress The address of the oToken to buy\n    * @param paymentTokenAddress The address of the token to pay the premiums in\n    * @param oTokensToBuy The number of oTokens to buy\n    */\n    function premiumToPay(\n        address oTokenAddress,\n        address paymentTokenAddress,\n        uint256 oTokensToBuy\n    ) public view returns (uint256) {\n        // get the amount of ETH that needs to be paid for oTokensToBuy.\n        UniswapExchangeInterface oTokenExchange = getExchange(oTokenAddress);\n        uint256 ethToPay = oTokenExchange.getEthToTokenOutputPrice(\n            oTokensToBuy\n        );\n\n        if (!isETH(IERC20(paymentTokenAddress))) {\n            // get the amount of paymentTokens that needs to be paid to get the desired ethToPay.\n            UniswapExchangeInterface paymentTokenExchange = getExchange(\n                paymentTokenAddress\n            );\n            return paymentTokenExchange.getTokenToEthOutputPrice(ethToPay);\n        }\n\n        return ethToPay;\n    }\n\n    function uniswapSellOToken(\n        IERC20 oToken,\n        IERC20 payoutToken,\n        uint256 _amt,\n        address payable _transferTo\n    ) internal returns (uint256) {\n        require(!isETH(oToken), \"Can only sell oTokens\");\n        UniswapExchangeInterface exchange = getExchange(address(oToken));\n\n        if (isETH(payoutToken)) {\n            //Token to ETH\n            oToken.approve(address(exchange), _amt);\n            return\n                exchange.tokenToEthTransferInput(\n                    _amt,\n                    1,\n                    LARGE_BLOCK_SIZE,\n                    _transferTo\n                );\n        } else {\n            //Token to Token\n            oToken.approve(address(exchange), _amt);\n            return\n                exchange.tokenToTokenTransferInput(\n                    _amt,\n                    1,\n                    1,\n                    LARGE_BLOCK_SIZE,\n                    _transferTo,\n                    address(payoutToken)\n                );\n        }\n    }\n\n    function uniswapBuyOToken(\n        IERC20 paymentToken,\n        IERC20 oToken,\n        uint256 _amt,\n        address payable _transferTo\n    ) public returns (uint256) {\n        require(!isETH(oToken), \"Can only buy oTokens\");\n\n        if (!isETH(paymentToken)) {\n            UniswapExchangeInterface exchange = getExchange(\n                address(paymentToken)\n            );\n\n            uint256 paymentTokensToTransfer = premiumToPay(\n                address(oToken),\n                address(paymentToken),\n                _amt\n            );\n            paymentToken.transferFrom(\n                msg.sender,\n                address(this),\n                paymentTokensToTransfer\n            );\n\n            // Token to Token\n            paymentToken.approve(address(exchange), LARGE_APPROVAL_NUMBER);\n\n            emit BuyOTokens(\n                msg.sender,\n                _transferTo,\n                address(oToken),\n                address(paymentToken),\n                _amt,\n                paymentTokensToTransfer\n            );\n\n            return\n                exchange.tokenToTokenTransferInput(\n                    paymentTokensToTransfer,\n                    1,\n                    1,\n                    LARGE_BLOCK_SIZE,\n                    _transferTo,\n                    address(oToken)\n                );\n        } else {\n            // ETH to Token\n            UniswapExchangeInterface exchange = UniswapExchangeInterface(\n                UNISWAP_FACTORY.getExchange(address(oToken))\n            );\n\n            uint256 ethToTransfer = exchange.getEthToTokenOutputPrice(_amt);\n\n            emit BuyOTokens(\n                msg.sender,\n                _transferTo,\n                address(oToken),\n                address(paymentToken),\n                _amt,\n                ethToTransfer\n            );\n\n            return\n                exchange.ethToTokenTransferOutput.value(ethToTransfer)(\n                    _amt,\n                    LARGE_BLOCK_SIZE,\n                    _transferTo\n                );\n        }\n    }\n\n    function getExchange(address _token)\n        internal\n        view\n        returns (UniswapExchangeInterface)\n    {\n        UniswapExchangeInterface exchange = UniswapExchangeInterface(\n            UNISWAP_FACTORY.getExchange(_token)\n        );\n\n        if (address(exchange) == address(0)) {\n            revert(\"No payout exchange\");\n        }\n\n        return exchange;\n    }\n\n    function isETH(IERC20 _ierc20) internal pure returns (bool) {\n        return _ierc20 == IERC20(0);\n    }\n\n    receive() external payable {\n        // to get ether from uniswap exchanges\n    }\n\n}\n",
  "sourcePath": "/Users/jenil/Desktop/code/hip/contracts/opyn/OptionsExchange.sol",
  "compiler": {
    "name": "solc",
    "version": "0.6.0+commit.26b70077.Emscripten.clang"
  },
  "schemaVersion": "3.1.0",
  "updatedAt": "2020-05-22T17:04:41.519Z",
  "devdoc": {
    "methods": {
      "buyOTokens(address,address,address,uint256)": {
        "params": {
          "oTokenAddress": "The address of the oToken to buy",
          "oTokensToBuy": "The number of oTokens to buy",
          "paymentTokenAddress": "The address of the token to pay the premiums in",
          "receiver": "The address to send the oTokens back to"
        }
      },
      "premiumReceived(address,address,uint256)": {
        "params": {
          "oTokenAddress": "The address of the oToken to sell",
          "oTokensToSell": "The number of oTokens to sell",
          "payoutTokenAddress": "The address of the token to receive the premiums in"
        }
      },
      "premiumToPay(address,address,uint256)": {
        "params": {
          "oTokenAddress": "The address of the oToken to buy",
          "oTokensToBuy": "The number of oTokens to buy",
          "paymentTokenAddress": "The address of the token to pay the premiums in"
        }
      },
      "sellOTokens(address,address,address,uint256)": {
        "params": {
          "oTokenAddress": "The address of the oToken to sell",
          "oTokensToSell": "The number of oTokens to sell",
          "payoutTokenAddress": "The address of the token to receive the premiums in",
          "receiver": "The address to send the payout tokens back to"
        }
      }
    }
  },
  "userdoc": {
    "methods": {
      "buyOTokens(address,address,address,uint256)": {
        "notice": "This function buys oTokens on Uniswap and using paymentTokens from the receiver"
      },
      "premiumReceived(address,address,uint256)": {
        "notice": "This function calculates the amount of premiums that the seller will receive if they sold oTokens on Uniswap"
      },
      "premiumToPay(address,address,uint256)": {
        "notice": "This function calculates the premiums to be paid if a buyer wants to buy oTokens on Uniswap"
      },
      "sellOTokens(address,address,address,uint256)": {
        "notice": "This function sells oTokens on Uniswap and sends back payoutTokens to the receiver"
      }
    }
  }
}