{
  "contractName": "Opyn",
  "abi": [
    {
      "inputs": [
        {
          "internalType": "address",
          "name": "_optionsContract",
          "type": "address"
        }
      ],
      "name": "createERC20Option",
      "outputs": [],
      "stateMutability": "payable",
      "type": "function"
    },
    {
      "inputs": [],
      "name": "createOptionsContract",
      "outputs": [],
      "stateMutability": "nonpayable",
      "type": "function"
    }
  ],
  "bytecode": "0x608060405234801561001057600080fd5b5061037b806100206000396000f3fe608060405260043610610045577c010000000000000000000000000000000000000000000000000000000060003504632f4a4b49811461004a5780634cb6f5591461007f575b600080fd5b61007d6004803603602081101561006057600080fd5b503573ffffffffffffffffffffffffffffffffffffffff16610094565b005b34801561008b57600080fd5b5061007d6101e6565b600081905060008173ffffffffffffffffffffffffffffffffffffffff1663686c1e21670de0b6b3a76400006040518263ffffffff167c01000000000000000000000000000000000000000000000000000000000281526004018082815260200191505060206040518083038186803b15801561011057600080fd5b505afa158015610124573d6000803e3d6000fd5b505050506040513d602081101561013a57600080fd5b5051604080517fed1f41c300000000000000000000000000000000000000000000000000000000815260c860a0840204600482018190523060248301529151929350909173ffffffffffffffffffffffffffffffffffffffff85169163ed1f41c391670de0b6b3a76400009160448082019260009290919082900301818588803b1580156101c757600080fd5b505af11580156101db573d6000803e3d6000fd5b505050505050505050565b604080517fa1b72d8a00000000000000000000000000000000000000000000000000000000815260091960248201819052601119606483018190526084830152600160a483015260c4820152635dd851d8610104820152635dd851c86101248201526101406004820152600361014482018190527f45544800000000000000000000000000000000000000000000000000000000006101648301819052610180604484015261018483018290527f44414900000000000000000000000000000000000000000000000000000000006101a48401526101c060e48401526101c48301919091526101e4820152905173d9ea7193b33297e9cb86389cd0ec078fd5777af191600091839163a1b72d8a9161020480830192602092919082900301818787803b15801561031557600080fd5b505af1158015610329573d6000803e3d6000fd5b505050506040513d602081101561033f57600080fd5b5050505056fea2646970667358221220abea884f9b5448bb8162976fb664fe22cabb45e9d7e6df35dd943ac3036a43e764736f6c63430006000033",
  "source": "pragma solidity >=0.4.22 <0.7.0;\n\nimport './opyn/oToken.sol';\nimport './opyn/OptionsFactory.sol';\nimport './opyn/OptionsContract.sol';\n\ncontract Opyn {\n\n    // Specify the amount of ETH collateral you want to put down in wei\n    uint256 constant collateral = 1000000000000000000;\n    // Assuming you want to be 200% collateralized\n    uint256 constant collateralizationRatio = 200;\n\n    function createERC20Option(address _optionsContract) public payable {\n        oToken ocDai = oToken(_optionsContract);\n    \n        // This function tells you the maximum number of options you can safely issue at the minimum collateralization ratio (currently 160%)/ \n        // Note: It is reccomended that you create less than this amount of options. \n        uint256 maxNumOptions = ocDai.maxOTokensIssuable(collateral);\n        uint256 numOptions = maxNumOptions * 160 / collateralizationRatio;\n\n        // This contract creates and receives 200% collateralized options against 1 ETH as collateral\n        ocDai.createETHCollateralOption.value(collateral)(numOptions, address(this));\n    }\n    \n    function createOptionsContract() public {\n        OptionsFactory factory = OptionsFactory(0xd9ea7193B33297E9cb86389cD0ec078fd5777aF1); \n        address optionContract = factory.createOptionsContract(\n                                \"ETH\",\n                                -10,\n                                \"DAI\",\n                                -18,\n                                -18,\n                                1,\n                                -10, \n                                \"ETH\",  \n                                1574457816,\n                                1574457800 \n                                );\n    \n    }\n}",
  "sourcePath": "/Users/jenil/Desktop/code/hip/contracts/Opyn.sol",
  "compiler": {
    "name": "solc",
    "version": "0.6.0+commit.26b70077.Emscripten.clang"
  },
  "schemaVersion": "3.1.0",
  "updatedAt": "2020-05-22T18:19:27.709Z",
  "devdoc": {
    "methods": {}
  },
  "userdoc": {
    "methods": {}
  }
}