{
  "contractName": "oToken",
  "abi": [
    {
      "inputs": [
        {
          "internalType": "contract IERC20",
          "name": "_collateral",
          "type": "address"
        },
        {
          "internalType": "int32",
          "name": "_collExp",
          "type": "int32"
        },
        {
          "internalType": "contract IERC20",
          "name": "_underlying",
          "type": "address"
        },
        {
          "internalType": "int32",
          "name": "_underlyingExp",
          "type": "int32"
        },
        {
          "internalType": "int32",
          "name": "_oTokenExchangeExp",
          "type": "int32"
        },
        {
          "internalType": "uint256",
          "name": "_strikePrice",
          "type": "uint256"
        },
        {
          "internalType": "int32",
          "name": "_strikeExp",
          "type": "int32"
        },
        {
          "internalType": "contract IERC20",
          "name": "_strike",
          "type": "address"
        },
        {
          "internalType": "uint256",
          "name": "_expiry",
          "type": "uint256"
        },
        {
          "internalType": "contract OptionsExchange",
          "name": "_optionsExchange",
          "type": "address"
        },
        {
          "internalType": "address",
          "name": "_oracleAddress",
          "type": "address"
        },
        {
          "internalType": "uint256",
          "name": "_windowSize",
          "type": "uint256"
        }
      ],
      "stateMutability": "nonpayable",
      "type": "constructor"
    },
    {
      "anonymous": false,
      "inputs": [
        {
          "indexed": true,
          "internalType": "address",
          "name": "owner",
          "type": "address"
        },
        {
          "indexed": true,
          "internalType": "address",
          "name": "spender",
          "type": "address"
        },
        {
          "indexed": false,
          "internalType": "uint256",
          "name": "value",
          "type": "uint256"
        }
      ],
      "name": "Approval",
      "type": "event"
    },
    {
      "anonymous": false,
      "inputs": [
        {
          "indexed": false,
          "internalType": "address payable",
          "name": "vaultOwner",
          "type": "address"
        },
        {
          "indexed": false,
          "internalType": "uint256",
          "name": "oTokensBurned",
          "type": "uint256"
        }
      ],
      "name": "BurnOTokens",
      "type": "event"
    },
    {
      "anonymous": false,
      "inputs": [
        {
          "indexed": false,
          "internalType": "address payable",
          "name": "vaultOwner",
          "type": "address"
        },
        {
          "indexed": false,
          "internalType": "uint256",
          "name": "amount",
          "type": "uint256"
        },
        {
          "indexed": false,
          "internalType": "address",
          "name": "payer",
          "type": "address"
        }
      ],
      "name": "ERC20CollateralAdded",
      "type": "event"
    },
    {
      "anonymous": false,
      "inputs": [
        {
          "indexed": false,
          "internalType": "address payable",
          "name": "vaultOwner",
          "type": "address"
        },
        {
          "indexed": false,
          "internalType": "uint256",
          "name": "amount",
          "type": "uint256"
        },
        {
          "indexed": false,
          "internalType": "address",
          "name": "payer",
          "type": "address"
        }
      ],
      "name": "ETHCollateralAdded",
      "type": "event"
    },
    {
      "anonymous": false,
      "inputs": [
        {
          "indexed": false,
          "internalType": "uint256",
          "name": "amtUnderlyingToPay",
          "type": "uint256"
        },
        {
          "indexed": false,
          "internalType": "uint256",
          "name": "amtCollateralToPay",
          "type": "uint256"
        },
        {
          "indexed": false,
          "internalType": "address payable",
          "name": "exerciser",
          "type": "address"
        },
        {
          "indexed": false,
          "internalType": "address payable",
          "name": "vaultExercisedFrom",
          "type": "address"
        }
      ],
      "name": "Exercise",
      "type": "event"
    },
    {
      "anonymous": false,
      "inputs": [
        {
          "indexed": false,
          "internalType": "address",
          "name": "issuedTo",
          "type": "address"
        },
        {
          "indexed": false,
          "internalType": "uint256",
          "name": "oTokensIssued",
          "type": "uint256"
        },
        {
          "indexed": false,
          "internalType": "address payable",
          "name": "vaultOwner",
          "type": "address"
        }
      ],
      "name": "IssuedOTokens",
      "type": "event"
    },
    {
      "anonymous": false,
      "inputs": [
        {
          "indexed": false,
          "internalType": "uint256",
          "name": "amtCollateralToPay",
          "type": "uint256"
        },
        {
          "indexed": false,
          "internalType": "address payable",
          "name": "vaultOwner",
          "type": "address"
        },
        {
          "indexed": false,
          "internalType": "address payable",
          "name": "liquidator",
          "type": "address"
        }
      ],
      "name": "Liquidate",
      "type": "event"
    },
    {
      "anonymous": false,
      "inputs": [
        {
          "indexed": true,
          "internalType": "address",
          "name": "previousOwner",
          "type": "address"
        },
        {
          "indexed": true,
          "internalType": "address",
          "name": "newOwner",
          "type": "address"
        }
      ],
      "name": "OwnershipTransferred",
      "type": "event"
    },
    {
      "anonymous": false,
      "inputs": [
        {
          "indexed": false,
          "internalType": "uint256",
          "name": "amtCollateralRedeemed",
          "type": "uint256"
        },
        {
          "indexed": false,
          "internalType": "uint256",
          "name": "amtUnderlyingRedeemed",
          "type": "uint256"
        },
        {
          "indexed": false,
          "internalType": "address payable",
          "name": "vaultOwner",
          "type": "address"
        }
      ],
      "name": "RedeemVaultBalance",
      "type": "event"
    },
    {
      "anonymous": false,
      "inputs": [
        {
          "indexed": false,
          "internalType": "uint256",
          "name": "amtRemoved",
          "type": "uint256"
        },
        {
          "indexed": false,
          "internalType": "address payable",
          "name": "vaultOwner",
          "type": "address"
        }
      ],
      "name": "RemoveCollateral",
      "type": "event"
    },
    {
      "anonymous": false,
      "inputs": [
        {
          "indexed": false,
          "internalType": "uint256",
          "name": "amountUnderlying",
          "type": "uint256"
        },
        {
          "indexed": false,
          "internalType": "address payable",
          "name": "vaultOwner",
          "type": "address"
        }
      ],
      "name": "RemoveUnderlying",
      "type": "event"
    },
    {
      "anonymous": false,
      "inputs": [
        {
          "indexed": true,
          "internalType": "address",
          "name": "from",
          "type": "address"
        },
        {
          "indexed": true,
          "internalType": "address",
          "name": "to",
          "type": "address"
        },
        {
          "indexed": false,
          "internalType": "uint256",
          "name": "value",
          "type": "uint256"
        }
      ],
      "name": "Transfer",
      "type": "event"
    },
    {
      "anonymous": false,
      "inputs": [
        {
          "indexed": false,
          "internalType": "address payable",
          "name": "to",
          "type": "address"
        },
        {
          "indexed": false,
          "internalType": "uint256",
          "name": "fees",
          "type": "uint256"
        }
      ],
      "name": "TransferFee",
      "type": "event"
    },
    {
      "anonymous": false,
      "inputs": [
        {
          "indexed": false,
          "internalType": "uint256",
          "name": "liquidationIncentive",
          "type": "uint256"
        },
        {
          "indexed": false,
          "internalType": "uint256",
          "name": "liquidationFactor",
          "type": "uint256"
        },
        {
          "indexed": false,
          "internalType": "uint256",
          "name": "transactionFee",
          "type": "uint256"
        },
        {
          "indexed": false,
          "internalType": "uint256",
          "name": "minCollateralizationRatio",
          "type": "uint256"
        },
        {
          "indexed": false,
          "internalType": "address",
          "name": "owner",
          "type": "address"
        }
      ],
      "name": "UpdateParameters",
      "type": "event"
    },
    {
      "anonymous": false,
      "inputs": [
        {
          "indexed": false,
          "internalType": "address payable",
          "name": "vaultOwner",
          "type": "address"
        }
      ],
      "name": "VaultOpened",
      "type": "event"
    },
    {
      "inputs": [],
      "name": "COMPOUND_ORACLE",
      "outputs": [
        {
          "internalType": "contract CompoundOracleInterface",
          "name": "",
          "type": "address"
        }
      ],
      "stateMutability": "view",
      "type": "function"
    },
    {
      "inputs": [
        {
          "internalType": "address payable",
          "name": "vaultOwner",
          "type": "address"
        },
        {
          "internalType": "uint256",
          "name": "amt",
          "type": "uint256"
        }
      ],
      "name": "addERC20Collateral",
      "outputs": [
        {
          "internalType": "uint256",
          "name": "",
          "type": "uint256"
        }
      ],
      "stateMutability": "nonpayable",
      "type": "function"
    },
    {
      "inputs": [
        {
          "internalType": "address payable",
          "name": "vaultOwner",
          "type": "address"
        }
      ],
      "name": "addETHCollateral",
      "outputs": [
        {
          "internalType": "uint256",
          "name": "",
          "type": "uint256"
        }
      ],
      "stateMutability": "payable",
      "type": "function"
    },
    {
      "inputs": [
        {
          "internalType": "address",
          "name": "owner",
          "type": "address"
        },
        {
          "internalType": "address",
          "name": "spender",
          "type": "address"
        }
      ],
      "name": "allowance",
      "outputs": [
        {
          "internalType": "uint256",
          "name": "",
          "type": "uint256"
        }
      ],
      "stateMutability": "view",
      "type": "function"
    },
    {
      "inputs": [
        {
          "internalType": "address",
          "name": "spender",
          "type": "address"
        },
        {
          "internalType": "uint256",
          "name": "value",
          "type": "uint256"
        }
      ],
      "name": "approve",
      "outputs": [
        {
          "internalType": "bool",
          "name": "",
          "type": "bool"
        }
      ],
      "stateMutability": "nonpayable",
      "type": "function"
    },
    {
      "inputs": [
        {
          "internalType": "address",
          "name": "owner",
          "type": "address"
        }
      ],
      "name": "balanceOf",
      "outputs": [
        {
          "internalType": "uint256",
          "name": "",
          "type": "uint256"
        }
      ],
      "stateMutability": "view",
      "type": "function"
    },
    {
      "inputs": [
        {
          "internalType": "uint256",
          "name": "amtToBurn",
          "type": "uint256"
        }
      ],
      "name": "burnOTokens",
      "outputs": [],
      "stateMutability": "nonpayable",
      "type": "function"
    },
    {
      "inputs": [],
      "name": "collateral",
      "outputs": [
        {
          "internalType": "contract IERC20",
          "name": "",
          "type": "address"
        }
      ],
      "stateMutability": "view",
      "type": "function"
    },
    {
      "inputs": [],
      "name": "collateralExp",
      "outputs": [
        {
          "internalType": "int32",
          "name": "",
          "type": "int32"
        }
      ],
      "stateMutability": "view",
      "type": "function"
    },
    {
      "inputs": [],
      "name": "decimals",
      "outputs": [
        {
          "internalType": "uint8",
          "name": "",
          "type": "uint8"
        }
      ],
      "stateMutability": "view",
      "type": "function"
    },
    {
      "inputs": [
        {
          "internalType": "address",
          "name": "spender",
          "type": "address"
        },
        {
          "internalType": "uint256",
          "name": "subtractedValue",
          "type": "uint256"
        }
      ],
      "name": "decreaseAllowance",
      "outputs": [
        {
          "internalType": "bool",
          "name": "",
          "type": "bool"
        }
      ],
      "stateMutability": "nonpayable",
      "type": "function"
    },
    {
      "inputs": [
        {
          "internalType": "uint256",
          "name": "oTokensToExercise",
          "type": "uint256"
        },
        {
          "internalType": "address payable[]",
          "name": "vaultsToExerciseFrom",
          "type": "address[]"
        }
      ],
      "name": "exercise",
      "outputs": [],
      "stateMutability": "payable",
      "type": "function"
    },
    {
      "inputs": [],
      "name": "expiry",
      "outputs": [
        {
          "internalType": "uint256",
          "name": "",
          "type": "uint256"
        }
      ],
      "stateMutability": "view",
      "type": "function"
    },
    {
      "inputs": [
        {
          "internalType": "address payable",
          "name": "vaultOwner",
          "type": "address"
        }
      ],
      "name": "getVault",
      "outputs": [
        {
          "internalType": "uint256",
          "name": "",
          "type": "uint256"
        },
        {
          "internalType": "uint256",
          "name": "",
          "type": "uint256"
        },
        {
          "internalType": "uint256",
          "name": "",
          "type": "uint256"
        },
        {
          "internalType": "bool",
          "name": "",
          "type": "bool"
        }
      ],
      "stateMutability": "view",
      "type": "function"
    },
    {
      "inputs": [],
      "name": "getVaultOwners",
      "outputs": [
        {
          "internalType": "address payable[]",
          "name": "",
          "type": "address[]"
        }
      ],
      "stateMutability": "view",
      "type": "function"
    },
    {
      "inputs": [],
      "name": "hasExpired",
      "outputs": [
        {
          "internalType": "bool",
          "name": "",
          "type": "bool"
        }
      ],
      "stateMutability": "view",
      "type": "function"
    },
    {
      "inputs": [
        {
          "internalType": "address payable",
          "name": "owner",
          "type": "address"
        }
      ],
      "name": "hasVault",
      "outputs": [
        {
          "internalType": "bool",
          "name": "",
          "type": "bool"
        }
      ],
      "stateMutability": "view",
      "type": "function"
    },
    {
      "inputs": [
        {
          "internalType": "address",
          "name": "spender",
          "type": "address"
        },
        {
          "internalType": "uint256",
          "name": "addedValue",
          "type": "uint256"
        }
      ],
      "name": "increaseAllowance",
      "outputs": [
        {
          "internalType": "bool",
          "name": "",
          "type": "bool"
        }
      ],
      "stateMutability": "nonpayable",
      "type": "function"
    },
    {
      "inputs": [
        {
          "internalType": "contract IERC20",
          "name": "_ierc20",
          "type": "address"
        }
      ],
      "name": "isETH",
      "outputs": [
        {
          "internalType": "bool",
          "name": "",
          "type": "bool"
        }
      ],
      "stateMutability": "pure",
      "type": "function"
    },
    {
      "inputs": [],
      "name": "isExerciseWindow",
      "outputs": [
        {
          "internalType": "bool",
          "name": "",
          "type": "bool"
        }
      ],
      "stateMutability": "view",
      "type": "function"
    },
    {
      "inputs": [
        {
          "internalType": "address payable",
          "name": "vaultOwner",
          "type": "address"
        }
      ],
      "name": "isUnsafe",
      "outputs": [
        {
          "internalType": "bool",
          "name": "",
          "type": "bool"
        }
      ],
      "stateMutability": "view",
      "type": "function"
    },
    {
      "inputs": [
        {
          "internalType": "uint256",
          "name": "oTokensToIssue",
          "type": "uint256"
        },
        {
          "internalType": "address",
          "name": "receiver",
          "type": "address"
        }
      ],
      "name": "issueOTokens",
      "outputs": [],
      "stateMutability": "nonpayable",
      "type": "function"
    },
    {
      "inputs": [
        {
          "internalType": "address payable",
          "name": "vaultOwner",
          "type": "address"
        },
        {
          "internalType": "uint256",
          "name": "oTokensToLiquidate",
          "type": "uint256"
        }
      ],
      "name": "liquidate",
      "outputs": [],
      "stateMutability": "nonpayable",
      "type": "function"
    },
    {
      "inputs": [],
      "name": "liquidationFactor",
      "outputs": [
        {
          "internalType": "uint256",
          "name": "value",
          "type": "uint256"
        },
        {
          "internalType": "int32",
          "name": "exponent",
          "type": "int32"
        }
      ],
      "stateMutability": "view",
      "type": "function"
    },
    {
      "inputs": [],
      "name": "liquidationIncentive",
      "outputs": [
        {
          "internalType": "uint256",
          "name": "value",
          "type": "uint256"
        },
        {
          "internalType": "int32",
          "name": "exponent",
          "type": "int32"
        }
      ],
      "stateMutability": "view",
      "type": "function"
    },
    {
      "inputs": [
        {
          "internalType": "uint256",
          "name": "collateralAmt",
          "type": "uint256"
        }
      ],
      "name": "maxOTokensIssuable",
      "outputs": [
        {
          "internalType": "uint256",
          "name": "",
          "type": "uint256"
        }
      ],
      "stateMutability": "view",
      "type": "function"
    },
    {
      "inputs": [
        {
          "internalType": "address payable",
          "name": "vaultOwner",
          "type": "address"
        }
      ],
      "name": "maxOTokensLiquidatable",
      "outputs": [
        {
          "internalType": "uint256",
          "name": "",
          "type": "uint256"
        }
      ],
      "stateMutability": "view",
      "type": "function"
    },
    {
      "inputs": [],
      "name": "minCollateralizationRatio",
      "outputs": [
        {
          "internalType": "uint256",
          "name": "value",
          "type": "uint256"
        },
        {
          "internalType": "int32",
          "name": "exponent",
          "type": "int32"
        }
      ],
      "stateMutability": "view",
      "type": "function"
    },
    {
      "inputs": [],
      "name": "name",
      "outputs": [
        {
          "internalType": "string",
          "name": "",
          "type": "string"
        }
      ],
      "stateMutability": "view",
      "type": "function"
    },
    {
      "inputs": [],
      "name": "oTokenExchangeRate",
      "outputs": [
        {
          "internalType": "uint256",
          "name": "value",
          "type": "uint256"
        },
        {
          "internalType": "int32",
          "name": "exponent",
          "type": "int32"
        }
      ],
      "stateMutability": "view",
      "type": "function"
    },
    {
      "inputs": [],
      "name": "openVault",
      "outputs": [
        {
          "internalType": "bool",
          "name": "",
          "type": "bool"
        }
      ],
      "stateMutability": "nonpayable",
      "type": "function"
    },
    {
      "inputs": [],
      "name": "optionsExchange",
      "outputs": [
        {
          "internalType": "contract OptionsExchange",
          "name": "",
          "type": "address"
        }
      ],
      "stateMutability": "view",
      "type": "function"
    },
    {
      "inputs": [],
      "name": "owner",
      "outputs": [
        {
          "internalType": "address",
          "name": "",
          "type": "address"
        }
      ],
      "stateMutability": "view",
      "type": "function"
    },
    {
      "inputs": [],
      "name": "redeemVaultBalance",
      "outputs": [],
      "stateMutability": "nonpayable",
      "type": "function"
    },
    {
      "inputs": [
        {
          "internalType": "uint256",
          "name": "amtToRemove",
          "type": "uint256"
        }
      ],
      "name": "removeCollateral",
      "outputs": [],
      "stateMutability": "nonpayable",
      "type": "function"
    },
    {
      "inputs": [],
      "name": "removeUnderlying",
      "outputs": [],
      "stateMutability": "nonpayable",
      "type": "function"
    },
    {
      "inputs": [],
      "name": "renounceOwnership",
      "outputs": [],
      "stateMutability": "nonpayable",
      "type": "function"
    },
    {
      "inputs": [
        {
          "internalType": "string",
          "name": "_name",
          "type": "string"
        },
        {
          "internalType": "string",
          "name": "_symbol",
          "type": "string"
        }
      ],
      "name": "setDetails",
      "outputs": [],
      "stateMutability": "nonpayable",
      "type": "function"
    },
    {
      "inputs": [],
      "name": "strike",
      "outputs": [
        {
          "internalType": "contract IERC20",
          "name": "",
          "type": "address"
        }
      ],
      "stateMutability": "view",
      "type": "function"
    },
    {
      "inputs": [],
      "name": "strikePrice",
      "outputs": [
        {
          "internalType": "uint256",
          "name": "value",
          "type": "uint256"
        },
        {
          "internalType": "int32",
          "name": "exponent",
          "type": "int32"
        }
      ],
      "stateMutability": "view",
      "type": "function"
    },
    {
      "inputs": [],
      "name": "symbol",
      "outputs": [
        {
          "internalType": "string",
          "name": "",
          "type": "string"
        }
      ],
      "stateMutability": "view",
      "type": "function"
    },
    {
      "inputs": [],
      "name": "totalSupply",
      "outputs": [
        {
          "internalType": "uint256",
          "name": "",
          "type": "uint256"
        }
      ],
      "stateMutability": "view",
      "type": "function"
    },
    {
      "inputs": [],
      "name": "transactionFee",
      "outputs": [
        {
          "internalType": "uint256",
          "name": "value",
          "type": "uint256"
        },
        {
          "internalType": "int32",
          "name": "exponent",
          "type": "int32"
        }
      ],
      "stateMutability": "view",
      "type": "function"
    },
    {
      "inputs": [
        {
          "internalType": "address",
          "name": "to",
          "type": "address"
        },
        {
          "internalType": "uint256",
          "name": "value",
          "type": "uint256"
        }
      ],
      "name": "transfer",
      "outputs": [
        {
          "internalType": "bool",
          "name": "",
          "type": "bool"
        }
      ],
      "stateMutability": "nonpayable",
      "type": "function"
    },
    {
      "inputs": [
        {
          "internalType": "address payable",
          "name": "_address",
          "type": "address"
        }
      ],
      "name": "transferFee",
      "outputs": [],
      "stateMutability": "nonpayable",
      "type": "function"
    },
    {
      "inputs": [
        {
          "internalType": "address",
          "name": "from",
          "type": "address"
        },
        {
          "internalType": "address",
          "name": "to",
          "type": "address"
        },
        {
          "internalType": "uint256",
          "name": "value",
          "type": "uint256"
        }
      ],
      "name": "transferFrom",
      "outputs": [
        {
          "internalType": "bool",
          "name": "",
          "type": "bool"
        }
      ],
      "stateMutability": "nonpayable",
      "type": "function"
    },
    {
      "inputs": [
        {
          "internalType": "address",
          "name": "newOwner",
          "type": "address"
        }
      ],
      "name": "transferOwnership",
      "outputs": [],
      "stateMutability": "nonpayable",
      "type": "function"
    },
    {
      "inputs": [],
      "name": "underlying",
      "outputs": [
        {
          "internalType": "contract IERC20",
          "name": "",
          "type": "address"
        }
      ],
      "stateMutability": "view",
      "type": "function"
    },
    {
      "inputs": [],
      "name": "underlyingExp",
      "outputs": [
        {
          "internalType": "int32",
          "name": "",
          "type": "int32"
        }
      ],
      "stateMutability": "view",
      "type": "function"
    },
    {
      "inputs": [
        {
          "internalType": "uint256",
          "name": "oTokensToExercise",
          "type": "uint256"
        }
      ],
      "name": "underlyingRequiredToExercise",
      "outputs": [
        {
          "internalType": "uint256",
          "name": "",
          "type": "uint256"
        }
      ],
      "stateMutability": "view",
      "type": "function"
    },
    {
      "inputs": [
        {
          "internalType": "uint256",
          "name": "_liquidationIncentive",
          "type": "uint256"
        },
        {
          "internalType": "uint256",
          "name": "_liquidationFactor",
          "type": "uint256"
        },
        {
          "internalType": "uint256",
          "name": "_transactionFee",
          "type": "uint256"
        },
        {
          "internalType": "uint256",
          "name": "_minCollateralizationRatio",
          "type": "uint256"
        }
      ],
      "name": "updateParameters",
      "outputs": [],
      "stateMutability": "nonpayable",
      "type": "function"
    },
    {
      "inputs": [
        {
          "internalType": "uint256",
          "name": "amtToCreate",
          "type": "uint256"
        },
        {
          "internalType": "address",
          "name": "receiver",
          "type": "address"
        }
      ],
      "name": "createETHCollateralOption",
      "outputs": [],
      "stateMutability": "payable",
      "type": "function"
    },
    {
      "inputs": [
        {
          "internalType": "uint256",
          "name": "amtToCreate",
          "type": "uint256"
        },
        {
          "internalType": "address",
          "name": "receiver",
          "type": "address"
        }
      ],
      "name": "addETHCollateralOption",
      "outputs": [],
      "stateMutability": "payable",
      "type": "function"
    },
    {
      "inputs": [
        {
          "internalType": "uint256",
          "name": "amtToCreate",
          "type": "uint256"
        },
        {
          "internalType": "address payable",
          "name": "receiver",
          "type": "address"
        }
      ],
      "name": "createAndSellETHCollateralOption",
      "outputs": [],
      "stateMutability": "payable",
      "type": "function"
    },
    {
      "inputs": [
        {
          "internalType": "uint256",
          "name": "amtToCreate",
          "type": "uint256"
        },
        {
          "internalType": "address payable",
          "name": "receiver",
          "type": "address"
        }
      ],
      "name": "addAndSellETHCollateralOption",
      "outputs": [],
      "stateMutability": "payable",
      "type": "function"
    },
    {
      "inputs": [
        {
          "internalType": "uint256",
          "name": "amtToCreate",
          "type": "uint256"
        },
        {
          "internalType": "uint256",
          "name": "amtCollateral",
          "type": "uint256"
        },
        {
          "internalType": "address",
          "name": "receiver",
          "type": "address"
        }
      ],
      "name": "createERC20CollateralOption",
      "outputs": [],
      "stateMutability": "nonpayable",
      "type": "function"
    },
    {
      "inputs": [
        {
          "internalType": "uint256",
          "name": "amtToCreate",
          "type": "uint256"
        },
        {
          "internalType": "uint256",
          "name": "amtCollateral",
          "type": "uint256"
        },
        {
          "internalType": "address",
          "name": "receiver",
          "type": "address"
        }
      ],
      "name": "addERC20CollateralOption",
      "outputs": [],
      "stateMutability": "nonpayable",
      "type": "function"
    },
    {
      "inputs": [
        {
          "internalType": "uint256",
          "name": "amtToCreate",
          "type": "uint256"
        },
        {
          "internalType": "uint256",
          "name": "amtCollateral",
          "type": "uint256"
        },
        {
          "internalType": "address payable",
          "name": "receiver",
          "type": "address"
        }
      ],
      "name": "createAndSellERC20CollateralOption",
      "outputs": [],
      "stateMutability": "nonpayable",
      "type": "function"
    },
    {
      "inputs": [
        {
          "internalType": "uint256",
          "name": "amtToCreate",
          "type": "uint256"
        },
        {
          "internalType": "uint256",
          "name": "amtCollateral",
          "type": "uint256"
        },
        {
          "internalType": "address payable",
          "name": "receiver",
          "type": "address"
        }
      ],
      "name": "addAndSellERC20CollateralOption",
      "outputs": [],
      "stateMutability": "nonpayable",
      "type": "function"
    }
  ],
  "bytecode": "0x600a608081905260021960a081905260078290556008805463ffffffff1990811663fffffffd908117909255600060c081905260e08490526009558354811682179093556101f461010081905261012092909252600b91909155600c805483169091179055610180604052601061014081905260001961016052600d55600e805463ffffffff9083161790556016805490911663ffffffee1767ffffffff00000000191667ffffffee00000000179055348015620000bc57600080fd5b50604051620045d7380380620045d78339818101604052610180811015620000e357600080fd5b508051602082015160408301516060840151608085015160a086015160c087015160e08801516101008901516101208a01516101408b0151610160909b0151999a9899979896979596949593949293919290918b8b8b8b8b8b8b8b8b8b8b8b600062000157640100000000620005f1810204565b60008054600160a060020a031916600160a060020a0383169081178255604051929350917f8be0079c531659141344cd1fd0a4f28419497f9722a3daafe3b4186f6b6457e0908290a3508342106200021057604080517f08c379a000000000000000000000000000000000000000000000000000000000815260206004820181905260248201527f43616e2774206465706c6f7920616e206578706972656420636f6e7472616374604482015290519081900360640190fd5b838111156200026b576040517f08c379a000000000000000000000000000000000000000000000000000000000815260040180806020018281038252603c815260200180620044db603c913960400191505060405180910390fd5b6200027f8b640100000000620005f5810204565b620002d6576040517f08c379a000000000000000000000000000000000000000000000000000000000815260040180806020018281038252602d81526020018062004517602d913960400191505060405180910390fd5b620002ea89640100000000620005f5810204565b62000341576040517f08c379a000000000000000000000000000000000000000000000000000000000815260040180806020018281038252602d815260200180620045aa602d913960400191505060405180910390fd5b6200035586640100000000620005f5810204565b620003ac576040517f08c379a000000000000000000000000000000000000000000000000000000000815260040180806020018281038252602f8152602001806200457b602f913960400191505060405180910390fd5b620003c088640100000000620005f5810204565b62000417576040517f08c379a0000000000000000000000000000000000000000000000000000000008152600401808060200182810382526037815260200180620045446037913960400191505060405180910390fd5b8b601660086101000a815481600160a060020a030219169083600160a060020a031602179055508a601660006101000a81548163ffffffff021916908360030b63ffffffff16021790555089601760006101000a815481600160a060020a030219169083600160a060020a0316021790555088601660046101000a81548163ffffffff021916908360030b63ffffffff1602179055506040518060400160405280600181526020018960030b81525060116000820151816000015560208201518160010160006101000a81548163ffffffff021916908360030b63ffffffff16021790555090505060405180604001604052808881526020018760030b815250600f6000820151816000015560208201518160010160006101000a81548163ffffffff021916908360030b63ffffffff16021790555090505084601860006101000a815481600160a060020a030219169083600160a060020a031602179055508360158190555081601960006101000a815481600160a060020a030219169083600160a060020a0316021790555082600460006101000a815481600160a060020a030219169083600160a060020a031602179055508060138190555050505050505050505050505050505050505050505050505062000617565b3390565b6000601e8260030b13158015620006115750601d198260030b12155b92915050565b613eb480620006276000396000f3fe6080604052600436106103a9576000357c01000000000000000000000000000000000000000000000000000000009004806390e64d13116101f9578063c52987cf1161011f578063e184c9be116100bd578063ee1eab4f1161008c578063ee1eab4f14610ed6578063f2fde38b14610f12578063f70a250814610f45578063faa2041f14610f78576103a9565b8063e184c9be14610e38578063ea8c4bcf14610e4d578063eaa376b514610e80578063ed1f41c314610eaa576103a9565b8063cfbea789116100f9578063cfbea78914610d89578063d8dfeb4514610db5578063dd62ed3e14610dca578063dec44c0b14610e05576103a9565b8063c52987cf14610d02578063c56749ce14610d17578063cdb4b5c214610d56576103a9565b8063b2c2b13f11610197578063b7b090ee11610166578063b7b090ee14610b4e578063b96661ba14610c88578063ba1be55414610cb4578063bcbaf48714610cc9576103a9565b8063b2c2b13f14610ae1578063b6e61c0814610b0f578063b736554014610b24578063b76fdb6c14610b39576103a9565b80639ed3edf0116101d35780639ed3edf014610a45578063a457c2d714610a5a578063a9059cbb14610a93578063ad8f500814610acc576103a9565b806390e64d13146109f557806395d89b4114610a0a5780639ce0725114610a1f576103a9565b80633667429f116102de5780636f307dc31161027c57806386f547121161024b57806386f54712146109a15780638a5e8cc7146109b65780638c765e94146109cb5780638da5cb5b146109e0576103a9565b80636f307dc31461091a5780636fd865f91461092f57806370a0823114610959578063715018a61461098c576103a9565b806352f89fe3116102b857806352f89fe3146107c857806358b36dac146108075780635ca7c8a6146108b1578063686c1e21146108f0576103a9565b80633667429f14610732578063395093511461075e5780633bd33f6214610797576103a9565b806318160ddd1161034b578063313ce56711610325578063313ce5671461066b5780633226052d146106965780633237c158146106d5578063352ade55146106ff576103a9565b806318160ddd146105d85780631a0e21bd146105ed57806323b872dd14610628576103a9565b8063095ea7b311610387578063095ea7b3146104e85780630d453efb146105355780630d6cd8aa146105685780630eb9af381461057d576103a9565b806301b4a3c1146103ae578063060ab2ea146103f957806306fdde031461045e575b600080fd5b3480156103ba57600080fd5b506103e7600480360360408110156103d157600080fd5b50600160a060020a038135169060200135610f8d565b60408051918252519081900360200190f35b34801561040557600080fd5b5061040e611168565b60408051602080825283518183015283519192839290830191858101910280838360005b8381101561044a578181015183820152602001610432565b505050509050019250505060405180910390f35b34801561046a57600080fd5b5061047361120f565b6040805160208082528351818301528351919283929083019185019080838360005b838110156104ad578181015183820152602001610495565b50505050905090810190601f1680156104da5780820380516001836020036101000a031916815260200191505b509250505060405180910390f35b3480156104f457600080fd5b506105216004803603604081101561050b57600080fd5b50600160a060020a03813516906020013561129d565b604080519115158252519081900360200190f35b34801561054157600080fd5b506105216004803603602081101561055857600080fd5b5035600160a060020a03166112b3565b34801561057457600080fd5b506105216112d8565b34801561058957600080fd5b506105b0600480360360208110156105a057600080fd5b5035600160a060020a0316611306565b6040805194855260208501939093528383019190915215156060830152519081900360800190f35b3480156105e457600080fd5b506103e761133a565b3480156105f957600080fd5b506106266004803603604081101561061057600080fd5b5080359060200135600160a060020a0316611340565b005b34801561063457600080fd5b506105216004803603606081101561064b57600080fd5b50600160a060020a038135811691602081013590911690604001356114c1565b34801561067757600080fd5b50610680611518565b6040805160ff9092168252519081900360200190f35b3480156106a257600080fd5b50610626600480360360608110156106b957600080fd5b5080359060208101359060400135600160a060020a0316611521565b3480156106e157600080fd5b50610626600480360360208110156106f857600080fd5b503561166b565b34801561070b57600080fd5b50610714611878565b60408051928352600391820b90910b60208301528051918290030190f35b6106266004803603604081101561074857600080fd5b5080359060200135600160a060020a0316611884565b34801561076a57600080fd5b506105216004803603604081101561078157600080fd5b50600160a060020a0381351690602001356119cb565b3480156107a357600080fd5b506107ac611a07565b60408051600160a060020a039092168252519081900360200190f35b3480156107d457600080fd5b50610626600480360360608110156107eb57600080fd5b5080359060208101359060400135600160a060020a0316611a16565b6106266004803603604081101561081d57600080fd5b8135919081019060408101602082013564010000000081111561083f57600080fd5b82018360208201111561085157600080fd5b8035906020019184602083028401116401000000008311171561087357600080fd5b919080806020026020016040519081016040528093929190818152602001838360200280828437600092019190915250929550611a2f945050505050565b3480156108bd57600080fd5b50610626600480360360608110156108d457600080fd5b5080359060208101359060400135600160a060020a0316611b4d565b3480156108fc57600080fd5b506103e76004803603602081101561091357600080fd5b5035611b62565b34801561092657600080fd5b506107ac611b90565b34801561093b57600080fd5b506103e76004803603602081101561095257600080fd5b5035611b9f565b34801561096557600080fd5b506103e76004803603602081101561097c57600080fd5b5035600160a060020a0316611be4565b34801561099857600080fd5b50610626611bff565b3480156109ad57600080fd5b50610521611cb1565b3480156109c257600080fd5b506107ac611e39565b3480156109d757600080fd5b50610714611e48565b3480156109ec57600080fd5b506107ac611e54565b348015610a0157600080fd5b50610521611e63565b348015610a1657600080fd5b50610473611e6c565b6103e760048036036020811015610a3557600080fd5b5035600160a060020a0316611ec7565b348015610a5157600080fd5b5061071461200f565b348015610a6657600080fd5b5061052160048036036040811015610a7d57600080fd5b50600160a060020a03813516906020013561201b565b348015610a9f57600080fd5b5061052160048036036040811015610ab657600080fd5b50600160a060020a038135169060200135612057565b348015610ad857600080fd5b506107ac612064565b348015610aed57600080fd5b50610af6612073565b60408051600392830b90920b8252519081900360200190f35b348015610b1b57600080fd5b50610af6612084565b348015610b3057600080fd5b5061071461208d565b348015610b4557600080fd5b50610626612099565b348015610b5a57600080fd5b5061062660048036036040811015610b7157600080fd5b810190602081018135640100000000811115610b8c57600080fd5b820183602082011115610b9e57600080fd5b80359060200191846001830284011164010000000083111715610bc057600080fd5b91908080601f0160208091040260200160405190810160405280939291908181526020018383808284376000920191909152509295949360208101935035915050640100000000811115610c1357600080fd5b820183602082011115610c2557600080fd5b80359060200191846001830284011164010000000083111715610c4757600080fd5b91908080601f0160208091040260200160405190810160405280939291908181526020018383808284376000920191909152509295506121ab945050505050565b61062660048036036040811015610c9e57600080fd5b5080359060200135600160a060020a0316612250565b348015610cc057600080fd5b50610714612264565b348015610cd557600080fd5b5061062660048036036040811015610cec57600080fd5b50600160a060020a038135169060200135612270565b348015610d0e57600080fd5b50610714612593565b348015610d2357600080fd5b5061062660048036036060811015610d3a57600080fd5b5080359060208101359060400135600160a060020a031661259f565b348015610d6257600080fd5b5061052160048036036020811015610d7957600080fd5b5035600160a060020a03166125b3565b61062660048036036040811015610d9f57600080fd5b5080359060200135600160a060020a03166125d8565b348015610dc157600080fd5b506107ac6125ec565b348015610dd657600080fd5b506103e760048036036040811015610ded57600080fd5b50600160a060020a0381358116916020013516612607565b348015610e1157600080fd5b506103e760048036036020811015610e2857600080fd5b5035600160a060020a0316612632565b348015610e4457600080fd5b506103e76126fd565b348015610e5957600080fd5b5061062660048036036020811015610e7057600080fd5b5035600160a060020a0316612703565b348015610e8c57600080fd5b5061062660048036036020811015610ea357600080fd5b50356127b9565b61062660048036036040811015610ec057600080fd5b5080359060200135600160a060020a03166128c1565b348015610ee257600080fd5b5061062660048036036080811015610ef957600080fd5b50803590602081013590604081013590606001356128d4565b348015610f1e57600080fd5b5061062660048036036020811015610f3557600080fd5b5035600160a060020a0316612acc565b348015610f5157600080fd5b5061052160048036036020811015610f6857600080fd5b5035600160a060020a0316612bd7565b348015610f8457600080fd5b50610626612be4565b6000610f97611e63565b15610fda576040805160e560020a62461bcd0281526020600482015260186024820152600080516020613e5f833981519152604482015290519081900360640190fd5b601654604080517f23b872dd00000000000000000000000000000000000000000000000000000000815233600482015230602482015260448101859052905168010000000000000000909204600160a060020a0316916323b872dd916064808201926020929091908290030181600087803b15801561105857600080fd5b505af115801561106c573d6000803e3d6000fd5b505050506040513d602081101561108257600080fd5b50516110c25760405160e560020a62461bcd028152600401808060200182810382526027815260200180613cbe6027913960400191505060405180910390fd5b6110cb836112b3565b61110d576040805160e560020a62461bcd0281526020600482015260146024820152600080516020613ce5833981519152604482015290519081900360640190fd5b60408051600160a060020a038516815260208101849052338183015290517f2199418ea9428ed3ff7d460860e1edaf5831452fa4ea0f8d1a60d63c603487829181900360600190a161115f8383612cea565b90505b92915050565b6060806000805b600654811015611206576111a36006828154811061118957fe5b600091825260209091200154600160a060020a03166112b3565b156111fe57600681815481106111b557fe5b9060005260206000200160009054906101000a9004600160a060020a03168383815181106111df57fe5b600160a060020a03909216602092830291909101909101526001909101905b60010161116f565b50909150505b90565b601a805460408051602060026001851615610100026000190190941693909304601f810184900484028201840190925281815292918301828280156112955780601f1061126a57610100808354040283529160200191611295565b820191906000526020600020905b81548152906001019060200180831161127857829003601f168201915b505050505081565b60006112aa338484612d6c565b50600192915050565b600160a060020a03811660009081526005602052604090206003015460ff165b919050565b60006112f1601354601554612df490919063ffffffff16565b4210158015611301575060155442105b905090565b600160a060020a03166000908152600560205260409020805460018201546002830154600390930154919390929160ff1690565b60035490565b611348611e63565b1561138b576040805160e560020a62461bcd0281526020600482015260186024820152600080516020613e5f833981519152604482015290519081900360640190fd5b611394336112b3565b6113d6576040805160e560020a62461bcd0281526020600482015260146024820152600080516020613ce5833981519152604482015290519081900360640190fd5b33600090815260056020526040812060018101549091906113fd908563ffffffff612e0916565b905061140d826000015482612e1b565b611461576040805160e560020a62461bcd02815260206004820152600e60248201527f756e7361666520746f206d696e74000000000000000000000000000000000000604482015290519081900360640190fd5b600182018190556114728385612f48565b60408051600160a060020a038516815260208101869052338183015290517f5e5aaabf04e3760968ffb551bdf9708f4dbf95d53ad98539e91a56b125e88f089181900360600190a150505b5050565b60006114ce848484612ff2565b600160a060020a03841660009081526002602090815260408083203380855292529091205461150e918691611509908663ffffffff612df416565b612d6c565b5060019392505050565b601c5460ff1681565b61152b3383610f8d565b506115368330611340565b60048054604080517f095ea7b3000000000000000000000000000000000000000000000000000000008152600160a060020a0390921692820192909252602481018590529051309163095ea7b39160448083019260209291908290030181600087803b1580156115a557600080fd5b505af11580156115b9573d6000803e3d6000fd5b505050506040513d60208110156115cf57600080fd5b505060048054604080517f7dafae59000000000000000000000000000000000000000000000000000000008152600160a060020a03858116948201949094523060248201526000604482018190526064820188905291519390921692637dafae5992608480820193929182900301818387803b15801561164e57600080fd5b505af1158015611662573d6000803e3d6000fd5b50505050505050565b611673611e63565b156116b6576040805160e560020a62461bcd0281526020600482015260186024820152600080516020613e5f833981519152604482015290519081900360640190fd5b6000811161170e576040805160e560020a62461bcd02815260206004820152601a60248201527f43616e6e6f742072656d6f7665203020636f6c6c61746572616c000000000000604482015290519081900360640190fd5b611717336112b3565b611759576040805160e560020a62461bcd0281526020600482015260146024820152600080516020613ce5833981519152604482015290519081900360640190fd5b33600081815260056020526040902090611772906130bf565b8211156117b35760405160e560020a62461bcd028152600401808060200182810382526027815260200180613d8e6027913960400191505060405180910390fd5b80546000906117c8908463ffffffff612df416565b90506117d8818360010154612e1b565b61182c576040805160e560020a62461bcd02815260206004820152600f60248201527f5661756c7420697320756e736166650000000000000000000000000000000000604482015290519081900360640190fd5b80825561183933846130da565b6040805184815233602082015281517f5a945309b3c58e9bb259128c2a530a6579dc75ac1d7d61b3db4c0b8305a16821929181900390910190a1505050565b600b54600c5460030b82565b61188c611cb1565b506118978230612250565b60048054604080517f095ea7b3000000000000000000000000000000000000000000000000000000008152600160a060020a0390921692820192909252602481018490529051309163095ea7b39160448083019260209291908290030181600087803b15801561190657600080fd5b505af115801561191a573d6000803e3d6000fd5b505050506040513d602081101561193057600080fd5b505060048054604080517f7dafae59000000000000000000000000000000000000000000000000000000008152600160a060020a03858116948201949094523060248201526000604482018190526064820187905291519390921692637dafae5992608480820193929182900301818387803b1580156119af57600080fd5b505af11580156119c3573d6000803e3d6000fd5b505050505050565b336000818152600260209081526040808320600160a060020a038716845290915281205490916112aa918590611509908663ffffffff612e0916565b600454600160a060020a031681565b611a1e611cb1565b50611a2a838383611b4d565b505050565b60005b8151811015611b0c576000828281518110611a4957fe5b60200260200101519050611a5c816112b3565b611a9a5760405160e560020a62461bcd02815260040180806020018281038252602f815260200180613e02602f913960400191505060405180910390fd5b600160a060020a038116600090815260056020526040902084611abf575050506114bd565b84816001015410611adc57611ad485836131e8565b5050506114bd565b6001810154611af290869063ffffffff612df416565b9450611b028160010154836131e8565b5050600101611a32565b5081156114bd5760405160e560020a62461bcd02815260040180806020018281038252602d815260200180613d2a602d913960400191505060405180910390fd5b611b573383610f8d565b50611a2a8382611340565b60408051808201909152600d548152600e54600390810b810b900b6020820152600090611162908390613691565b601754600160a060020a031681565b6016546012546000916401000000009004600390810b91810b91909103900b611bdd8367ffffffffffffffff808416600a0a1663ffffffff6137b616565b9392505050565b600160a060020a031660009081526001602052604090205490565b611c076137dd565b600054600160a060020a03908116911614611c5a576040805160e560020a62461bcd0281526020600482018190526024820152600080516020613de2833981519152604482015290519081900360640190fd5b60008054604051600160a060020a03909116907f8be0079c531659141344cd1fd0a4f28419497f9722a3daafe3b4186f6b6457e0908390a36000805473ffffffffffffffffffffffffffffffffffffffff19169055565b6000611cbb611e63565b15611cfe576040805160e560020a62461bcd0281526020600482015260186024820152600080516020613e5f833981519152604482015290519081900360640190fd5b611d07336112b3565b15611d5c576040805160e560020a62461bcd02815260206004820152601560248201527f5661756c7420616c726561647920637265617465640000000000000000000000604482015290519081900360640190fd5b60408051608081018252600080825260208083018281528385018381526001606086018181523380875260058652888720975188559351878301559151600287015590516003909501805460ff1916951515959095179094556006805494850181559092527ff652222313e28459528d920b65115c16c04f3efc82aaedc97be59f3f377c0d3f909201805473ffffffffffffffffffffffffffffffffffffffff191682179055825190815291517f66a872561db77eb92ef3079a44a5af00c68c3a09e0976814a95bd91721f57c2f9281900390910190a150600190565b601954600160a060020a031681565b60075460085460030b82565b600054600160a060020a031690565b60155442101590565b601b805460408051602060026001851615610100026000190190941693909304601f810184900484028201840190925281815292918301828280156112955780601f1061126a57610100808354040283529160200191611295565b6000611ed1611e63565b15611f14576040805160e560020a62461bcd0281526020600482015260186024820152600080516020613e5f833981519152604482015290519081900360640190fd5b601654611f3590680100000000000000009004600160a060020a0316612bd7565b611f735760405160e560020a62461bcd028152600401808060200182810382526028815260200180613c4b6028913960400191505060405180910390fd5b611f7c826112b3565b611fbe576040805160e560020a62461bcd0281526020600482015260146024820152600080516020613ce5833981519152604482015290519081900360640190fd5b60408051600160a060020a0384168152346020820152338183015290517ff24ce6016de57e90501829715846e26ac283a0aabfc160647e0ae8b05e0f433d9181900360600190a16111628234612cea565b600954600a5460030b82565b336000818152600260209081526040808320600160a060020a038716845290915281205490916112aa918590611509908663ffffffff612df416565b60006112aa338484612ff2565b601854600160a060020a031681565b601654640100000000900460030b81565b60165460030b81565b60115460125460030b82565b6120a1611e63565b6120df5760405160e560020a62461bcd028152600401808060200182810382526025815260200180613c996025913960400191505060405180910390fd5b6120e8336112b3565b61212a576040805160e560020a62461bcd0281526020600482015260146024820152600080516020613ce5833981519152604482015290519081900360640190fd5b336000818152600560205260408120805460028201805484845560018401859055939055909290919061215d90836130da565b61216733826137e1565b6040805183815260208101839052338183015290517fe481532a3f7d078365ca0145442ed0a0a3e0443f3c0bae0c29cff131112678389181900360600190a1505050565b6121b36137dd565b600054600160a060020a03908116911614612206576040805160e560020a62461bcd0281526020600482018190526024820152600080516020613de2833981519152604482015290519081900360640190fd5b815161221990601a906020850190613b48565b50805161222d90601b906020840190613b48565b50601254601c805460ff191660039290920b60000360ff169190911790556114bd565b61225933611ec7565b506114bd8282611340565b600d54600e5460030b82565b612278611e63565b156122bb576040805160e560020a62461bcd0281526020600482015260186024820152600080516020613e5f833981519152604482015290519081900360640190fd5b6122c4826112b3565b612306576040805160e560020a62461bcd0281526020600482015260146024820152600080516020613ce5833981519152604482015290519081900360640190fd5b600160a060020a0382166000908152600560205260409020612327836125b3565b61237b576040805160e560020a62461bcd02815260206004820152600d60248201527f5661756c74206973207361666500000000000000000000000000000000000000604482015290519081900360640190fd5b33600160a060020a03841614156123dc576040805160e560020a62461bcd02815260206004820181905260248201527f4f776e65722063616e2774206c6971756964617465207468656d73656c766573604482015290519081900360640190fd5b600061240183604051806040016040528060018152602001600060030b8152506138a0565b604080518082019091526007548152600854600390810b810b900b60208201529091506000906124329085906138a0565b90506000612446838363ffffffff612e0916565b600b5485549192506000916124609163ffffffff6137b616565b600c549091506000600391820b90910b131561249b57600c54612494908290600390810b900b600a0a63ffffffff6137b616565b90506124bf565b600c546124bc908290600390810b600003900b600a0a63ffffffff6139a716565b90505b808211156125015760405160e560020a62461bcd028152600401808060200182810382526037815260200180613d576037913960400191505060405180910390fd5b8454612513908363ffffffff612df416565b8555600185015461252a908763ffffffff612df416565b600186015561253933876139c9565b61254333836130da565b60408051838152600160a060020a0389166020820152338183015290517fcab8e1abb9f8235c6db895cf185336dc9461aecf477b98c1be83687ee549e66a9181900360600190a150505050505050565b600f5460105460030b82565b6125a7611cb1565b50611536838330611b4d565b6000806125d06125c2846130bf565b6125cb85613a72565b612e1b565b159392505050565b6125e133611ec7565b506118978230611340565b601654680100000000000000009004600160a060020a031681565b600160a060020a03918216600090815260026020908152604080832093909416825291909152205490565b600061263d826125b3565b156126f557600160a060020a0382166000908152600560205260408120600c54600b54825492939261269292600390810b8503900b600a0a91612686919063ffffffff6137b616565b9063ffffffff6139a716565b600854909150600390810b600003900b600a0a6126ad613bc6565b6040805180820190915260075481906126cc908563ffffffff612e0916565b8152600854600390810b900b60209091015290506126ea8382613691565b9450505050506112d3565b5060006112d3565b60155481565b61270b6137dd565b600054600160a060020a0390811691161461275e576040805160e560020a62461bcd0281526020600482018190526024820152600080516020613de2833981519152604482015290519081900360640190fd5b60148054600090915561277182826130da565b60408051600160a060020a03841681526020810183905281517f88b171bb78d3ac5e1caa8e729dddce4e1322e84c80c093ebbe52507b62c77d98929181900390910190a15050565b6127c1611e63565b15612804576040805160e560020a62461bcd0281526020600482015260186024820152600080516020613e5f833981519152604482015290519081900360640190fd5b61280d336112b3565b61284f576040805160e560020a62461bcd0281526020600482015260146024820152600080516020613ce5833981519152604482015290519081900360640190fd5b3360009081526005602052604090206001810154612873908363ffffffff612df416565b600182015561288233836139c9565b604080513381526020810184905281517fdf8cebdea6ef1fd20576b80bc951377c0e61e2a8169153a1f836673ccce80e62929181900390910190a15050565b6128c9611cb1565b506114bd8282612250565b6128dc6137dd565b600054600160a060020a0390811691161461292f576040805160e560020a62461bcd0281526020600482018190526024820152600080516020613de2833981519152604482015290519081900360640190fd5b60c88411156129725760405160e560020a62461bcd028152600401808060200182810382526025815260200180613d056025913960400191505060405180910390fd5b6103e88311156129b65760405160e560020a62461bcd02815260040180806020018281038252602b815260200180613c20602b913960400191505060405180910390fd5b6064821115612a0f576040805160e560020a62461bcd02815260206004820181905260248201527f43616e27742068617665207472616e73616374696f6e20666565203e20313025604482015290519081900360640190fd5b600a811015612a525760405160e560020a62461bcd028152600401808060200182810382526028815260200180613bf86028913960400191505060405180910390fd5b6007849055600b8390556009829055600d8190557f3450d20c21ea671871fed271900cc8ff03badafa9b6fe2ff7f86991950e86b6b84848484612a93611e54565b604080519586526020860194909452848401929092526060840152600160a060020a03166080830152519081900360a00190a150505050565b612ad46137dd565b600054600160a060020a03908116911614612b27576040805160e560020a62461bcd0281526020600482018190526024820152600080516020613de2833981519152604482015290519081900360640190fd5b600160a060020a038116612b6f5760405160e560020a62461bcd028152600401808060200182810382526026815260200180613c736026913960400191505060405180910390fd5b60008054604051600160a060020a03808516939216917f8be0079c531659141344cd1fd0a4f28419497f9722a3daafe3b4186f6b6457e091a36000805473ffffffffffffffffffffffffffffffffffffffff1916600160a060020a0392909216919091179055565b600160a060020a03161590565b612bed336112b3565b612c2f576040805160e560020a62461bcd0281526020600482015260146024820152600080516020613ce5833981519152604482015290519081900360640190fd5b3360009081526005602052604090206002810154612c97576040805160e560020a62461bcd02815260206004820152601560248201527f4e6f20756e6465726c79696e672062616c616e63650000000000000000000000604482015290519081900360640190fd5b6002810180546000909155612cac33826137e1565b6040805182815233602082015281517fea0bff65fa9380b944e9a761f9c6a665ad2d31e74706a52773ddb45c8a57c83d929181900390910190a15050565b6000612cf4611e63565b15612d37576040805160e560020a62461bcd0281526020600482015260186024820152600080516020613e5f833981519152604482015290519081900360640190fd5b600160a060020a03831660009081526005602052604090208054612d61908463ffffffff612e0916565b908190559392505050565b600160a060020a038216612d7f57600080fd5b600160a060020a038316612d9257600080fd5b600160a060020a03808416600081815260026020908152604080832094871680845294825291829020859055815185815291517f8c5be1e5ebec7d5bd14f71427d1e84f3dd0314c0f7b2291e5b200ac8c7c3b9259281900390910190a3505050565b600082821115612e0357600080fd5b50900390565b60008282018381101561115f57600080fd5b6018546016546000916001918291600160a060020a03908116680100000000000000009092041614612e8357601654612e6890680100000000000000009004600160a060020a0316613a90565b601854909250612e8090600160a060020a0316613a90565b90505b600f54600d54600091612ead91612ea190889063ffffffff6137b616565b9063ffffffff6137b616565b601054600e54919250600391820b910b016000612ed4846126868a8863ffffffff6137b616565b601654909150600390810b90600090819085810b9084900b1215612f185782850360030b915083612f0f87600a85900a63ffffffff6137b616565b11159050612f3a565b84830360030b9150612f3484600a84900a63ffffffff6137b616565b86111590505b9a9950505050505050505050565b600160a060020a038216612f5b57600080fd5b600354612f6e908263ffffffff612e0916565b600355600160a060020a038216600090815260016020526040902054612f9a908263ffffffff612e0916565b600160a060020a03831660008181526001602090815260408083209490945583518581529351929391927fddf252ad1be2c89b69c2b068fc378daa952ba7f163c4a11628f55a4df523b3ef9281900390910190a35050565b600160a060020a03821661300557600080fd5b600160a060020a03831660009081526001602052604090205461302e908263ffffffff612df416565b600160a060020a038085166000908152600160205260408082209390935590841681522054613063908263ffffffff612e0916565b600160a060020a0380841660008181526001602090815260409182902094909455805185815290519193928716927fddf252ad1be2c89b69c2b068fc378daa952ba7f163c4a11628f55a4df523b3ef92918290030190a3505050565b600160a060020a031660009081526005602052604090205490565b6016546130fb90680100000000000000009004600160a060020a0316612bd7565b1561313c57604051600160a060020a0383169082156108fc029083906000818181858888f19350505050158015613136573d6000803e3d6000fd5b506114bd565b601654604080517fa9059cbb000000000000000000000000000000000000000000000000000000008152600160a060020a038581166004830152602482018590529151680100000000000000009093049091169163a9059cbb916044808201926020929091908290030181600087803b1580156131b857600080fd5b505af11580156131cc573d6000803e3d6000fd5b505050506040513d60208110156131e257600080fd5b50505050565b6131f06112d8565b61322e5760405160e560020a62461bcd02815260040180806020018281038252602d815260200180613db5602d913960400191505060405180910390fd5b613237816112b3565b613279576040805160e560020a62461bcd0281526020600482015260146024820152600080516020613ce5833981519152604482015290519081900360640190fd5b600160a060020a0381166000908152600560205260409020826132e6576040805160e560020a62461bcd02815260206004820152601860248201527f43616e27742065786572636973652030206f546f6b656e730000000000000000604482015290519081900360640190fd5b806001015483111561332c5760405160e560020a62461bcd02815260040180806020018281038252602e815260200180613e31602e913960400191505060405180910390fd5b8261333633611be4565b101561338c576040805160e560020a62461bcd02815260206004820152601260248201527f4e6f7420656e6f756768206f546f6b656e730000000000000000000000000000604482015290519081900360640190fd5b600061339784611b9f565b60028301549091506133af908263ffffffff612e0916565b60028301556040805180820190915260018152600060208201819052906133d79086906138a0565b604080518082019091526009548152600a54600390810b810b900b60208201529091506000906134089087906138a0565b60145490915061341e908263ffffffff612e0916565b6014556000613433838363ffffffff612e0916565b855490915081111561348f576040805160e560020a62461bcd02815260206004820181905260248201527f5661756c7420756e64657277617465722c2063616e2774206578657263697365604482015290519081900360640190fd5b84546134a1908263ffffffff612df416565b855560018501546134b8908863ffffffff612df416565b60018601556017546134d290600160a060020a0316612bd7565b156135335783341461352e576040805160e560020a62461bcd02815260206004820152601360248201527f496e636f7272656374206d73672e76616c756500000000000000000000000000604482015290519081900360640190fd5b613626565b601754604080517f23b872dd000000000000000000000000000000000000000000000000000000008152336004820152306024820152604481018790529051600160a060020a03909216916323b872dd916064808201926020929091908290030181600087803b1580156135a657600080fd5b505af11580156135ba573d6000803e3d6000fd5b505050506040513d60208110156135d057600080fd5b5051613626576040805160e560020a62461bcd02815260206004820152601c60248201527f436f756c64206e6f74207472616e7366657220696e20746f6b656e7300000000604482015290519081900360640190fd5b61363033886139c9565b61363a33846130da565b60408051858152602081018590523381830152600160a060020a038816606082015290517ffa7bab37479e50a9b24a9412b879d400de9bcaa1e3a2b343e90bb370d85bbaa79181900360800190a150505050505050565b6018546016546000916001918291600160a060020a039081166801000000000000000090920416146136f9576016546136de90680100000000000000009004600160a060020a0316613a90565b6018549092506136f690600160a060020a0316613a90565b90505b600f548451600091613711919063ffffffff6137b616565b601054602087015191925060030b016000613736846126868a8863ffffffff6137b616565b601654909150600390810b90600090819085810b9084900b12156137875782850360030b915061378061377387600a85900a63ffffffff6137b616565b859063ffffffff6139a716565b9050612f3a565b84830360030b91506137a78661268686600a86900a63ffffffff6137b616565b9b9a5050505050505050505050565b6000826137c557506000611162565b828202828482816137d257fe5b041461115f57600080fd5b3390565b6017546137f690600160a060020a0316612bd7565b1561383157604051600160a060020a0383169082156108fc029083906000818181858888f19350505050158015613136573d6000803e3d6000fd5b601754604080517fa9059cbb000000000000000000000000000000000000000000000000000000008152600160a060020a038581166004830152602482018590529151919092169163a9059cbb9160448083019260209291908290030181600087803b1580156131b857600080fd5b6018546016546000916001918291600160a060020a03908116680100000000000000009092041614613908576016546138ed90680100000000000000009004600160a060020a0316613a90565b60185490925061390590600160a060020a0316613a90565b90505b8351600f54600091613929918491612ea19182908b9063ffffffff6137b616565b6016546020870151601054929350600391820b92820b01919091039060009082900b811215613977578161396f866126868663ffffffff808616600a0a8116906137b616565b91505061399c565b6000829003613998866126868663ffffffff808616600a0a8116906139a716565b9150505b979650505050505050565b60008082116139b557600080fd5b60008284816139c057fe5b04949350505050565b600160a060020a0382166139dc57600080fd5b6003546139ef908263ffffffff612df416565b600355600160a060020a038216600090815260016020526040902054613a1b908263ffffffff612df416565b600160a060020a0383166000818152600160209081526040808320949094558351858152935191937fddf252ad1be2c89b69c2b068fc378daa952ba7f163c4a11628f55a4df523b3ef929081900390910190a35050565b600160a060020a031660009081526005602052604090206001015490565b6000600160a060020a038216613aaf5750670de0b6b3a76400006112d3565b601954604080517f41976e09000000000000000000000000000000000000000000000000000000008152600160a060020a038581166004830152915191909216916341976e09916024808301926020929190829003018186803b158015613b1557600080fd5b505afa158015613b29573d6000803e3d6000fd5b505050506040513d6020811015613b3f57600080fd5b505190506112d3565b828054600181600116156101000203166002900490600052602060002090601f016020900481019282601f10613b8957805160ff1916838001178555613bb6565b82800160010185558215613bb6579182015b82811115613bb6578251825591602001919060010190613b9b565b50613bc2929150613bdd565b5090565b604080518082019091526000808252602082015290565b61120c91905b80821115613bc25760008155600101613be356fe43616e27742068617665206d696e436f6c6c61746572616c697a6174696f6e526174696f203c203143616e2774206c6971756964617465206d6f7265207468616e2031303025206f6620746865207661756c74455448206973206e6f74207468652073706563696669656420636f6c6c61746572616c20747970654f776e61626c653a206e6577206f776e657220697320746865207a65726f206164647265737343616e277420636f6c6c65637420636f6c6c61746572616c20756e74696c20657870697279436f756c64206e6f74207472616e7366657220696e20636f6c6c61746572616c20746f6b656e735661756c7420646f6573206e6f7420657869737400000000000000000000000043616e27742068617665203e323025206c69717569646174696f6e20696e63656e74697665537065636966696564207661756c7473206861766520696e73756666696369656e7420636f6c6c61746572616c43616e206f6e6c79206c6971756964617465206c69717569646174696f6e20666163746f7220617420616e7920676976656e2074696d6543616e27742072656d6f7665206d6f726520636f6c6c61746572616c207468616e206f776e656443616e2774206578657263697365206f757473696465206f66207468652065786572636973652077696e646f774f776e61626c653a2063616c6c6572206973206e6f7420746865206f776e657243616e6e6f742065786572636973652066726f6d2061207661756c74207468617420646f65736e277420657869737443616e2774206578657263697365206d6f7265206f546f6b656e73207468616e20746865206f776e6572206861734f7074696f6e7320636f6e747261637420657870697265640000000000000000a264697066735822122070a93dfba933afec10645d8f7a2f45bfb9e863bbbdce378a7f35b97730bb146264736f6c6343000600003345786572636973652077696e646f772063616e2774206265206c6f6e676572207468616e2074686520636f6e74726163742773206c6966657370616e636f6c6c61746572616c206578706f6e656e74206e6f742077697468696e2065787065637465642072616e67656f546f6b656e2065786368616e67652072617465206578706f6e656e74206e6f742077697468696e2065787065637465642072616e6765737472696b65207072696365206578706f6e656e74206e6f742077697468696e2065787065637465642072616e6765756e6465726c79696e67206578706f6e656e74206e6f742077697468696e2065787065637465642072616e6765",
  "source": "// pragma solidity 0.5.10;\npragma solidity >=0.4.22 <0.7.0;\n\nimport \"./OptionsContract.sol\";\n\n/**\n * @title Opyn's Options Contract\n * @author Opyn\n */\n\ncontract oToken is OptionsContract {\n    /**\n    * @param _collateral The collateral asset\n    * @param _collExp The precision of the collateral (-18 if ETH)\n    * @param _underlying The asset that is being protected\n    * @param _underlyingExp The precision of the underlying asset\n    * @param _oTokenExchangeExp The precision of the `amount of underlying` that 1 oToken protects\n    * @param _strikePrice The amount of strike asset that will be paid out\n    * @param _strikeExp The precision of the strike asset (-18 if ETH)\n    * @param _strike The asset in which the insurance is calculated\n    * @param _expiry The time at which the insurance expires\n    * @param _optionsExchange The contract which interfaces with the exchange + oracle\n    * @param _oracleAddress The address of the oracle\n    * @param _windowSize UNIX time. Exercise window is from `expiry - _windowSize` to `expiry`.\n    */\n    constructor(\n        IERC20 _collateral,\n        int32 _collExp,\n        IERC20 _underlying,\n        int32 _underlyingExp,\n        int32 _oTokenExchangeExp,\n        uint256 _strikePrice,\n        int32 _strikeExp,\n        IERC20 _strike,\n        uint256 _expiry,\n        OptionsExchange _optionsExchange,\n        address _oracleAddress,\n        uint256 _windowSize\n    )\n        public\n        OptionsContract(\n            _collateral,\n            _collExp,\n            _underlying,\n            _underlyingExp,\n            _oTokenExchangeExp,\n            _strikePrice,\n            _strikeExp,\n            _strike,\n            _expiry,\n            _optionsExchange,\n            _oracleAddress,\n            _windowSize\n        )\n    {}\n\n    /**\n     * @notice opens a Vault, adds ETH collateral, and mints new oTokens in one step\n     * Remember that creating oTokens can put the owner at a risk of losing the collateral\n     * if an exercise event happens.\n     * The sell function provides the owner a chance to earn premiums.\n     * Ensure that you create and immediately sell oTokens atmoically.\n     * @param amtToCreate number of oTokens to create\n     * @param receiver address to send the Options to\n     */\n    function createETHCollateralOption(uint256 amtToCreate, address receiver)\n        external\n        payable\n    {\n        openVault();\n        addETHCollateralOption(amtToCreate, receiver);\n    }\n\n    /**\n     * @notice adds ETH collateral, and mints new oTokens in one step to an existing Vault\n     * Remember that creating oTokens can put the owner at a risk of losing the collateral\n     * if an exercise event happens.\n     * The sell function provides the owner a chance to earn premiums.\n     * Ensure that you create and immediately sell oTokens atmoically.\n     * @param amtToCreate number of oTokens to create\n     * @param receiver address to send the Options to\n     */\n    function addETHCollateralOption(uint256 amtToCreate, address receiver)\n        public\n        payable\n    {\n        addETHCollateral(msg.sender);\n        issueOTokens(amtToCreate, receiver);\n    }\n\n    /**\n     * @notice opens a Vault, adds ETH collateral, mints new oTokens and sell in one step\n     * @param amtToCreate number of oTokens to create\n     * @param receiver address to receive the premiums\n     */\n    function createAndSellETHCollateralOption(\n        uint256 amtToCreate,\n        address payable receiver\n    ) external payable {\n        openVault();\n        addETHCollateralOption(amtToCreate, address(this));\n        this.approve(address(optionsExchange), amtToCreate);\n        optionsExchange.sellOTokens(\n            receiver,\n            address(this),\n            address(0),\n            amtToCreate\n        );\n    }\n\n    /**\n     * @notice adds ETH collateral to an existing Vault, and mints new oTokens and sells the oTokens in one step\n     * @param amtToCreate number of oTokens to create\n     * @param receiver address to send the Options to\n     */\n    function addAndSellETHCollateralOption(\n        uint256 amtToCreate,\n        address payable receiver\n    ) public payable {\n        addETHCollateral(msg.sender);\n        issueOTokens(amtToCreate, address(this));\n        this.approve(address(optionsExchange), amtToCreate);\n        optionsExchange.sellOTokens(\n            receiver,\n            address(this),\n            address(0),\n            amtToCreate\n        );\n    }\n\n    /**\n     * @notice opens a Vault, adds ERC20 collateral, and mints new oTokens in one step\n     * Remember that creating oTokens can put the owner at a risk of losing the collateral\n     * if an exercise event happens.\n     * The sell function provides the owner a chance to earn premiums.\n     * Ensure that you create and immediately sell oTokens atmoically.\n     * @param amtToCreate number of oTokens to create\n     * @param amtCollateral amount of collateral added\n     * @param receiver address to send the Options to\n     */\n    function createERC20CollateralOption(\n        uint256 amtToCreate,\n        uint256 amtCollateral,\n        address receiver\n    ) external {\n        openVault();\n        addERC20CollateralOption(amtToCreate, amtCollateral, receiver);\n    }\n\n    /**\n     * @notice adds ERC20 collateral, and mints new oTokens in one step\n     * Remember that creating oTokens can put the owner at a risk of losing the collateral\n     * if an exercise event happens.\n     * The sell function provides the owner a chance to earn premiums.\n     * Ensure that you create and immediately sell oTokens atmoically.\n     * @param amtToCreate number of oTokens to create\n     * @param amtCollateral amount of collateral added\n     * @param receiver address to send the Options to\n     */\n    function addERC20CollateralOption(\n        uint256 amtToCreate,\n        uint256 amtCollateral,\n        address receiver\n    ) public {\n        addERC20Collateral(msg.sender, amtCollateral);\n        issueOTokens(amtToCreate, receiver);\n    }\n\n    /**\n     * @notice opens a Vault, adds ERC20 collateral, mints new oTokens and sells the oTokens in one step\n     * @param amtToCreate number of oTokens to create\n     * @param amtCollateral amount of collateral added\n     * @param receiver address to send the Options to\n     */\n    function createAndSellERC20CollateralOption(\n        uint256 amtToCreate,\n        uint256 amtCollateral,\n        address payable receiver\n    ) external {\n        openVault();\n        addERC20CollateralOption(amtToCreate, amtCollateral, address(this));\n        this.approve(address(optionsExchange), amtToCreate);\n        optionsExchange.sellOTokens(\n            receiver,\n            address(this),\n            address(0),\n            amtToCreate\n        );\n    }\n\n    /**\n     * @notice adds ERC20 collateral, mints new oTokens and sells the oTokens in one step\n     * @param amtToCreate number of oTokens to create\n     * @param amtCollateral amount of collateral added\n     * @param receiver address to send the Options to\n     */\n    function addAndSellERC20CollateralOption(\n        uint256 amtToCreate,\n        uint256 amtCollateral,\n        address payable receiver\n    ) public {\n        addERC20Collateral(msg.sender, amtCollateral);\n        issueOTokens(amtToCreate, address(this));\n        this.approve(address(optionsExchange), amtToCreate);\n        optionsExchange.sellOTokens(\n            receiver,\n            address(this),\n            address(0),\n            amtToCreate\n        );\n    }\n}\n",
  "sourcePath": "/Users/jenil/Desktop/code/hip/contracts/opyn/oToken.sol",
  "compiler": {
    "name": "solc",
    "version": "0.6.0+commit.26b70077.Emscripten.clang"
  },
  "schemaVersion": "3.1.0",
  "updatedAt": "2020-05-22T18:19:27.763Z",
  "devdoc": {
    "author": "Opyn",
    "methods": {
      "addAndSellERC20CollateralOption(uint256,uint256,address)": {
        "params": {
          "amtCollateral": "amount of collateral added",
          "amtToCreate": "number of oTokens to create",
          "receiver": "address to send the Options to"
        }
      },
      "addAndSellETHCollateralOption(uint256,address)": {
        "params": {
          "amtToCreate": "number of oTokens to create",
          "receiver": "address to send the Options to"
        }
      },
      "addERC20Collateral(address,uint256)": {
        "params": {
          "amt": "the amount of collateral to be transferred in.",
          "vaultOwner": "the index of the Vault to which collateral will be added."
        }
      },
      "addERC20CollateralOption(uint256,uint256,address)": {
        "params": {
          "amtCollateral": "amount of collateral added",
          "amtToCreate": "number of oTokens to create",
          "receiver": "address to send the Options to"
        }
      },
      "addETHCollateral(address)": {
        "params": {
          "vaultOwner": "the index of the Vault to which collateral will be added."
        }
      },
      "addETHCollateralOption(uint256,address)": {
        "params": {
          "amtToCreate": "number of oTokens to create",
          "receiver": "address to send the Options to"
        }
      },
      "allowance(address,address)": {
        "details": "Function to check the amount of tokens that an owner allowed to a spender.",
        "params": {
          "owner": "address The address which owns the funds.",
          "spender": "address The address which will spend the funds."
        },
        "returns": {
          "_0": "A uint256 specifying the amount of tokens still available for the spender."
        }
      },
      "approve(address,uint256)": {
        "details": "Approve the passed address to spend the specified amount of tokens on behalf of msg.sender. Beware that changing an allowance with this method brings the risk that someone may use both the old and the new allowance by unfortunate transaction ordering. One possible solution to mitigate this race condition is to first reduce the spender's allowance to 0 and set the desired value afterwards: https://github.com/ethereum/EIPs/issues/20#issuecomment-263524729",
        "params": {
          "spender": "The address which will spend the funds.",
          "value": "The amount of tokens to be spent."
        }
      },
      "balanceOf(address)": {
        "details": "Gets the balance of the specified address.",
        "params": {
          "owner": "The address to query the balance of."
        },
        "returns": {
          "_0": "A uint256 representing the amount owned by the passed address."
        }
      },
      "burnOTokens(uint256)": {
        "details": "only want to call this function before expiry. After expiry, no benefit to calling it.",
        "params": {
          "amtToBurn": "number of oTokens to burn"
        }
      },
      "constructor": {
        "params": {
          "_collExp": "The precision of the collateral (-18 if ETH)",
          "_collateral": "The collateral asset",
          "_expiry": "The time at which the insurance expires",
          "_oTokenExchangeExp": "The precision of the `amount of underlying` that 1 oToken protects",
          "_optionsExchange": "The contract which interfaces with the exchange + oracle",
          "_oracleAddress": "The address of the oracle",
          "_strike": "The asset in which the insurance is calculated",
          "_strikeExp": "The precision of the strike asset (-18 if ETH)",
          "_strikePrice": "The amount of strike asset that will be paid out",
          "_underlying": "The asset that is being protected",
          "_underlyingExp": "The precision of the underlying asset",
          "_windowSize": "UNIX time. Exercise window is from `expiry - _windowSize` to `expiry`."
        }
      },
      "createAndSellERC20CollateralOption(uint256,uint256,address)": {
        "params": {
          "amtCollateral": "amount of collateral added",
          "amtToCreate": "number of oTokens to create",
          "receiver": "address to send the Options to"
        }
      },
      "createAndSellETHCollateralOption(uint256,address)": {
        "params": {
          "amtToCreate": "number of oTokens to create",
          "receiver": "address to receive the premiums"
        }
      },
      "createERC20CollateralOption(uint256,uint256,address)": {
        "params": {
          "amtCollateral": "amount of collateral added",
          "amtToCreate": "number of oTokens to create",
          "receiver": "address to send the Options to"
        }
      },
      "createETHCollateralOption(uint256,address)": {
        "params": {
          "amtToCreate": "number of oTokens to create",
          "receiver": "address to send the Options to"
        }
      },
      "decreaseAllowance(address,uint256)": {
        "details": "Decrease the amount of tokens that an owner allowed to a spender. approve should be called when _allowed[msg.sender][spender] == 0. To decrement allowed value is better to use this function to avoid 2 calls (and wait until the first transaction is mined) From MonolithDAO Token.sol Emits an Approval event.",
        "params": {
          "spender": "The address which will spend the funds.",
          "subtractedValue": "The amount of tokens to decrease the allowance by."
        }
      },
      "exercise(uint256,address[])": {
        "params": {
          "oTokensToExercise": "the number of oTokens being exercised.",
          "vaultsToExerciseFrom": "the array of vaults to exercise from."
        }
      },
      "getVault(address)": {
        "params": {
          "vaultOwner": "the owner of the Vault to return"
        }
      },
      "hasVault(address)": {
        "params": {
          "owner": "The address of the supposed owner"
        },
        "returns": {
          "_0": "true or false"
        }
      },
      "increaseAllowance(address,uint256)": {
        "details": "Increase the amount of tokens that an owner allowed to a spender. approve should be called when _allowed[msg.sender][spender] == 0. To increment allowed value is better to use this function to avoid 2 calls (and wait until the first transaction is mined) From MonolithDAO Token.sol Emits an Approval event.",
        "params": {
          "addedValue": "The amount of tokens to increase the allowance by.",
          "spender": "The address which will spend the funds."
        }
      },
      "isETH(address)": {
        "params": {
          "_ierc20": "the ERC20 asset."
        }
      },
      "isUnsafe(address)": {
        "params": {
          "vaultOwner": "The number of the vault to check"
        },
        "returns": {
          "_0": "true or false"
        }
      },
      "issueOTokens(uint256,address)": {
        "details": "The owner of a Vault should only be able to have a max of repo.collateral * collateralToStrike / (minminCollateralizationRatio * strikePrice) tokens issued.",
        "params": {
          "oTokensToIssue": "The number of o tokens to issue",
          "receiver": "The address to send the oTokens to"
        }
      },
      "liquidate(address,uint256)": {
        "details": "Liquidator comes with _oTokens. They get _oTokens * strikePrice * (incentive + fee) amount of collateral out. They can liquidate a max of liquidationFactor * vault.collateral out in one function call i.e. partial liquidations.",
        "params": {
          "oTokensToLiquidate": "The number of oTokens being taken out of circulation",
          "vaultOwner": "The index of the vault to be liquidated"
        }
      },
      "maxOTokensIssuable(uint256)": {
        "params": {
          "collateralAmt": "The amount of collateral against which oTokens will be issued."
        }
      },
      "maxOTokensLiquidatable(address)": {
        "params": {
          "vaultOwner": "The index of the vault to be liquidated"
        }
      },
      "owner()": {
        "details": "Returns the address of the current owner."
      },
      "redeemVaultBalance()": {
        "details": "The owner gets all of their collateral back if no exercise event took their collateral."
      },
      "removeCollateral(uint256)": {
        "params": {
          "amtToRemove": "Amount of collateral to remove in 10^-18."
        }
      },
      "renounceOwnership()": {
        "details": "Leaves the contract without owner. It will not be possible to call `onlyOwner` functions anymore. Can only be called by the current owner.     * NOTE: Renouncing ownership will leave the contract without an owner, thereby removing any functionality that is only available to the owner."
      },
      "setDetails(string,string)": {
        "params": {
          "_name": "The name of the contract",
          "_symbol": "The symbol of the contract"
        }
      },
      "totalSupply()": {
        "details": "Total number of tokens in existence."
      },
      "transfer(address,uint256)": {
        "details": "Transfer token to a specified address.",
        "params": {
          "to": "The address to transfer to.",
          "value": "The amount to be transferred."
        }
      },
      "transferFee(address)": {
        "params": {
          "_address": "The address to send the fee to."
        }
      },
      "transferFrom(address,address,uint256)": {
        "details": "Transfer tokens from one address to another. Note that while this function emits an Approval event, this is not required as per the specification, and other compliant implementations may not emit the event.",
        "params": {
          "from": "address The address which you want to send tokens from",
          "to": "address The address which you want to transfer to",
          "value": "uint256 the amount of tokens to be transferred"
        }
      },
      "transferOwnership(address)": {
        "details": "Transfers ownership of the contract to a new account (`newOwner`). Can only be called by the current owner."
      },
      "updateParameters(uint256,uint256,uint256,uint256)": {
        "params": {
          "_liquidationFactor": "Max amount that a Vault can be liquidated by. 500 is 0.5.",
          "_liquidationIncentive": "The incentive paid to liquidator. 10 is 0.01 i.e. 1% incentive.",
          "_minCollateralizationRatio": "The minimum ratio of a Vault's collateral to insurance promised. 16 means 1.6.",
          "_transactionFee": "The fees paid to our protocol every time a execution happens. 100 is egs. 0.1 i.e. 10%."
        }
      }
    },
    "title": "Opyn's Options Contract"
  },
  "userdoc": {
    "methods": {
      "addAndSellERC20CollateralOption(uint256,uint256,address)": {
        "notice": "adds ERC20 collateral, mints new oTokens and sells the oTokens in one step"
      },
      "addAndSellETHCollateralOption(uint256,address)": {
        "notice": "adds ETH collateral to an existing Vault, and mints new oTokens and sells the oTokens in one step"
      },
      "addERC20Collateral(address,uint256)": {
        "notice": "If the collateral type is any ERC20, anyone can call this function any time before expiry to increase the amount of collateral in a Vault. Can only transfer in the collateral asset. Will fail if ETH is the collateral asset. The user has to allow the contract to handle their ERC20 tokens on his behalf before these functions are called. Remember that adding ERC20 collateral even if no oTokens have been created can put the owner at a risk of losing the collateral. Ensure that you issue and immediately sell the oTokens! (Either call the createAndSell function in the oToken contract or batch the addERC20Collateral, issueOTokens and sell transactions and ensure they happen atomically to protect the end user)."
      },
      "addERC20CollateralOption(uint256,uint256,address)": {
        "notice": "adds ERC20 collateral, and mints new oTokens in one step Remember that creating oTokens can put the owner at a risk of losing the collateral if an exercise event happens. The sell function provides the owner a chance to earn premiums. Ensure that you create and immediately sell oTokens atmoically."
      },
      "addETHCollateral(address)": {
        "notice": "If the collateral type is ETH, anyone can call this function any time before expiry to increase the amount of collateral in a Vault. Will fail if ETH is not the collateral asset. Remember that adding ETH collateral even if no oTokens have been created can put the owner at a risk of losing the collateral if an exercise event happens. Ensure that you issue and immediately sell oTokens to allow the owner to earn premiums. (Either call the createAndSell function in the oToken contract or batch the addERC20Collateral, issueOTokens and sell transactions and ensure they happen atomically to protect the end user)."
      },
      "addETHCollateralOption(uint256,address)": {
        "notice": "adds ETH collateral, and mints new oTokens in one step to an existing Vault Remember that creating oTokens can put the owner at a risk of losing the collateral if an exercise event happens. The sell function provides the owner a chance to earn premiums. Ensure that you create and immediately sell oTokens atmoically."
      },
      "burnOTokens(uint256)": {
        "notice": "allows the owner to burn their oTokens to increase the collateralization ratio of their vault."
      },
      "createAndSellERC20CollateralOption(uint256,uint256,address)": {
        "notice": "opens a Vault, adds ERC20 collateral, mints new oTokens and sells the oTokens in one step"
      },
      "createAndSellETHCollateralOption(uint256,address)": {
        "notice": "opens a Vault, adds ETH collateral, mints new oTokens and sell in one step"
      },
      "createERC20CollateralOption(uint256,uint256,address)": {
        "notice": "opens a Vault, adds ERC20 collateral, and mints new oTokens in one step Remember that creating oTokens can put the owner at a risk of losing the collateral if an exercise event happens. The sell function provides the owner a chance to earn premiums. Ensure that you create and immediately sell oTokens atmoically."
      },
      "createETHCollateralOption(uint256,address)": {
        "notice": "opens a Vault, adds ETH collateral, and mints new oTokens in one step Remember that creating oTokens can put the owner at a risk of losing the collateral if an exercise event happens. The sell function provides the owner a chance to earn premiums. Ensure that you create and immediately sell oTokens atmoically."
      },
      "exercise(uint256,address[])": {
        "notice": "Called by anyone holding the oTokens and underlying during the exercise window i.e. from `expiry - windowSize` time to `expiry` time. The caller transfers in their oTokens and corresponding amount of underlying and gets `strikePrice * oTokens` amount of collateral out. The collateral paid out is taken from the each vault owner starting with the first and iterating until the oTokens to exercise are found. NOTE: This uses a for loop and hence could run out of gas if the array passed in is too big!"
      },
      "getVault(address)": {
        "notice": "Returns the vault for a given address"
      },
      "getVaultOwners()": {
        "notice": "This function gets the array of vaultOwners"
      },
      "hasExpired()": {
        "notice": "Returns true if the oToken contract has expired"
      },
      "hasVault(address)": {
        "notice": "Checks if a `owner` has already created a Vault"
      },
      "isETH(address)": {
        "notice": "Returns true if the given ERC20 is ETH."
      },
      "isExerciseWindow()": {
        "notice": "Returns true if exercise can be called"
      },
      "isUnsafe(address)": {
        "notice": "checks if a vault is unsafe. If so, it can be liquidated"
      },
      "issueOTokens(uint256,address)": {
        "notice": "This function is called to issue the option tokens. Remember that issuing oTokens even if they haven't been sold can put the owner at a risk of not making premiums on the oTokens. Ensure that you issue and immidiately sell the oTokens! (Either call the createAndSell function in the oToken contract of batch the issueOTokens transaction with a sell transaction and ensure it happens atomically)."
      },
      "liquidate(address,uint256)": {
        "notice": "This function can be called by anyone who notices a vault is undercollateralized. The caller gets a reward for reducing the amount of oTokens in circulation."
      },
      "maxOTokensIssuable(uint256)": {
        "notice": "This function returns the maximum amount of oTokens that can safely be issued against the specified amount of collateral."
      },
      "maxOTokensLiquidatable(address)": {
        "notice": "This function returns the maximum amount of collateral liquidatable if the given vault is unsafe"
      },
      "openVault()": {
        "notice": "Creates a new empty Vault and sets the owner of the vault to be the msg.sender."
      },
      "redeemVaultBalance()": {
        "notice": "after expiry, each vault holder can get back their proportional share of collateral from vaults that they own."
      },
      "removeCollateral(uint256)": {
        "notice": "allows the owner to remove excess collateral from the vault before expiry. Removing collateral lowers the collateralization ratio of the vault."
      },
      "removeUnderlying()": {
        "notice": "This function allows the vault owner to remove their share of underlying after an exercise"
      },
      "setDetails(string,string)": {
        "notice": "Can only be called by owner. Used to set the name, symbol and decimals of the contract"
      },
      "transferFee(address)": {
        "notice": "Can only be called by owner. Used to take out the protocol fees from the contract."
      },
      "underlyingRequiredToExercise(uint256)": {
        "notice": "Returns the amount of underlying to be transferred during an exercise call"
      },
      "updateParameters(uint256,uint256,uint256,uint256)": {
        "notice": "Can only be called by owner. Used to update the fees, minminCollateralizationRatio, etc"
      }
    }
  }
}