{
  "contractName": "StringComparator",
  "abi": [
    {
      "inputs": [
        {
          "internalType": "string",
          "name": "a",
          "type": "string"
        },
        {
          "internalType": "string",
          "name": "b",
          "type": "string"
        }
      ],
      "name": "compareStrings",
      "outputs": [
        {
          "internalType": "bool",
          "name": "",
          "type": "bool"
        }
      ],
      "stateMutability": "pure",
      "type": "function"
    }
  ],
  "bytecode": "0x6102b4610026600b82828239805160001a60731461001957fe5b30600052607381538281f3fe7300000000000000000000000000000000000000003014608060405260043610610051577c01000000000000000000000000000000000000000000000000000000006000350463bed34bba8114610056575b600080fd5b6101836004803603604081101561006c57600080fd5b81019060208101813564010000000081111561008757600080fd5b82018360208201111561009957600080fd5b803590602001918460018302840111640100000000831117156100bb57600080fd5b91908080601f016020809104026020016040519081016040528093929190818152602001838380828437600092019190915250929594936020810193503591505064010000000081111561010e57600080fd5b82018360208201111561012057600080fd5b8035906020019184600183028401116401000000008311171561014257600080fd5b91908080601f016020809104026020016040519081016040528093929190818152602001838380828437600092019190915250929550610197945050505050565b604080519115158252519081900360200190f35b6000816040516020018082805190602001908083835b602083106101cc5780518252601f1990920191602091820191016101ad565b6001836020036101000a03801982511681845116808217855250505050505090500191505060405160208183030381529060405280519060200120836040516020018082805190602001908083835b6020831061023a5780518252601f19909201916020918201910161021b565b6001836020036101000a038019825116818451168082178552505050505050905001915050604051602081830303815290604052805190602001201490509291505056fea26469706673582212204b0776e557d2eed883c38599bf670a30688848922c267c39bf37af6b010d811664736f6c63430006000033",
  "source": "// pragma solidity 0.5.10;\npragma solidity >=0.4.22 <0.7.0;\n\nlibrary StringComparator {\n    function compareStrings (string memory a, string memory b) public pure\n       returns (bool) {\n        return keccak256(abi.encodePacked((a))) == keccak256(abi.encodePacked((b)));\n    }\n}\n",
  "sourcePath": "/Users/jenil/Desktop/code/hip/contracts/opyn/lib/StringComparator.sol",
  "compiler": {
    "name": "solc",
    "version": "0.6.0+commit.26b70077.Emscripten.clang"
  },
  "schemaVersion": "3.1.0",
  "updatedAt": "2020-05-22T17:04:41.559Z",
  "devdoc": {
    "methods": {}
  },
  "userdoc": {
    "methods": {}
  }
}